S01200006F707469736B617673742E73726563BA
S113000086C00000A1C000009FC000009DC0000089
S11300109BC0000099C0000097C0000095C000007C
S113002093C0000091C000008FC000008DC000008C
S11300308BC0000089C0000087C0000085C000009C
S113004083C0000081C000007FC000007DC00000AC
S11300507BC0000079C0000077C0000075C00000BC
S113006040C1000071C000006FC000006DC00000FE
S11300706BC0000069C0000067C0000065C00000DC
S113008063C0000061C000005FC000000763423627
S1130090B79BD8A71A39685618AEBAAB558C1D3C15
S11300A0B7CC5763BD6DEDFD753EF6177231BF00D9
S11300B00000803F08000000BE922449123EABAA13
S11300C0AA2ABECDCCCC4C3E00000080BEABAAAA6E
S11300D0AA3E00000000BF000000803F00000000B6
S11300E000084178D3BB4387D1133D190E3CC3BDEF
S11300F04282AD2B3E68EC8276BED98FE1A93E4C9C
S113010080EFFFBE01C4FF7F3F0000000000112408
S11301101FBECFEFD0E4DEBFCDBF11E0A0E0B1E061
S1130120E4E8FAE000E00BBF02C007900D92AA31A8
S1130130B107D9F721E0AAE1B1E001C01D92A232D2
S1130140B207E1F7B5D09CC45BCF95B1282F207FCF
S11301509F70922B95B92B982A9A35E03A95F1F72E
S113016000002A98EFE1F3E03197F1F700C00000B6
S113017025B1F0E18F9FC0011124922F9F70892B2C
S113018085B92A9A35E03A95F1F700002A988FE369
S11301909FE10197F1F700C00000089595B1282F61
S11301A0207F9F70922B95B92B9A2A9A35E03A9525
S11301B0F1F700002A98EFE1F3E03197F1F700C07E
S11301C0000025B1F0E18F9FC0011124922F9F7090
S11301D0892B85B92A9A35E03A95F1F700002A98D7
S11301E08FE39FE10197F1F700C0000008958FEFBE
S11301F084B92FEF89EF90E0215080409040E1F7DF
S113020000C0000083E3A1DF82E39FDF88E29DDF7B
S11302108CE09BDF86E099DF81E097DF8FE39FE14D
S11302200197F1F700C0000080E88FCF0895CF93C5
S1130230DF93EC018881882329F02196AFDF89912F
S11302408111FCCFDF91CF91089581E07EDF8FE3B0
S11302509FE10197F1F700C0000080E876CF089590
S1130260CF93DF93EC01F1DF80E091E0E0DF84E104
S11302706CDF4AE06AE171E0CE01CFD38AE191E01C
S1130280D6DF84E162DF8AE091E0D1DFDF91CF91B4
S11302900895BC0180E090E09DD021E93DEE4CE959
S11302A05FEB61D120E032EB4EE856E4F9C00895EB
S11302B09EDFCBDF8DE091E0BADF2FEF87EA91E696
S11302C0215080409040E1F700C000008BEA809309
S11302D07A00BBDF7894EAE7F0E080818064808371
S11302E0FFCF1F920F920FB60F9211240BB60F92ED
S11302F02F933F934F935F936F937F938F939F932A
S1130300AF93BF93EF93FF9380917800209179008E
S113031090E0922B90932101809320018091200101
S113032090912101B6DF25D070931F0160931E01C7
S113033080911E0190911F0193DF2FEF89E698E1D0
S1130340215080409040E1F700C00000FF91EF9100
S1130350BF91AF919F918F917F916F915F914F91D9
S11303603F912F910F900BBE0F900FBE0F901F90D7
S1130370189504D06894B1118DC0089570D088F098
S11303809F5790F0B92F9927B751A0F0D1F0660F7D
S1130390771F881F991F1AF0BA95C9F712C0B13098
S11303A081F077D0B1E0089574C0672F782F882743
S11303B0B85F39F0B93FCCF3869577956795B395D7
S11303C0D9F73EF490958095709561957F4F8F4F46
S11303D09F4F0895E89409C097FB3EF4909580954B
S11303E0709561957F4F8F4F9F4F9923A9F0F92FF7
S11303F096E9BB279395F695879577956795B79575
S1130400F111F8CFFAF4BB0F11F460FF1BC06F5F5A
S11304107F4F8F4F9F4F16C0882311F096E911C06C
S1130420772321F09EE8872F762F05C0662371F08D
S113043096E8862F70E060E02AF09A95660F771FA1
S1130440881FDAF7880F9695879597F9089557FDD1
S11304509058440F551F59F05F3F71F04795880F2E
S113046097FB991F61F09F3F79F0879508951216C5
S113047013061406551FF2CF4695F1DF08C0161671
S113048017061806991FF1CF869571056105089422
S11304900895E894BB2766277727CB0197F9089539
S11304A00BD01AC10BD128F010D118F0952309F004
S11304B0D7C0DCC01124EECFCADFA0F3959FD1F3DF
S11304C0950F50E0551F629FF001729FBB27F00DFE
S11304D0B11D639FAA27F00DB11DAA1F649F662753
S11304E0B00DA11D661F829F2227B00DA11D621FA2
S11304F0739FB00DA11D621F839FA00D611D221F5C
S1130500749F3327A00D611D231F849F600D211D3F
S1130510822F762F6A2F11249F5750408AF0E1F0E2
S113052088234AF0EE0FFF1FBB1F661F771F881F2B
S113053091505040A9F79E3F510570F091C0AACF49
S11305405F3FECF3983EDCF3869577956795B79516
S1130550F795E7959F5FC1F7FE2B880F911D969540
S1130560879597F90895FA01EE0FFF1F309621053C
S1130570310599F16115710561F48038BFE39B077A
S113058049F168949038810561F08038BFEF9B078A
S113059041F0992342F5FF3FE1053105210511F1B1
S11305A0E8940894E795D901AA2329F4AB2FBE2F28
S11305B0F85FD0F310C0FF5F70F4A695E0F7F73949
S11305C050F019F0FF3A38F49F779F930CD00F90B6
S11305D007FC905808953EF049C060E070E080E860
S11305E09FE308954FE79F775F934F933F932F9334
S11305F0C6D02F913F914F915F9152DF05C019F4FE
S11306000EF02EC046CF32C02ADFC8F39638C0F7AA
S113061007F80F92E8942BE33AEA48EB5FE74EDFE2
S11306200F920F920F924DB75EB70F92E8D0ECE89D
S1130630F0E01FD04F915F91EF91FF91E595EE1F90
S1130640FF1F49F0FE57E0684427EE0F441FFA9558
S1130650E1F74195550B5AD00F9007FE4EC008950F
S113066097F99F6780E870E060E008959FEF80EC61
S11306700895DF93CF931F930F93FF92EF92DF922E
S11306807B018C01689405C0DA2EEF0115DFFE01B1
S1130690E894A5912591359145915591AEF3EF01DB
S11306A0F3D0FE019701A801DA9479F7DF90EF9077
S11306B0FF900F911F91CF91DF91089500240A9428
S11306C01616170618060906089500240A94121629
S11306D01306140605060895092E0394000C11F45C
S11306E0882352F0BB0F40F4BF2B11F460FF04C009
S11306F06F5F7F4F8F4F9F4F08959B01AC0160E068
S113070070E080E89FE313C1ABCF79C1A8DEE8F3C2
S11307109923D9F3940F511DBBF39150504094F099
S113072059F0882332F0660F771F881F915050408C
S1130730C1F79E3F510544F7880F911D9695879503
S113074097F908955F3FACF0983E9CF0BB278695DF
S113075077956795B79508F4B1609395C1F7BB0F8A
S113076058F711F460FFE8CF6F5F7F4F8F4F9F4FB3
S1130770E3CF90CE0EF043C179CF689471CF6FDE92
S1130780C8F39923D1F3C6F3DF93CF931F930F9349
S1130790FF92C92FDD2788232AF02197660F771F40
S11307A0881FDAF720E030E040E85FEB9FE3883908
S11307B020F0803E30F021968F7755D0E4EBF0E0C6
S11307C003C051D0E1EEF0E054DF8B01BE01EC0137
S11307D0FB2E6F5771097595771F880B990BFCDDFC
S11307E028E132E741E35FE367DEAF2D9801AE0114
S11307F0FF900F911F91CF91DF9146D06DCFFA01F9
S1130800DC01AA0FBB1F9B01AC01BF5728F42227B0
S11308103327442750781FC0B75188F4AB2F0024E6
S1130820469537952795011CA395D2F3002069F0CE
S1130830220F331F441FB395DAF30DD013C0613078
S11308407105A0E88A07B94630F49B01AC0166271C
S1130850772788279078309621F02083318342834C
S1130860538308955058BB27AA270ED035CF26DFCF
S113087030F02BDF20F031F49F3F11F41EF4F6CE5C
S11308800EF4E095E7FBECCEE92FE1DD80F3BA1737
S1130890620773078407950718F071F49EF5F9CD84
S11308A00EF4E0950B2EBA2FA02D0B01B901900187
S11308B00C01CA01A0011124FF27591B99F0593FCB
S11308C050F4503E68F11A16F040A22F232F342F13
S11308D04427585FF3CF469537952795A795F04061
S11308E05395C9F77EF41F16BA0B620B730B840B76
S11308F0BAF09150A1F0FF0FBB1F661F771F881F2E
S1130900C2F70EC0BA0F621F731F841F48F4879585
S113091077956795B795F7959E3F08F0B3CF939574
S1130920880F08F09927EE0F9795879508950CD0B6
S1130930D3CECBDE40F0C2DE30F021F45F3F19F0BD
S11309408FCE5111A7CD92CE82DD98F39923C9F3AE
S11309505523B1F3951B550BBB27AA2762177307C1
S1130960840738F09F5F5F4F220F331F441FAA1F75
S1130970A9F333D00E2E3AF0E0E830D09150504035
S1130980E695001CCAF729D0FE2F27D0660F771FE3
S1130990881FBB1F261737074807AB07B0E809F0C5
S11309A0BB0B802DBF01FF2793585F4F2AF09E3F5A
S11309B0510568F055CE6ECD5F3FECF3983EDCF305
S11309C0869577956795B795F7959F5FC9F7880FD3
S11309D0911D9695879597F90895E1E0660F771F25
S11309E0881FBB1F621773078407BA0720F0621BB6
S11309F0730B840BBA0BEE1F88F7E09508959F3FA5
S1130A0031F0915020F4879577956795B795880FC5
S1130A10911D9695879597F90895BB274A3031F42F
S1130A20992322F4BDE2909581959F4F01C0BB2785
S1130A30FB015527AA27880F991FAA1FA41710F096
S1130A40A41B83955051B9F7A05DAA3308F0A95DA2
S1130A50A193009779F7B111B1931192CB0100C022
S1130A60DC01FC01672F71917723E1F7329704C011
S1130A707C916D9370836291AE17BF07C8F308959C
S1070A80F894FFCF14
S1130A8444697374616E63653A00636D004465760A
S10D0A946963652773204F6E0000AC
S9030000FC
