S01200006F707469736B617673742E73726563BA
S113000045C0000060C000005EC000005CC000008D
S11300105AC0000058C0000056C0000054C0000080
S113002052C0000050C000004EC000004CC0000090
S11300304AC0000048C0000046C0000044C00000A0
S113004042C0000040C000003EC000003CC00000B0
S11300503AC0000038C0000036C0000034C00000C0
S1130060F0C0000030C000002EC000002CC0000012
S11300702AC0000028C0000026C0000024C00000E0
S113008022C0000020C000001EC0000011241FBEBA
S1130090CFEFD0E4DEBFCDBF11E0A0E0B1E0EEE1F0
S11300A0F3E000E00BBF02C007900D92A631B10748
S11300B0D9F721E0A6E1B1E001C01D92AF31B2074A
S11300C0E1F7A8D02AC19CCF92B1282F207F9F703E
S11300D0922B92B91398129A35E03A95F1F70000F1
S11300E01298EFE1F3E03197F1F700C0000022B17C
S11300F0F0E18F9FC0011124922F9F70892B82B948
S1130100129A35E03A95F1F7000012988FE39FE1D7
S11301100197F1F700C00000089592B1282F207FC5
S11301209F70922B92B9139A129A35E03A95F1F78F
S113013000001298EFE1F3E03197F1F700C00000FE
S113014022B1F0E18F9FC0011124922F9F70892B5F
S113015082B9129A35E03A95F1F7000012988FE3CC
S11301609FE10197F1F700C0000008958FEF81B976
S11301702FEF89EF90E0215080409040E1F700C0DC
S1130180000083E3A1DF82E39FDF88E29DDF8CE050
S11301909BDF86E099DF81E097DF8FE39FE10197A2
S11301A0F1F700C0000080E88FCF0895CF93DF936C
S11301B0EC018881882329F02196AFDF8991811190
S11301C0FCCFDF91CF91089581E07EDF8FE39FE143
S11301D00197F1F700C0000080E876CF089580E22F
S11301E080937C008BEA80937A000895CF93DF9309
S11301F0EC01EADF80E091E0D9DF84E165DF4AE0E9
S113020066E171E0CE0156D086E191E0CFDFDF9167
S1130210CF910895ABDFD8DF8AE091E0C7DF2FEFFD
S113022087EA91E6215080409040E1F700C0000049
S1130230D6DFCADF7894EAE7F0E0808180658083C6
S1130240FFCF1F920F920FB60F9211240BB60F928D
S11302502F933F934F935F936F937F938F939F93CA
S1130260AF93BF93EF93FF938091790080931E0126
S113027080911E0190E0BADF2FEF89E698E12150CA
S113028080409040E1F700C0000010927A00FF9196
S1130290EF91BF91AF919F918F917F916F915F91FA
S11302A04F913F912F910F900BBE0F900FBE0F9067
S11302B01F901895BB274A3031F4992322F4BDE2EC
S11302C0909581959F4F01C0BB27FB015527AA2715
S11302D0880F991FAA1FA41710F0A41B83955051CF
S11302E0B9F7A05DAA3308F0A95DA193009779F747
S11302F0B111B1931192CB0100C0DC01FC01672F55
S113030071917723E1F7329704C07C916D937083E8
S11103106291AE17BF07C8F30895F894FFCFAB
S113031E44697374616E63653A0044657669636516
S109032E2773204F6E004E
S9030000FC
