S013000053656E736F725F6D61696E2E7372656393
S113000096C00000B1C00000AFC00000ADC0000049
S1130010ABC00000A9C00000A7C00000A5C000003C
S1130020A3C00000A1C000009FC000009DC000004C
S11300309BC0000099C0000097C0000044C10000AC
S113004093C0000091C000008FC000008DC000006C
S11300508BC0000089C0000087C0000085C000007C
S113006083C0000081C000008DC000007DC000007E
S11300707BC0000079C0000077C0000075C000009C
S113008073C0000071C000006FC00000E2002B01CB
S11300902B012B012B012B012B012B01EA002B013E
S11300A02B012B012B012B012B012B01F3002B0125
S11300B02B012B012B012B012B012B01FB002B010D
S11300C02B012B012B012B012B012B01FD002B01FB
S11300D02B012B012B012B012B012B012B012B01BC
S11300E02B012B012B012B012B012B012B012B01AC
S11300F02B012B012B012B012B012B011C012B01AB
S11301002B012B012B012B012B012B012B012B018B
S11301102B012B012B012B012B012B0126012B0180
S11301202B012B012B012B012B012B01200111246D
S11301301FBECFEFD0E4DEBFCDBF11E0A0E0B1E041
S1130140E2E4F5E000E00BBF02C007900D92A2309C
S1130150B107D9F721E0A2E0B1E001C01D92AA30B5
S1130160B207E1F78BD0EBC14BCF85EA8093BC009B
S113017010920101089585E98093BC0081E0809389
S1130180010108951F920F920FB60F9211240BB61E
S11301900F922F933F934F935F936F937F938F931C
S11301A09F93AF93BF93EF93FF938091B900887FA0
S11301B090E0FC013897E135F10508F04CC0EA5BAA
S11301C0FF4FB7C1809104018093BB0085E8809301
S11301D0BC0041C0809104018F5F8093BB0085E81F
S11301E08093BC0038C0809105018093BB0085E8F2
S11301F08093BC0030C0BFDF2EC0809100018823F3
S1130200C9F08091020190910301892B11F4B3DFAD
S113021022C0809107018093BB0085E88093BC00D5
S113022080910201909103010197909303018093BF
S1130230020111C09ADF0FC085E88093BC000BC097
S11302408091BB008093060196DF05C08091BB00BE
S11302508093060190DFFF91EF91BF91AF919F9141
S11302608F917F916F915F914F913F912F910F905B
S11302700BBE0F900FBE0F901F901895CF93DF9376
S113028000D000D0CDB7DEB781E084B915B880E0E6
S113029031D004E810E0F801E080F18054D0B701D7
S11302A0681B790B6F5F7F4F882777FD8095982FA8
S11302B051D02DEB37E346E855E3D8D069837A83F0
S11302C08B839C83E8CF1F920F920FB60F92112459
S11302D08F939F93809108019091090101969093C7
S11302E00901809308019F918F910F900FBE0F9089
S11302F01F901895E0E8F0E090819083811106C08A
S1130300E1E8F0E08081816080830FC0883031F4BF
S1130310E1E8F0E080818260808307C0803429F4C2
S1130320E1E8F0E080818360808310928500109280
S11303308400EFE6F0E080818160808310920901FF
S1130340109208010895809108019091090108957F
S1130350E89409C097FB3EF490958095709561955B
S11303607F4F8F4F9F4F9923A9F0F92F96E9BB2711
S11303709395F695879577956795B795F111F8CF8D
S1130380FAF4BB0F11F460FF1BC06F5F7F4F8F4FF8
S11303909F4F16C0882311F096E911C0772321F0EE
S11303A09EE8872F762F05C0662371F096E8862F86
S11303B070E060E02AF09A95660F771F881FDAF7DD
S11303C0880F9695879597F9089597F99F6780E820
S11303D070E060E008959FEF80EC089500240A9493
S11303E01616170618060906089500240A9412160C
S11303F01306140605060895092E0394000C11F43F
S1130400882352F0BB0F40F4BF2B11F460FF04C0EB
S11304106F5F7F4F8F4F9F4F089557FD9058440F44
S1130420551F59F05F3F71F04795880F97FB991F4F
S113043061F09F3F79F0879508951216130614060C
S1130440551FF2CF4695F1DF08C016161706180699
S1130450991FF1CF86957105610508940895E89474
S1130460BB2766277727CB0197F908950BD0C4CF14
S1130470B5DF28F0BADF18F0952309F0A6CFABCF8B
S11304801124EECFCADFA0F3959FD1F3950F50E06E
S1130490551F629FF001729FBB27F00DB11D639F32
S11304A0AA27F00DB11DAA1F649F6627B00DA11DD8
S11304B0661F829F2227B00DA11D621F739FB00D7E
S11304C0A11D621F839FA00D611D221F749F3327EE
S11304D0A00D611D231F849F600D211D822F762F87
S11304E06A2F11249F5750408AF0E1F088234AF084
S11304F0EE0FFF1FBB1F661F771F881F91505040D0
S1130500A9F79E3F510570F060CFAACF5F3FECF38F
S1130510983EDCF3869577956795B795F795E795BB
S11305209F5FC1F7FE2B880F911D9695879597F9CC
S11305300895EE0FFF1F0590F491E02D0994F894AF
S1050540FFCFE7
S10505420101B1
S9030000FC
