S013000053656E736F725F6D61696E2E7372656393
S113000096C00000B1C00000AFC00000ADC0000049
S1130010ABC00000A9C00000A7C00000A5C000003C
S1130020A3C00000A1C000009FC000009DC000004C
S11300309BC0000099C0000097C000005DC1000093
S113004093C0000091C000008FC000008DC000006C
S11300508BC0000089C0000087C0000085C000007C
S113006083C0000081C000008DC000007DC000007E
S11300707BC0000079C0000077C0000075C000009C
S113008073C0000071C000006FC00000E2002B01CB
S11300902B012B012B012B012B012B01EA002B013E
S11300A02B012B012B012B012B012B01F3002B0125
S11300B02B012B012B012B012B012B01FB002B010D
S11300C02B012B012B012B012B012B01FD002B01FB
S11300D02B012B012B012B012B012B012B012B01BC
S11300E02B012B012B012B012B012B012B012B01AC
S11300F02B012B012B012B012B012B011C012B01AB
S11301002B012B012B012B012B012B012B012B018B
S11301102B012B012B012B012B012B0126012B0180
S11301202B012B012B012B012B012B01200111246D
S11301301FBECFEFD0E4DEBFCDBF11E0A0E0B1E041
S1130140E8E0FAE000E00BBF02C007900D92A23095
S1130150B107D9F721E0A2E0B1E001C01D92A431BA
S1130160B207E1F78BD04EC44BCF85EA8093BC0035
S113017010920101089585E98093BC0081E0809389
S1130180010108951F920F920FB60F9211240BB61E
S11301900F922F933F934F935F936F937F938F931C
S11301A09F93AF93BF93EF93FF938091B900887FA0
S11301B090E0FC013897E135F10508F04CC0EA5BAA
S11301C0FF4FE3C3809104018093BB0085E88093D3
S11301D0BC0041C0809104018F5F8093BB0085E81F
S11301E08093BC0038C0809105018093BB0085E8F2
S11301F08093BC0030C0BFDF2EC0809100018823F3
S1130200C9F08091020190910301892B11F4B3DFAD
S113021022C0809107018093BB0085E88093BC00D5
S113022080910201909103010197909303018093BF
S1130230020111C09ADF0FC085E88093BC000BC097
S11302408091BB008093060196DF05C08091BB00BE
S11302508093060190DFFF91EF91BF91AF919F9141
S11302608F917F916F915F914F913F912F910F905B
S11302700BBE0F900FBE0F901F901895CF93DF9376
S1130280CDB7DEB728970FB6F894DEBF0FBECDBF4B
S113029081E084B915B860E070E080E89FE36AD03B
S11302A07894CED0E2D06B017C012FE38DE093E013
S11302B0215080409040E1F700C00000D6D0A70153
S11302C096017CD169837A838B839C8360E070E0A0
S11302D080E89FE3CAD06B017C0183EC99E001972D
S11302E0F1F700C00000C1D0A701960167D16D836A
S11302F07E838F839887D6CF1F920F920FB60F926B
S113030011242F933F934F935F936F937F938F9316
S11303109F93AF9320910C0130910D0140910E01F8
S113032050910F016091100170911101809112019F
S113033090911301A1E051D320930C0130930D014E
S113034040930E0150930F016093100170931101BB
S11303508093120190931301AF919F918F917F919C
S11303606F915F914F913F912F910F900FBE0F901E
S11303701F901895CF92DF92EF92FF926B017C0150
S1130380E0E8F0E08081808320E030E040E85FE353
S1130390C701B60178D1811106C0E1E8F0E080819F
S11303A0816080831EC020E030E040E051E4C7015A
S11303B0B60169D1811106C0E1E8F0E08081826074
S11303C080831EC020E030E040E852E4C701B6015B
S11303D05AD1811106C0E1E8F0E080818360808316
S11303E01DC020E030E040E853E4C701B6014BD122
S11303F0811106C0E1E8F0E08081846080830EC052
S113040020E030E040E854E4C701B6013CD181115A
S113041005C0E1E8F0E0808185608083C092080136
S1130420D0920901E0920A01F0920B01EFE6F0E0AC
S1130430808181608083FF90EF90DF90CF9008955A
S113044010920C0110920D0110920E0110920F01E6
S113045010921001109211011092120110921301C6
S1130460109285001092840008952F923F924F922B
S11304705F926F927F928F929F92AF92BF92CF9230
S1130480DF92EF92FF920F931F93CF93DF9300D0ED
S113049000D000D0CDB7DEB76090840070908500A6
S11304A020900C0130900D0180900E0190900F016E
S11304B0809110018E83E0911101ED83409012012F
S11304C050901301609108017091090180910A0113
S11304D090910B0120E034E244E75BE4D8D06983D7
S11304E07A838B839C83222D332D482D592D6E8145
S11304F07D81842D952D07E04ED2A22CB32CC82CDF
S1130500D92CEE80FD80042D152D5ED201E043D25E
S1130510042D6FD2A22EB32EC42ED52EE62EF72E86
S1130520E82F192F04E037D20E2F63D2822E932E98
S1130530442E552EB62FA72FF82FE92F04E02BD2E7
S1130540A22EB32EC42ED52EE62EF72E082F192F49
S1130550282D392D442D552D6B2F7A2F8F2F9E2F1B
S113056033D21301A22CB32CC12CD12CE12CF12CAD
S113057000E010E029D2A1E030D2F1D09B01AC011F
S113058069817A818B819C819DD126960FB6F894DE
S1130590DEBF0FBECDBFDF91CF911F910F91FF90B2
S11305A0EF90DF90CF90BF90AF909F908F907F900F
S11305B06F905F904F903F902F9008955058BB27B5
S11305C0AA270ED045C136D130F03BD120F031F40A
S11305D09F3F11F41EF42BC10EF4E095E7FB21C1FB
S11305E0E92F47D180F3BA17620773078407950789
S11305F018F071F49EF55FC10EF4E0950B2EBA2F3E
S1130600A02D0B01B90190010C01CA01A001112414
S1130610FF27591B99F0593F50F4503E68F11A16C0
S1130620F040A22F232F342F4427585FF3CF469551
S113063037952795A795F0405395C9F77EF41F1673
S1130640BA0B620B730B840BBAF09150A1F0FF0F3D
S1130650BB1F661F771F881FC2F70EC0BA0F621F29
S1130660731F841F48F4879577956795B795F79519
S11306709E3F08F0B3CF9395880F08F09927EE0FAB
S1130680979587950895A9D008F481E008950CD032
S1130690DFC0D7D040F0CED030F021F45F3F19F066
S11306A0C0C0511109C1C3C0E4D098F39923C9F360
S11306B05523B1F3951B550BBB27AA276217730764
S11306C0840738F09F5F5F4F220F331F441FAA1F18
S11306D0A9F333D00E2E3AF0E0E830D091505040D8
S11306E0E695001CCAF729D0FE2F27D0660F771F86
S11306F0881FBB1F261737074807AB07B0E809F068
S1130700BB0B802DBF01FF2793585F4F2AF09E3FFC
S1130710510568F086C0D0C05F3FECF3983EDCF32F
S1130720869577956795B795F7959F5FC9F7880F75
S1130730911D9695879597F90895E1E0660F771FC7
S1130740881FBB1F621773078407BA0720F0621B58
S1130750730B840BBA0BEE1F88F7E0950895E894A9
S1130760F92F96EBFF2381F0121613061406440B9F
S11307709395F69587957795679557954040FF2310
S1130780B9F71BC099270895882351F49850D2F7DC
S1130790872B762F652F542F432F322F20E0B1F370
S11307A0121613061406440B88233AF09A95440F44
S11307B0551F661F771F881FCAF755234AF4440F35
S11307C0551F11F460FF04C06F5F7F4F8F4F9F4F21
S11307D0880F9695879597F90895990F0008550FF6
S11307E0AA0BE0E8FEEF16161706E807F907C0F0B3
S11307F012161306E407F50798F0621B730B840BBB
S1130800950B39F40A2661F0232B242B252B21F494
S113081008950A2609F4A140A6958FEF811D811D34
S1130820089597F99F6780E870E060E008959FEF6E
S113083080EC089500240A94161617061806090673
S1130840089500240A941216130614060506089542
S1130850092E0394000C11F4882352F0BB0F40F4CA
S1130860BF2B11F460FF04C06F5F7F4F8F4F9F4F0A
S1130870089557FD9058440F551F59F05F3F71F08C
S11308804795880F97FB991F61F09F3F79F08795F3
S11308900895121613061406551FF2CF4695F1DF7C
S11308A008C0161617061806991FF1CF869571050C
S11308B0610508940895E894BB2766277727CB0140
S11308C097F908950BD0C4CFB5DF28F0BADF18F03C
S11308D0952309F0A6CFABCF1124EECFCADFA0F346
S11308E0959FD1F3950F50E0551F629FF001729FC1
S11308F0BB27F00DB11D639FAA27F00DB11DAA1FE0
S1130900649F6627B00DA11D661F829F2227B00D2C
S1130910A11D621F739FB00DA11D621F839FA00DB7
S1130920611D221F749F3327A00D611D231F849F07
S1130930600D211D822F762F6A2F11249F5750405E
S11309408AF0E1F088234AF0EE0FFF1FBB1F661FF9
S1130950771F881F91505040A9F79E3F510570F0B2
S113096060CFAACF5F3FECF3983EDCF38695779592
S11309706795B795F795E7959F5FC1F7FE2B880FAD
S1130980911D9695879597F90895EE0FFF1F059091
S1130990F491E02D09940F93083090F0982F872F4D
S11309A0762F652F542F432F322F22270850F4CF50
S11309B0220F331F441F551F661F771F881F991F5F
S11309C00A95B2F70F9108952A0D3B1D4C1D5D1D2C
S11309D06E1D7F1D801F911F08950024A7FD0094A4
S11309E02A0F301D401D501D601D701D801D901D5F
S11309F008952A193B094C095D096E097F09800B8A
S10B0A00910B0895F894FFCF57
S1050A080101E6
S9030000FC
