S013000053656E736F725F6D61696E2E7372656393
S113000096C00000B2C00000B0C00000AEC0000046
S1130010ACC00000AAC00000A8C00000A6C0000038
S1130020A4C00000A2C00000A0C000009EC0000048
S11300309CC000009AC0000098C000002CC40000BE
S113004094C0000092C0000090C000008EC0000068
S11300508CC000008AC0000088C0000086C0000078
S113006084C0000082C00000BBC000007EC000004D
S11300707CC000007AC0000078C0000076C0000098
S113008074C0000072C0000070C00000100159016B
S113009059015901590159015901590118015901CD
S11300A059015901590159015901590121015901B4
S11300B0590159015901590159015901290159019C
S11300C05901590159015901590159012B0159018A
S11300D0590159015901590159015901590159014C
S11300E0590159015901590159015901590159013C
S11300F05901590159015901590159014A0159013B
S1130100590159015901590159015901590159011B
S11301105901590159015901590159015401590110
S11301205901590159015901590159014E0111242B
S11301301FBECFEFD0E4DEBFCDBF11E0A0E0B1E041
S1130140EEE6F2E100E00BBF02C007900D92A8308A
S1130150B107D9F721E0A8E0B1E001C01D92A033B6
S1130160B207E1F778D30C9435094ACFCF93C82F5F
S113017085E291E053D7FC0110821182128213822E
S113018014821582168217821086118612861386AF
S11301901486158616861786108A118A128A138A7F
S11301A0148A158A168A178ADC01AC5DBE4FCC937B
S11301B0CF9108951092B90082E98093B80085E048
S11301C08093BC00089585EA8093BC0010920701D7
S11301D0089585E98093BC0081E080930701089528
S11301E01F920F920FB60F9211240BB60F922F93FA
S11301F03F934F935F936F937F938F939F93AF93AB
S1130200BF93EF93FF938091B900887F90E0FC0146
S11302103897E135F10508F04CC0EA5BFF4FC1C6E1
S113022080911C018093BB0085E88093BC0041C091
S113023080911C018F5F8093BB0085E88093BC0094
S113024038C080911D018093BB0085E88093BC0079
S113025030C0BFDF2EC0809106018823C9F0809191
S11302600A0190910B01892B11F4B3DF22C0809114
S11302701F018093BB0085E88093BC0080910A0134
S113028090910B01019790930B0180930A0111C087
S11302909ADF0FC085E88093BC000BC08091BB003F
S11302A080931E0196DF05C08091BB0080931E01E0
S11302B090DFFF91EF91BF91AF919F918F917F91CB
S11302C06F915F914F913F912F910F900BBE0F90C3
S11302D00FBE0F901F901895909107019923E1F399
S11302E030930B0120930A0160931D0180931C013C
S11302F040931F0181E08093060165CF089590919A
S113030007019923E1F35093090140930801609395
S11303101D0180931C011092060155DF8091070195
S11303208823E1F380911E0108950097B9F0289A7B
S11303302FEF39E648E1215030404040E1F700C05A
S1130340000015B82FEF39E648E121503040404015
S1130350E1F700C000000197009749F7089500975E
S1130360B9F0299A2FEF39E648E121503040404056
S1130370E1F700C0000015B82FEF39E648E121503D
S113038030404040E1F700C000000197009749F772
S113039008950097B9F02A9A2FEF39E648E12150E1
S11303A030404040E1F700C0000015B82FEF39E6B7
S11303B048E1215030404040E1F700C0000001977F
S11303C0009749F7089521E030E040E062E082EDD3
S11303D083CF089521E030E047E560E282E37CCFFB
S11303E0089521E030E04FE060E286ED75CF089596
S11303F0CF92DF92EF92FF920F931F93CF93DF93ED
S1130400EC0141E050E068E286ED79DFD82E89EF17
S113041090E00197F1F700C0000041E050E069E28C
S113042086ED6DDFC82E41E050E06AE286ED67DFBD
S1130430F82E89EF90E00197F1F700C0000041E049
S113044050E06BE286ED5BDFE82E41E050E06CE2C9
S113045086ED55DF182F89EF90E00197F1F700C082
S1130460000041E050E06DE286ED49DF082F6C2D7D
S113047070E0762F66276D0D711D882777FD8095B6
S1130480982F3ED429E23CE54FE05CE327D56C8706
S11304907D878E879F876E2D70E0762F66276F0D80
S11304A0711D882777FD8095982F2AD429E23CE591
S11304B04FE05CE313D5688B798B8A8B9B8B602F21
S11304C070E0762F6627610F711D882777FD809570
S11304D0982F16D429E23CE54FE05CE3FFD46C8B03
S11304E07D8B8E8B9F8BDF91CF911F910F91FF900E
S11304F0EF90DF90CF9008954F925F926F927F922A
S11305008F929F92AF92BF92CF92DF92EF92FF921F
S11305100F931F93CF93DF9381E028DEEC0104E671
S113052010E0C12CD12C7601460157012601370178
S1130530CE015EDF2C853D854E855F85C301B2010A
S11305400DD32B013C01288939894A895B89C5016E
S1130550B40104D34B015C012C893D894E895F8928
S1130560C701B601FBD26B017C01015011090115D1
S11305701105F1F620E030E048EC52E4C301B20189
S113058055D3609318017093190180931A019093C5
S11305901B0120E030E048EC52E4C501B40146D32D
S11305A060931401709315018093160190931701C1
S11305B020E030E048EC52E4C701B60137D3609341
S11305C01001709311018093120190931301CE01D5
S11305D0BDD583EC99E00197F1F700C00000DF91ED
S11305E0CF911F910F91FF90EF90DF90CF90BF902C
S11305F0AF909F908F907F906F905F904F900895F1
S1130600E2DE83EC99E00197F1F700C00000E2DE3E
S113061083EC99E00197F1F700C00000E2DE83EC7F
S113062099E00197F1F700C0000066CF089581E0DA
S113063084B915B8BFDD29D17894E2DF29D181E0EE
S113064090E073DE81E090E08ADE81E090E0A1DE5C
S113065060E070E080E091E45CC10895CF92DF92A5
S1130660EF92FF920F931F93CF93DF93EC0141E03E
S113067050E068E286ED43DED82E89EF90E00197E2
S1130680F1F700C0000041E050E069E286ED37DE9A
S1130690C82E41E050E06AE286ED31DEF82E89EFA3
S11306A090E00197F1F700C0000041E050E06BE2F8
S11306B086ED25DEE82E41E050E06CE286ED1FDE9B
S11306C0182F89EF90E00197F1F700C0000041E096
S11306D050E06DE286ED13DE082F6C2D70E0762F6E
S11306E066276D0D711D882777FD8095982F08D397
S11306F029E23CE54FE05CE3F1D32091180130910D
S1130700190140911A0150911B0127D26C877D87F2
S11307108E879F876E2D70E0762F66276F0D711D73
S1130720882777FD8095982FEBD229E23CE54FE0AE
S11307305CE3D4D32091140130911501409116014A
S1130740509117010AD2688B798B8A8B9B8B602F0F
S113075070E0762F6627610F711D882777FD8095DD
S1130760982FCED229E23CE54FE05CE3B7D3209149
S11307701001309111014091120150911301EDD1FA
S11307806C8B7D8B8E8B9F8BDF91CF911F910F9103
S1130790FF90EF90DF90CF900895CF92DF92EF9289
S11307A0FF92CF93DF93EC0159DF2ED16B017C01D3
S11307B060930C0170930D0180930E0190930F01CF
S11307C02C853D854E855F8589D320E030E040E46B
S11307D050E484D39B01AC01688D798D8A8D9B8D07
S11307E0BDD1688F798F8A8F9B8F288939894A89EF
S11307F05B89C701B60172D320E030E040E450E4E5
S11308006DD39B01AC016C8D7D8D8E8D9F8DA6D19A
S11308106C8F7D8F8E8F9F8F2C893D894E895F8948
S1130820C701B6015BD320E030E040E450E456D386
S11308309B01AC0168A179A18AA19BA18FD168A376
S113084079A38AA39BA3CBD0DF91CF91FF90EF90A4
S1130850DF90CF900895CF93DF9300D000D0CDB731
S1130860DEB781E083DC8C0119821A821B821C8230
S1130870DEDEC80192DFF801408D518D628D738DEB
S113088049835A836B837C83F4CF80E48CBD0895C1
S113089087E484B908951F920F920FB60F92112422
S11308A02F933F934F935F936F937F938F939F9374
S11308B0AF9320912401309125014091260150915C
S11308C02701609128017091290180912A0190915A
S11308D02B01A1E08ED32093240130932501409372
S11308E02601509327016093280170932901809376
S11308F02A0190932B01AF919F918F917F916F91DA
S11309005F914F913F912F910F900FBE0F901F90C9
S11309101895CF92DF92EF92FF926B017C01E0E891
S1130920F0E08081808320E030E040E85FE3C701AD
S1130930B60178D1811106C0E1E8F0E080818160E0
S113094080831EC020E030E040E051E4C701B601DE
S113095069D1811106C0E1E8F0E080818260808382
S11309601EC020E030E040E852E4C701B6015AD18D
S1130970811106C0E1E8F0E08081836080831DC0BE
S113098020E030E040E853E4C701B6014BD18111C7
S113099006C0E1E8F0E08081846080830EC020E03E
S11309A030E040E854E4C701B6013CD1811105C0F0
S11309B0E1E8F0E0808185608083C0922001D092DC
S11309C02101E0922201F0922301EFE6F0E0808120
S11309D081608083FF90EF90DF90CF900895109214
S11309E024011092250110922601109227011092E1
S11309F028011092290110922A0110922B011092C1
S1130A0085001092840008952F923F924F925F9236
S1130A106F927F928F929F92AF92BF92CF92DF920A
S1130A20EF92FF920F931F93CF93DF9300D000D0E8
S1130A3000D0CDB7DEB76090840070908500209020
S1130A402401309025018090260190902701809107
S1130A5028018E83E0912901ED8340902A01509072
S1130A602B016091200170912101809122019091CC
S1130A70230120E034E244E75BE4D8D069837A833D
S1130A808B839C83222D332D482D592D6E817D819E
S1130A90842D952D07E08BD2A22CB32CC82CD92CF5
S1130AA0EE80FD80042D152D9BD201E080D2042D13
S1130AB0ACD2A22EB32EC42ED52EE62EF72EE82FBE
S1130AC0192F04E074D20E2FA0D2822E932E442E1E
S1130AD0552EB62FA72FF82FE92F04E068D2A22EA7
S1130AE0B32EC42ED52EE62EF72E082F192F282D1F
S1130AF0392D442D552D6B2F7A2F8F2F9E2F70D289
S1130B001301A22CB32CC12CD12CE12CF12C00E02C
S1130B1010E066D2A1E06DD22ED19B01AC016981B7
S1130B207A818B819C81DAD126960FB6F894DEBF48
S1130B300FBECDBFDF91CF911F910F91FF90EF902A
S1130B40DF90CF90BF90AF909F908F907F906F90E9
S1130B505F904F903F902F9008955058BB27AA273D
S1130B600ED082C173D130F078D120F031F49F3FA0
S1130B7011F41EF468C10EF4E095E7FB5EC1E92FA1
S1130B8084D180F3BA17620773078407950718F0B6
S1130B9071F49EF59CC10EF4E0950B2EBA2FA02D96
S1130BA00B01B90190010C01CA01A0011124FF2716
S1130BB0591B99F0593F50F4503E68F11A16F04011
S1130BC0A22F232F342F4427585FF3CF4695379510
S1130BD02795A795F0405395C9F77EF41F16BA0BD5
S1130BE0620B730B840BBAF09150A1F0FF0FBB1F83
S1130BF0661F771F881FC2F70EC0BA0F621F731FCC
S1130C00841F48F4879577956795B795F7959E3F28
S1130C1008F0B3CF9395880F08F09927EE0F9795B6
S1130C2087950895E6D008F481E008950CD01CC19E
S1130C3014D140F00BD130F021F45F3F19F0FDC026
S1130C40511146C100C121D198F39923C9F3552309
S1130C50B1F3951B550BBB27AA27621773078407AB
S1130C6038F09F5F5F4F220F331F441FAA1FA9F361
S1130C7033D00E2E3AF0E0E830D091505040E69553
S1130C80001CCAF729D0FE2F27D0660F771F881FB4
S1130C90BB1F261737074807AB07B0E809F0BB0BA3
S1130CA0802DBF01FF2793585F4F2AF09E3F5105C7
S1130CB068F0C3C00DC15F3FECF3983EDCF386954A
S1130CC077956795B795F7959F5FC9F7880F911D3D
S1130CD09695879597F90895E1E0660F771F881F29
S1130CE0BB1F621773078407BA0720F0621B730BDC
S1130CF0840BBA0BEE1F88F7E0950895E89409C0B9
S1130D0097FB3EF490958095709561957F4F8F4F3A
S1130D109F4F9923A9F0F92F96E9BB279395F69550
S1130D20879577956795B795F111F8CFFAF4BB0FCE
S1130D3011F460FF1BC06F5F7F4F8F4F9F4F16C032
S1130D40882311F096E911C0772321F09EE8872FBC
S1130D50762F05C0662371F096E8862F70E060E078
S1130D602AF09A95660F771F881FDAF7880F9695F1
S1130D70879597F90895E894F92F96EBFF2381F06E
S1130D80121613061406440B9395F69587957795DA
S1130D90679557954040FF23B9F71BC099270895DD
S1130DA0882351F49850D2F7872B762F652F542F30
S1130DB0432F322F20E0B1F3121613061406440B0E
S1130DC088233AF09A95440F551F661F771F881F92
S1130DD0CAF755234AF4440F551F11F460FF04C0A9
S1130DE06F5F7F4F8F4F9F4F880F9695879597F929
S1130DF00895990F0008550FAA0BE0E8FEEF1616A8
S1130E001706E807F907C0F012161306E407F507FA
S1130E1098F0621B730B840B950B39F40A2661F06E
S1130E20232B242B252B21F408950A2609F4A14011
S1130E30A6958FEF811D811D089597F99F6780E81E
S1130E4070E060E008959FEF80EC089500240A9418
S1130E501616170618060906089500240A94121691
S1130E601306140605060895092E0394000C11F4C4
S1130E70882352F0BB0F40F4BF2B11F460FF04C071
S1130E806F5F7F4F8F4F9F4F089557FD9058440FCA
S1130E90551F59F05F3F71F04795880F97FB991FD5
S1130EA061F09F3F79F08795089512161306140692
S1130EB0551FF2CF4695F1DF08C01616170618061F
S1130EC0991FF1CF86957105610508940895E894FA
S1130ED0BB2766277727CB0197F908950BD0C4CF9A
S1130EE0B5DF28F0BADF18F0952309F0A6CFABCF11
S1130EF01124EECFCADFA0F3959FD1F3950F50E0F4
S1130F00551F629FF001729FBB27F00DB11D639FB7
S1130F10AA27F00DB11DAA1F649F6627B00DA11D5D
S1130F20661F829F2227B00DA11D621F739FB00D03
S1130F30A11D621F839FA00D611D221F749F332773
S1130F40A00D611D231F849F600D211D822F762F0C
S1130F506A2F11249F5750408AF0E1F088234AF009
S1130F60EE0FFF1FBB1F661F771F881F9150504055
S1130F70A9F79E3F510570F060CFAACF5F3FECF315
S1130F80983EDCF3869577956795B795F795E79541
S1130F909F5FC1F7FE2B880F911D9695879597F952
S1130FA00895EE0FFF1F0590F491E02D09940F931F
S1130FB0083090F0982F872F762F652F542F432FCA
S1130FC0322F22270850F4CF220F331F441F551FFE
S1130FD0661F771F881F991F0A95B2F70F9108950E
S1130FE02A0D3B1D4C1D5D1D6E1D7F1D801F911F15
S1130FF008950024A7FD00942A0F301D401D501DA4
S1131000601D701D801D901D08952A193B094C090F
S11310105D096E097F09800B910B0895CF93DF93CF
S11310208230910510F482E090E0E0912E01F0917D
S11310302F0120E030E0A0E0B0E0309739F14081AA
S1131040518148175907B8F04817590771F482813C
S11310509381109729F013969C938E9312972CC02A
S113106090932F0180932E0127C02115310531F073
S11310704217530718F0A901DB0101C0EF019A01DF
S1131080BD01DF010280F381E02DD7CF21153105A9
S1131090F9F0281B390B2430310580F48A819B81B7
S11310A06115710521F0FB019383828304C0909341
S11310B02F0180932E01FE01329644C0FE01E20FFF
S11310C0F31F8193919322503109398328833AC0C5
S11310D020912C0130912D01232B41F42091020108
S11310E03091030130932D0120932C0120910001B4
S11310F0309101012115310541F42DB73EB74091DE
S1131100040150910501241B350BE0912C01F09151
S11311102D01E217F307A0F42E1B3F0B2817390704
S113112078F0AC014E5F5F4F2417350748F04E0F3F
S11311305F1F50932D0140932C018193919302C022
S1131140E0E0F0E0CF01DF91CF910895CF93DF93FA
S1131150009709F487C0FC01329713821282C09170
S11311602E01D0912F01209781F420813181280F05
S1131170391F80912C0190912D018217930779F5E5
S1131180F0932D01E0932C016DC0DE0120E030E0EE
S1131190AE17BF0750F412964D915C9113979D01C1
S11311A04115510509F1DA01F3CFB383A2834081DC
S11311B05181840F951F8A179B0771F48D919C911F
S11311C01197840F951F02969183808312968D91B7
S11311D09C911397938382832115310529F4F0930D
S11311E02F01E0932E013EC0D9011396FC93EE9398
S11311F012974D915D91A40FB51FEA17FB0779F47F
S113120080819181840F951F0296D90111969C9338
S11312108E938281938113969C938E931297E0E030
S1131220F0E08A819B81009719F0FE01EC01F9CF6F
S1131230CE01029628813981820F931F20912C01BF
S113124030912D012817390769F4309729F4109249
S11312502F0110922E0102C013821282D0932D010D
S1111260C0932C01DF91CF910895F894FFCF35
S10B126E000030012000010121
S9030000FC
