S013000053656E736F725F6D61696E2E7372656393
S1130000DEC00000FAC00000F8C00000F6C0000026
S1130010F4C00000F2C00000F0C00000EEC0000018
S1130020ECC00000EAC00000E8C00000E6C0000028
S1130030E4C00000E2C00000E0C000000C94CE0860
S1130040DCC00000DAC00000D8C00000F3C7000024
S1130050D4C00000D2C00000D0C00000CEC0000058
S11300600C944E08CAC00000DFC00000C6C00000E7
S1130070C4C00000C2C00000C0C00000BEC0000078
S1130080BCC00000BAC00000B8C0000035017E0149
S11300907E017E017E017E017E017E013D017E01A5
S11300A07E017E017E017E017E017E0146017E018C
S11300B07E017E017E017E017E017E014E017E0174
S11300C07E017E017E017E017E017E0150017E0162
S11300D07E017E017E017E017E017E017E017E0124
S11300E07E017E017E017E017E017E017E017E0114
S11300F07E017E017E017E017E017E016F017E0113
S11301007E017E017E017E017E017E017E017E01F3
S11301107E017E017E017E017E017E0179017E01E8
S11301207E017E017E017E017E017E017301EA076C
S11301308807EB066707C4062907B9070763423631
S1130140B79BD8A71A39685618AEBAAB558C1D3C64
S1130150B7CC5763BD6DEDFD753EF6177231BF0028
S11301600000803F08000000BE922449123EABAA62
S1130170AA2ABECDCCCC4C3E00000080BEABAAAABD
S1130180AA3E00000000BF000000803F0000000005
S113019000084178D3BB4387D1133D190E3CC3BD3E
S11301A04282AD2B3E68EC8276BED98FE1A93E4CEB
S11301B080EFFFBE01C4FF7F3F0000000000112458
S11301C01FBECFEFD0E4DEBFCDBF11E0A0E0B1E0B1
S11301D0E8EDFEE100E00BBF02C007900D92A830ED
S11301E0B107D9F721E0A8E0B1E001C01D92A53420
S11301F0B207E1F790D70C946A0F02CF1092B900BE
S113020082E98093B80085E08093BC00089585EA74
S11302108093BC0010920701089585E98093BC0087
S113022081E08093070108951F920F920FB60F92F9
S113023011240BB60F922F933F934F935F936F93B9
S11302407F938F939F93AF93BF93EF93FF9380918B
S1130250B900887F90E0FC013897E135F10508F09A
S11302604DC0EA5BFF4F0C94060E809129018093E8
S1130270BB0085E88093BC0041C0809129018F5F59
S11302808093BB0085E88093BC0038C080912A012C
S11302908093BB0085E88093BC0030C0BEDF2EC0D5
S11302A0809106018823C9F080910A0190910B0185
S11302B0892B11F4B2DF22C080912C018093BB0002
S11302C085E88093BC0080910A0190910B0101970D
S11302D090930B0180930A0111C099DF0FC085E848
S11302E08093BC000BC08091BB0080932B0195DFF1
S11302F005C08091BB0080932B018FDFFF91EF91AC
S1130300BF91AF919F918F917F916F915F914F9129
S11303103F912F910F900BBE0F900FBE0F901F9027
S11303201895909107019923E1F330930B012093E1
S11303300A0160932A018093290140932C0181E0F2
S11303408093060164CF0895909107019923E1F306
S1130350509309014093080160932A018093290175
S11303601092060154DF809107018823E1F3809104
S11303702B0108950097B9F02A9A2FEF39E648E146
S1130380215030404040E1F700C0000015B82FEF85
S113039039E648E1215030404040E1F700C0000018
S11303A00197009749F708950097B9F0299A2FEF1C
S11303B039E648E1215030404040E1F700C00000F8
S11303C015B82FEF39E648E1215030404040E1F7BD
S11303D000C000000197009749F708950097B9F00D
S11303E0289A2FEF39E648E1215030404040E1F7A8
S11303F000C0000015B82FEF39E648E12150304025
S11304004040E1F700C000000197009749F70895C4
S1130410CF93C82F8BE391E00E94430EDC011D9221
S11304201D921D921C92139714961D921D921D925B
S11304301C92179718961D921D921D921C921B9741
S11304401C961D921D921D921C921F9750961D92F0
S11304501D921D921C92539754961D921D921D92AB
S11304601C92579758961D921D921D921C925B9751
S11304705C961D921D921D921C925F9790961D9200
S11304801D921D921C92939794961D921D921D92FB
S11304901C92979798961D921D921D921C929B9761
S11304A09C961D921D921D921C929F97D0961D9210
S11304B01D921D921C92D397FC01F49620E030E02B
S11304C011921192119211922F5F3F4F20343105F6
S11304D0B9F7FD01EC5CFE4FC0833196C0833196C1
S11304E0C0833196C0833196C0833196C0833196E0
S11304F0C083CD01CF91089521E030E040E062E077
S113050082ED0FDF8FE39CE90197F1F700C0000053
S1130510089521E030E047E560E282E302DF8FE303
S11305209CE90197F1F700C00000089521E030E054
S11305304CE060E286EDF5DE8FE39CE90197F1F78C
S113054000C0000021E030E040E063E286EDE9DE37
S11305508FE39CE90197F1F700C000000895262F6E
S113056030E0322F2227282BB901759567957595B0
S113057067957595679575956795882777FD809537
S1130580982F0E94030B21ED32E24DE151E40E94C9
S1130590F50B2FE632E143E85AE30C94F50B08958A
S11305A04F925F926F927F928F929F92AF92BF927F
S11305B0CF92DF92EF92FF92BC0180E090E00E9424
S11305C0010B6B017C0120E030E040E850E40E9424
S11305D0580C4B015C0120E030E040E450E4C701DA
S11305E0B6010E94580C2B013C0126EA34E840EF86
S11305F051E3C501B4010E94F50B4B015C012CEAE7
S113060035EC47E257EBC301B2010E94F50B9B01A5
S1130610AC01C501B40125D74B015C01A7019601CA
S1130620C701B6010E94F50B24E330E847EB5BE316
S11306300E94F50B9B01AC01C501B40112D74B011B
S11306405C0122E03CEB45EB5FEBC701B6010E9485
S1130650F50B9B01AC01C501B40103D722E538E3D6
S11306604EE153E4FED6FF90EF90DF90CF90BF9021
S1130670AF909F908F907F906F905F904F90089570
S11306808F929F92AF92BF92CF92DF92EF92FF929E
S11306901F93CF93DF93EC0141E050E068E282E3E3
S11306A053DE182F8FE99FE00197F1F700C0000097
S11306B041E050E069E282E347DE682F812F4FDF9B
S11306C04B015C0141E050E06AE282E33DDE182F19
S11306D08FE99FE00197F1F700C0000041E050E08E
S11306E06BE282E331DE682F812F39DF6B017C01FD
S11306F041E050E06CE282E327DE182F8FE99FE0AF
S11307000197F1F700C0000041E050E06DE282E3A0
S11307101BDE682F812F23DF88829982AA82BB8205
S1130720CC82DD82EE82FF82688779878A879B8705
S1130730DF91CF911F91FF90EF90DF90CF90BF900A
S1130740AF909F908F9008954F925F926F927F9297
S11307508F929F92AF92BF92CF92DF92EF92FF92CD
S11307600F931F93CF93DF9381E052DEEC0104E6F5
S113077010E0C12CD12C7601460157012601370126
S1130780CE017EDF288139814A815B81C301B201B8
S113079068D62B013C012C813D814E815F81C501CE
S11307A0B4015FD64B015C01288539854A855B8598
S11307B0C701B60156D66B017C0101501109011520
S11307C01105F1F620E030E048EC52E4C301B20137
S11307D0B0D660931D0170931E0180931F01909306
S11307E0200120E030E048EC52E4C501B401A1D678
S11307F06093190170931A0180931B0190931C015B
S113080020E030E048EC52E4C701B60192D6609390
S11308101501709316018093170190931801CE016E
S11308200E94DB0E8FE39CE90197F1F700C0000002
S1130830DF91CF911F910F91FF90EF90DF90CF90B8
S1130840BF90AF909F908F907F906F905F904F90EC
S113085008954F925F926F927F928F929F92AF9280
S1130860BF92CF92DF92EF92FF92CF93DF93EC018E
S113087041E050E068E282E367DDF82E8FE99FE013
S11308800197F1F700C0000041E050E069E282E323
S11308905BDD682F8F2D63DE2B013C0141E050E0CE
S11308A06AE282E351DDF82E8FE99FE00197F1F7C8
S11308B000C0000041E050E06BE282E345DD682FB8
S11308C08F2D4DDE4B015C0141E050E06CE282E390
S11308D03BDDF82E8FE99FE00197F1F700C000009F
S11308E041E050E06DE282E32FDD682F8F2D37DE8B
S11308F06B017C0120911D0130911E0140911F016B
S113090050912001C301B201ABD5DC01CB01B05839
S113091088839983AA83BB832091190130911A019A
S113092040911B0150911C01C501B40199D5DC0112
S1130930CB01B0588C839D83AE83BF832091150176
S1130940309116014091170150911801C701B60169
S113095087D5DC01CB01B05888879987AA87BB87E4
S1130960E12CF12C2AE037ED43E25CE368817981E4
S11309708A819B81DAD5882324F4188219821A8209
S11309801B829FEFE91AF90A249683E0E816F10422
S113099049F7DF91CF91FF90EF90DF90CF90BF9018
S11309A0AF909F908F907F906F905F904F9008953D
S11309B0CF92DF92EF92FF92CF93DF93EC0149DF66
S11309C0A6D420910D0130910E0140910F01509158
S11309D0100147D56B017C0160930D0170930E01EA
S11309E080930F0190931001288139814A815B81A2
S11309F0FCD69B01AC0168A579A58AA59BA531D538
S1130A0068A779A78AA79BA72C813D814E815F8126
S1130A10C701B601EAD69B01AC016CA57DA58EA5E4
S1130A209FA51FD56CA77DA78EA79FA7288539856D
S1130A304A855B85C701B601D8D69B01AC0168A97C
S1130A4079A98AA99BA90DD568AB79AB8AAB9BAB75
S1130A50A701960160911101709112018091130117
S1130A6090911401FED4609311017093120180934C
S1130A7013019093140110920D0110920E01109223
S1130A800F01109210012ED4DF91CF91FF90EF90BF
S1130A90DF90CF90089541E050E067E286ED54DCAA
S1130AA082FB882780F90895FF920F931F93CF93B9
S1130AB0DF9300D000D0CDB7DEB78C0141E050E029
S1130AC06CE286ED41DCF82E8FE99FE00197F1F7A7
S1130AD000C0000041E050E06DE286ED35DC6F2D92
S1130AE070E0782B882777FD8095982F8CD529E2A4
S1130AF03CE54FE05CE379D669837A838B839C83FE
S1130B0089819A81AB81BC81F801848B958BA68BFA
S1130B10B78B0F900F900F900F90DF91CF911F9193
S1130B200F91FF9008954F925F926F927F928F92F0
S1130B309F92AF92BF92CF92DF92EF92FF920F9368
S1130B401F93CF93DF9381E063DC8C01C4E6D0E094
S1130B50812C912C5401240135019DDF8823E9F374
S1130B60C801A2DFF801C488D588E688F788A70100
S1130B709601C301B20175D42B013C01A701960172
S1130B80C701B60132D69B01AC01C501B40169D4D9
S1130B904B015C012197209701F720E030E048ECFD
S1130BA052E4C301B201C5D46B017C0160932501F9
S1130BB070932601809327019093280120E030E070
S1130BC048EC52E4C501B401B4D44B015C01A70163
S1130BD09601C701B60109D69B01AC01C501B40158
S1130BE03FD4B6D6609321017093220180932301F0
S1130BF090932401C8010E94DB0E8FE39CE90197C6
S1130C00F1F700C00000DF91CF911F910F91FF9089
S1130C10EF90DF90CF90BF90AF909F908F907F9098
S1130C206F905F904F90089567DC8BE880937A0013
S1130C3070DC7CDC78DF88CD0895E0DA9FD278948C
S1130C40F3DFA9D281E090E095DB81E090E0ACDBBA
S1130C5060E070E080E091E4DFC208958F929F929B
S1130C60AF92BF92CF92DF92EF92FF92CF93DF9336
S1130C70EC0111DF882309F45FC041E050E06CE22D
S1130C8086ED62DBF82E8FE99FE00197F1F700C053
S1130C90000041E050E06DE286ED56DB6F2D70E020
S1130CA0782B882777FD8095982FADD429E23CE5F1
S1130CB04FE05CE39AD520912501309126014091C3
S1130CC0270150912801CCD36B017C018090210134
S1130CD090902201A0902301B090240120E030E004
S1130CE040E450ECC501B40180D59B01AC01C701BF
S1130CF0B6011BD4181674F420E030E040E450E44C
S1130D00C501B40172D59B01AC01C701B60169D517
S1130D10882394F020E030E04EEB52E4C701B601A2
S1130D2008D49B01AC0168A179A18AA19BA199D3A4
S1130D3068A379A38AA39BA3DF91CF91FF90EF903F
S1130D40DF90CF90BF90AF909F908F900895CF92F7
S1130D50DF92EF92FF920F931F93CF93DF93CDB760
S1130D60DEB7CB53D1400FB6F894DEBF0FBECDBF74
S1130D708C014EB550E0FA013197E730F10508F0E7
S1130D8049C1E956FF4F42C7FC01EB5CFE4F80812D
S1130D90882309F43FC181E1F8D1D801D496FE013A
S1130DA031967E0181E0E80EF81E4D915D916D91C2
S1130DB07D914193519361937193EE15FF05A9F7CA
S1130DC08E010F5F1F4FF80181918F01DED10E1547
S1130DD01F05C9F71FC1FC01EA5CFE4F808188230F
S1130DE009F418C181E1D1D1F801808D918DA28DD2
S1130DF0B38D89839A83AB83BC83848D958DA68DB3
S1130E00B78D8D839E83AF83B88780A191A1A2A162
S1130E10B3A189879A87AB87BC87CE0101967C01F1
S1130E206E019DE0C90ED11CF70181917F01ADD106
S1130E30EC14FD04C9F7F801108E118E128E138E76
S1130E40148E158E168E178E10A211A212A213A242
S1130E50E1C0FC01E85CFE4F8081882309F4DAC01C
S1130E6081E193D1F80180A591A5A2A5B3A58983B9
S1130E709A83AB83BC8384A595A5A6A5B7A58D83CA
S1130E809E83AF83B88780A991A9A2A9B3A98987B2
S1130E909A87AB87BC87CE0101967C016E019DE0E9
S1130EA0C90ED11CF70181917F016FD1EC14FD04AF
S1130EB0C9F7F80110A611A612A613A614A615A622
S1130EC016A617A610AA11AA12AA13AAA3C0FC0157
S1130ED0E75CFE4F8081882309F49CC081E155D1F1
S1130EE0F80184A195A1A6A1B7A189839A83AB83B4
S1130EF0BC838E010F5F1F4F7E01F5E0EF0EF11CE6
S1130F00F80181918F0141D10E151F05C9F782C0E7
S1130F10FC01E95CFE4F8081882309F47BC081E1F8
S1130F2034D1F80180819181A281B38189839A832C
S1130F30AB83BC8384819581A681B7818D839E8395
S1130F40AF83B88780859185A285B38589879A8781
S1130F50AB87BC878E010F5F1F4F7E01FDE0EF0E54
S1130F60F11CF80181918F0110D10E151F05C9F7ED
S1130F7051C0FC01E95CFE4F8081882309F44AC01A
S1130F8081E103D1F80184859585A685B785898398
S1130F909A83AB83BC8380899189A289B3898D8329
S1130FA09E83AF83B88784899589A689B789898701
S1130FB09A87AB87BC878E010F5F1F4F7E01FDE0D0
S1130FC0EF0EF11CF80181918F01DFD00E151F0582
S1130FD0C9F720C0FC01EC5CFE4F80818823D1F06E
S1130FE081E1D3D08BE391E0F801DE011196019009
S1130FF00D920197E1F78E010F5F1F4F7E01F4EC14
S1131000EF1AFEEFFF0AF80181918F01BED00E1591
S11310101F05C9F7C55CDE4F0FB6F894DEBF0FBEDF
S1131020CDBFDF91CF911F910F91FF90EF90DF9093
S1131030CF9008951F920F920FB60F9211240BB602
S11310400F922F933F934F935F936F937F938F935D
S11310509F93AF93BF93EF93FF9380910C01811102
S11310600AC081E080930C0180912D0190912E01A2
S11310706EDE10920C01FF91EF91BF91AF919F91A1
S11310808F917F916F915F914F913F912F910F902D
S11310900BBE0F900FBE0F901F9018951F920F92CA
S11310A00FB60F9211240BB60F922F933F934F93C9
S11310B05F936F937F938F939F93AF93BF93EF93BC
S11310C0FF93809178002091790090E0922B909387
S11310D0300180932F0180912F019091300160DACB
S11310E06093310170933201809333019093340102
S11310F0FF91EF91BF91AF919F918F917F916F91EC
S11311005F914F913F912F910F900BBE0F900FBEA7
S11311100F901F901895CF93DF93CDB7DEB7289724
S11311200FB6F894DEBF0FBECDBF87DD81E070D966
S113113090932E0180932D0181E090E04FD9198284
S11311401A821B821C821D821E821F821886809135
S11311502D0190912E012CDC80912D0190912E0176
S11311607DDDE0912D01F0912E0180A191A1A2A13C
S1131170B3A189839A83AB83BC83E9CF8CB58068A0
S11311808CBD8CB580648CBD08958EBD0DB407FEF6
S1131190FDCF8EB508958FE484B908951F920F9200
S11311A00FB60F9211242F933F934F935F936F9336
S11311B07F938F939F93AF932091390130913A019C
S11311C040913B0150913C0160913D0170913E0181
S11311D080913F0190914001A1E040D520933901D5
S11311E030933A0140933B0150933C0160933D019D
S11311F070933E0180933F0190934001AF919F9182
S11312008F917F916F915F914F913F912F910F90AB
S11312100FBE0F901F901895CF92DF92EF92FF921E
S11312206B017C01E0E8F0E08081808320E030E025
S113123040E85FE3C701B60178D1811106C0E1E857
S1131240F0E08081816080831EC020E030E040E0D7
S113125051E4C701B60169D1811106C0E1E8F0E0AB
S11312608081826080831EC020E030E040E852E448
S1131270C701B6015AD1811106C0E1E8F0E08081CE
S1131280836080831DC020E030E040E853E4C70160
S1131290B6014BD1811106C0E1E8F0E080818460A1
S11312A080830EC020E030E040E854E4C701B6017A
S11312B03CD1811105C0E1E8F0E080818560808344
S11312C0C0923501D0923601E0923701F092380194
S11312D0EFE6F0E0808181608083FF90EF90DF9003
S11312E0CF9008951092390110923A0110923B0167
S11312F010923C0110923D0110923E0110923F0168
S113130010924001109285001092840008952F924B
S11313103F924F925F926F927F928F929F92AF9281
S1131320BF92CF92DF92EF92FF920F931F93CF93CE
S1131330DF9300D000D000D0CDB7DEB7609084003A
S1131340709085002090390130903A0180903B01E3
S113135090903C0180913D018E83E0913E01ED83AC
S113136040903F01509040016091350170913601E9
S1131370809137019091380120E034E244E75BE446
S1131380D8D069837A838B839C83222D332D482D77
S1131390592D6E817D81842D952D07E03DD4A22C9D
S11313A0B32CC82CD92CEE80FD80042D152D4DD4E2
S11313B001E032D4042D5ED4A22EB32EC42ED52E39
S11313C0E62EF72EE82F192F04E026D40E2F52D440
S11313D0822E932E442E552EB62FA72FF82FE92FA9
S11313E004E01AD4A22EB32EC42ED52EE62EF72E48
S11313F0082F192F282D392D442D552D6B2F7A2F79
S11314008F2F9E2F22D41301A22CB32CC12CD12CAC
S1131410E12CF12C00E010E018D4A1E01FD42ED16F
S11314209B01AC0169817A818B819C81DED12696F6
S11314300FB6F894DEBF0FBECDBFDF91CF911F91E1
S11314400F91FF90EF90DF90CF90BF90AF909F905F
S11314508F907F906F905F904F903F902F90089562
S11314605058BB27AA270ED082C173D130F078D14F
S113147020F031F49F3F11F41EF468C10EF4E0959E
S1131480E7FB5EC1E92F84D180F3BA1762077307C3
S11314908407950718F071F49EF59CC10EF4E0954D
S11314A00B2EBA2FA02D0B01B90190010C01CA011A
S11314B0A0011124FF27591B99F0593F50F4503EC5
S11314C068F11A16F040A22F232F342F4427585FB7
S11314D0F3CF469537952795A795F0405395C9F7CF
S11314E07EF41F16BA0B620B730B840BBAF0915087
S11314F0A1F0FF0FBB1F661F771F881FC2F70EC026
S1131500BA0F621F731F841F48F4879577956795F8
S1131510B795F7959E3F08F0B3CF9395880F08F0E1
S11315209927EE0F979587950895E6D008F481E002
S113153008950CD01CC114D140F00BD130F021F42B
S11315405F3F19F0FDC0511146C100C121D198F38C
S11315509923C9F35523B1F3951B550BBB27AA2730
S113156062177307840738F09F5F5F4F220F331FA2
S1131570441FAA1FA9F333D00E2E3AF0E0E830D06E
S113158091505040E695001CCAF729D0FE2F27D071
S1131590660F771F881FBB1F261737074807AB073F
S11315A0B0E809F0BB0B802DBF01FF2793585F4FB4
S11315B02AF09E3F510568F0C3C00DC15F3FECF3B4
S11315C0983EDCF3869577956795B795F7959F5F79
S11315D0C9F7880F911D9695879597F90895E1E0CD
S11315E0660F771F881FBB1F621773078407BA072C
S11315F020F0621B730B840BBA0BEE1F88F7E09587
S11316000895E89409C097FB3EF4909580957095F1
S113161061957F4F8F4F9F4F9923A9F0F92F96E93A
S1131620BB279395F695879577956795B795F111AF
S1131630F8CFFAF4BB0F11F460FF1BC06F5F7F4F4C
S11316408F4F9F4F16C0882311F096E911C077235E
S113165021F09EE8872F762F05C0662371F096E867
S1131660862F70E060E02AF09A95660F771F881F36
S1131670DAF7880F9695879597F90895E894F92FE6
S113168096EBFF2381F0121613061406440B939570
S1131690F69587957795679557954040FF23B9F759
S11316A01BC099270895882351F49850D2F7872BAB
S11316B0762F652F542F432F322F20E0B1F31216CB
S11316C013061406440B88233AF09A95440F551FC9
S11316D0661F771F881FCAF755234AF4440F551F06
S11316E011F460FF04C06F5F7F4F8F4F9F4F880FCF
S11316F09695879597F90895990F0008550FAA0BA9
S1131700E0E8FEEF16161706E807F907C0F0121610
S11317101306E407F50798F0621B730B840B950B13
S113172039F40A2661F0232B242B252B21F4089568
S11317300A2609F4A140A6958FEF811D811D089505
S113174097F99F6780E870E060E008959FEF80EC70
S1131750089500240A941616170618060906089513
S113176000240A9412161306140605060895092E79
S11317700394000C11F4882352F0BB0F40F4BF2BE8
S113178011F460FF04C06F5F7F4F8F4F9F4F089528
S113179057FD9058440F551F59F05F3F71F047951E
S11317A0880F97FB991F61F09F3F79F08795089503
S11317B0121613061406551FF2CF4695F1DF08C022
S11317C0161617061806991FF1CF8695710561053F
S11317D008940895E894BB2766277727CB0197F9E7
S11317E008958ADF08F48FEF08950BD0C0CFB1DFDE
S11317F028F0B6DF18F0952309F0A2CFA7CF112463
S1131800EACFC6DFA0F3959FD1F3950F50E0551FA3
S1131810629FF001729FBB27F00DB11D639FAA2741
S1131820F00DB11DAA1F649F6627B00DA11D661F90
S1131830829F2227B00DA11D621F739FB00DA11DB1
S1131840621F839FA00D611D221F749F3327A00D6B
S1131850611D231F849F600D211D822F762F6A2F07
S113186011249F5750408AF0E1F088234AF0EE0F8C
S1131870FF1FBB1F661F771F881F91505040A9F799
S11318809E3F510570F05CCFA6CF5F3FECF3983ECE
S1131890DCF3869577956795B795F795E7959F5F00
S11318A0C1F7FE2B880F911D9695879597F908959A
S11318B0FA01EE0FFF1F30962105310599F16115EC
S11318C0710561F48038BFE39B0749F1689490384F
S11318D0810561F08038BFEF9B0741F0992342F501
S11318E0FF3FE1053105210511F1E8940894E795DE
S11318F0D901AA2329F4AB2FBE2FF85FD0F310C06F
S1131900FF5F70F4A695E0F7F73950F019F0FF3A4D
S113191038F49F779F930CD00F9007FC905808954C
S11319203EF014CF60E070E080E89FE308954FE755
S11319309F775F934F933F932F93F5D02F913F91D0
S11319404F915F9152DF47C011F40EF4FFCE6FC088
S113195027DFD0F39923D9F3CEF39F57550B87FF95
S113196074D00024A0E640EA9001805856959795DB
S113197028F4805C660F771F881F20F0261737072E
S1131980480730F4621B730B840B202931294A2B3E
S1131990A69517940794202531254A2758F7660FF2
S11319A0771F881F20F026173707480730F4620B8B
S11319B0730B840B200D311D411DA09581F7B901D6
S11319C0842F9158880F96958795089519F40EF0F1
S11319D0B7CE00CFBBCEE4DEC8F39638C0F707F825
S11319E00F92E8942BE33AEA48EB5FE70CDF0F929F
S11319F00F920F924DB75EB70F92D5D0ECE3F1E0A2
S1131A002BD04F915F91EF91FF91E595EE1FFF1F52
S1131A1049F0FE57E0684427EE0F441FFA95E1F7BA
S1131A204195550B47D00F9007FE3BC008959F3F4B
S1131A3031F0915020F4879577956795B795880F85
S1131A40911D9695879597F9089591505040660F8A
S1131A50771F881FD2F70895DF93CF931F930F93B7
S1131A60FF92EF92DF927B018C01689405C0DA2E1D
S1131A70EF01C7DEFE01E894A591259135914591CA
S1131A805591AEF3EF01FEDCFE019701A801DA9453
S1131A9079F7DF90EF90FF900F911F91CF91DF9135
S1131AA008959B01AC0160E070E080E89FE341CDC4
S1131AB047CEBDCF75DEE8F39923D9F3940F511DBA
S1131AC0BBF39150504094F059F0882332F0660FE4
S1131AD0771F881F91505040C1F79E3F510544F72E
S1131AE0880F911D9695879597F908955F3FACF0FF
S1131AF0983E9CF0BB27869577956795B79508F433
S1131B00B1609395C1F7BB0F58F711F460FFE8CFAC
S1131B106F5F7F4F8F4F9F4FE3CF5DCE0EF087CF28
S1131B2015CE68940DCE3CDEC8F39923D1F3C6F3E9
S1131B30DF93CF931F930F93FF92C92FDD27882341
S1131B402AF02197660F771F881FDAF720E030E02C
S1131B5040E85FEB9FE3883920F0803E30F0219627
S1131B608F777FDCE4E6F1E003C07BDCE1E9F1E0C0
S1131B7073DF8B01BE01EC01FB2E6F577109759564
S1131B80771F880B990B3FDD28E132E741E35FE3E0
S1131B9038DEAF2D9801AE01FF900F911F91CF91C8
S1131BA0DF9170DCE4CDFA01DC01AA0FBB1F9B01BD
S1131BB0AC01BF5728F422273327442750781FC08D
S1131BC0B75188F4AB2F0024469537952795011C0F
S1131BD0A395D2F3002069F0220F331F441FB3955D
S1131BE0DAF30DD03DCC61307105A0E88A07B9461F
S1131BF030F49B01AC0166277727882790783096CC
S1131C0021F020833183428353830895EE0FFF1F15
S1131C100590F491E02D09940F93083090F0982FDB
S1131C20872F762F652F542F432F322F22270850CA
S1131C30F4CF220F331F441F551F661F771F881FC1
S1131C40991F0A95B2F70F9108952A0D3B1D4C1D5B
S1131C505D1D6E1D7F1D801F911F08950024A7FD2B
S1131C6000942A0F301D401D501D601D701D801DE5
S1131C70901D08952A193B094C095D096E097F09D5
S1131C80800B910B0895CF93DF938230910510F46C
S1131C9082E090E0E0914301F091440120E030E0E3
S1131CA0A0E0B0E0309739F14081518148175907DD
S1131CB0B8F04817590771F482819381109729F07D
S1131CC013969C938E9312972CC090934401809307
S1131CD0430127C02115310531F04217530718F08D
S1131CE0A901DB0101C0EF019A01BD01DF010280FE
S1131CF0F381E02DD7CF21153105F9F0281B390BDD
S1131D002430310580F48A819B816115710521F0AD
S1131D10FB019383828304C0909344018093430125
S1131D20FE01329644C0FE01E20FF31F81939193AA
S1131D3022503109398328833AC0209141013091DE
S1131D404201232B41F4209102013091030130938D
S1131D50420120934101209100013091010121159C
S1131D60310541F42DB73EB740910401509105016E
S1131D70241B350BE0914101F0914201E217F30776
S1131D80A0F42E1B3F0B2817390778F0AC014E5FE7
S1131D905F4F2417350748F04E0F5F1F50934201E1
S1131DA0409341018193919302C0E0E0F0E0CF01C0
S1131DB0DF91CF910895CF93DF93009709F487C003
S1131DC0FC01329713821282C0914301D0914401E5
S1131DD0209781F420813181280F391F809141019E
S1131DE0909142018217930779F5F0934201E093B1
S1131DF041016DC0DE0120E030E0AE17BF0750F4B2
S1131E0012964D915C9113979D014115510509F16D
S1131E10DA01F3CFB383A28340815181840F951FEC
S1131E208A179B0771F48D919C911197840F951FCC
S1131E3002969183808312968D919C91139793833C
S1131E4082832115310529F4F0934401E093430181
S1131E503EC0D9011396FC93EE9312974D915D9178
S1131E60A40FB51FEA17FB0779F480819181840FD1
S1131E70951F0296D90111969C938E93828193812A
S1131E8013969C938E931297E0E0F0E08A819B81F5
S1131E90009719F0FE01EC01F9CFCE0102962881DA
S1131EA03981820F931F20914101309142012817FB
S1131EB0390769F4309729F41092440110924301D0
S1131EC002C013821282D0934201C0934101DF9178
S10B1ED0CF910895F894FFCFAF
S10B1ED8000045012000010196
S9030000FC
