S013000053656E736F725F6D61696E2E7372656393
S113000096C00000B1C00000AFC00000ADC0000049
S1130010ABC00000A9C00000A7C00000A5C000003C
S1130020A3C00000A1C000009FC000009DC000004C
S11300309BC0000099C0000097C0000095C000005C
S113004093C0000091C000008FC000008DC000006C
S11300508BC0000089C0000087C0000085C000007C
S113006083C0000081C00000B2C000007DC0000059
S11300707BC0000079C0000077C0000075C000009C
S113008073C0000071C000006FC000000701500180
S11300905001500150015001500150010F01500115
S11300A050015001500150015001500118015001FC
S11300B050015001500150015001500120015001E4
S11300C050015001500150015001500122015001D2
S11300D05001500150015001500150015001500194
S11300E05001500150015001500150015001500184
S11300F05001500150015001500150014101500183
S11301005001500150015001500150015001500163
S11301105001500150015001500150014B01500158
S1130120500150015001500150015001450111246A
S11301301FBECFEFD0E4DEBFCDBF11E0A0E0B1E041
S1130140E6E0F8E000E00BBF02C007900D92A83093
S1130150B107D9F721E0A8E0B1E001C01D92A431B4
S1130160B207E1F722D14DC34BCFCF93C82F81E122
S113017091E020D2FC011182108213821282158236
S113018014821782168211861086138612861486AC
S1130190158616861786DC01A05FBE4FCC93CF91DF
S11301A008951092B90082E98093B80085E08093A5
S11301B0BC00089585EA8093BC001092070108955D
S11301C085E98093BC0081E08093070108951F9224
S11301D00F920FB60F9211240BB60F922F933F93E9
S11301E04F935F936F937F938F939F93AF93BF933B
S11301F0EF93FF938091B900887F90E0FC013897DA
S1130200E135F10508F04CC0EA5BFF4FCDC18091A8
S11302100C018093BB0085E88093BC0041C08091B1
S11302200C018F5F8093BB0085E88093BC0038C0CD
S113023080910D018093BB0085E88093BC0030C0A1
S1130240BFDF2EC0809106018823C9F080910A0186
S113025090910B01892B11F4B3DF22C080910F011F
S11302608093BB0085E88093BC0080910A01909143
S11302700B01019790930B0180930A0111C09ADF3F
S11302800FC085E88093BC000BC08091BB008093B5
S11302900E0196DF05C08091BB0080930E0190DFB4
S11302A0FF91EF91BF91AF919F918F917F916F914A
S11302B05F914F913F912F910F900BBE0F900FBE06
S11302C00F901F901895909107019923E1F33093B3
S11302D00B0120930A0160930D0180930C0140935C
S11302E00F0181E08093060165CF08959091070185
S11302F09923E1F3509309014093080160930D01A0
S113030080930C011092060155DF80910701882328
S1130310E1F380910E01089521E030E040E050E0E7
S113032062E070E082ED90E0CECF0895FF920F93EB
S11303301F93CF93DF938C0160E870E082ED90E02F
S1130340D5DF60E870E082ED90E0D0DF005F1F4F02
S1130350C0E8D0E0BE0182ED90E0C8DFF82EBE0117
S11303606F5F7F4F82ED90E0C1DF982F8827BC013B
S11303706F0D711D882777FD8095982F26D020E07A
S113038030E040E85EE385D0F80161937193819396
S113039091938F012296C115F1E0DF07D9F6DF9121
S11303A0CF911F910F91FF90089581E0DEDEEC0163
S11303B081E084B915B8F5DE7894AEDF11E0CE01A2
S11303C0B5DF14B9FCCFE89409C097FB3EF49095CF
S11303D08095709561957F4F8F4F9F4F9923A9F01A
S11303E0F92F96E9BB279395F695879577956795A9
S11303F0B795F111F8CFFAF4BB0F11F460FF1BC0ED
S11304006F5F7F4F8F4F9F4F16C0882311F096E97F
S113041011C0772321F09EE8872F762F05C066232D
S113042071F096E8862F70E060E02AF09A95660FE6
S1130430771F881FDAF7880F9695879597F908959F
S113044057FD9058440F551F59F05F3F71F0479581
S1130450880F97FB991F61F09F3F79F08795089566
S1130460121613061406551FF2CF4695F1DF08C085
S1130470161617061806991FF1CF869571056105A2
S113048008940895E894BB2766277727CB0197F94A
S113049008950BD078C069D028F06ED018F0952359
S11304A009F05AC05FC01124EECFCADFA0F3959FB4
S11304B0D1F3950F50E0551F629FF001729FBB2747
S11304C0F00DB11D639FAA27F00DB11DAA1F649FF3
S11304D06627B00DA11D661F829F2227B00DA11DA6
S11304E0621F739FB00DA11D621F839FA00D611D2C
S11304F0221F749F3327A00D611D231F849F600D4D
S1130500211D822F762F6A2F11249F5750408AF085
S1130510E1F088234AF0EE0FFF1FBB1F661F771F11
S1130520881F91505040A9F79E3F510570F014C0A8
S1130530AACF5F3FECF3983EDCF3869577956795F9
S1130540B795F795E7959F5FC1F7FE2B880F911D2F
S11305509695879597F9089597F99F6780E870E0D5
S113056060E008959FEF80EC089500240A94161625
S1130570170618060906089500240A94121613068D
S1130580140605060895092E0394000C11F488231B
S113059052F0BB0F40F4BF2B11F460FF04C06F5F37
S11305A07F4F8F4F9F4F0895EE0FFF1F0590F491DB
S11305B0E02D0994CF93DF938230910510F482E00B
S11305C090E0E0911201F091130120E030E0A0E00E
S11305D0B0E0309739F14081518148175907B8F09C
S11305E04817590771F482819381109729F0139663
S11305F09C938E9312972CC09093130180931201B5
S113060027C02115310531F04217530718F0A9010D
S1130610DB0101C0EF019A01BD01DF010280F3811A
S1130620E02DD7CF21153105F9F0281B390B2430E3
S1130630310580F48A819B816115710521F0FB01EC
S11306409383828304C09093130180931201FE016B
S1130650329644C0FE01E20FF31F8193919322501E
S11306603109398328833AC0209110013091110156
S1130670232B41F4209102013091030130931101A5
S113068020931001209100013091010121153105C1
S113069041F42DB73EB74091040150910501241B4C
S11306A0350BE0911001F0911101E217F307A0F46A
S11306B02E1B3F0B2817390778F0AC014E5F5F4FB4
S11306C02417350748F04E0F5F1F509311014093D4
S11306D010018193919302C0E0E0F0E0CF01DF913B
S11306E0CF910895CF93DF93009709F487C0FC015D
S11306F0329713821282C0911201D0911301209774
S113070081F420813181280F391F8091100190914B
S113071011018217930779F5F0931101E093100109
S11307206DC0DE0120E030E0AE17BF0750F4129632
S11307304D915C9113979D014115510509F1DA0121
S1130740F3CFB383A28340815181840F951F8A170D
S11307509B0771F48D919C911197840F951F0296BC
S11307609183808312968D919C91139793838283B6
S11307702115310529F4F0931301E09312013EC0D1
S1130780D9011396FC93EE9312974D915D91A40FAA
S1130790B51FEA17FB0779F480819181840F951FB7
S11307A00296D90111969C938E938281938113961C
S11307B09C938E931297E0E0F0E08A819B810097EE
S11307C019F0FE01EC01F9CFCE010296288139819E
S11307D0820F931F209110013091110128173907BE
S11307E069F4309729F4109213011092120102C097
S11307F013821282D0931101C0931001DF91CF9123
S10908000895F894FFCFF7
S10B08060000140120000101AF
S9030000FC
