S013000053656E736F725F6D61696E2E7372656393
S1130000DFC00000FBC00000F9C00000F7C0000022
S1130010F5C00000F3C00000F1C00000EFC0000014
S1130020EDC00000EBC00000E9C00000E7C0000024
S1130030E5C00000E3C00000E1C0000092C500007C
S1130040DDC00000DBC00000D9C00000F3C4000024
S1130050D5C00000D3C00000D1C00000CFC0000054
S11300601DC50000CBC00000E0C00000C7C00000F8
S1130070C5C00000C3C00000C1C00000BFC0000074
S1130080BDC00000BBC00000B9C0000036017F0144
S11300907F017F017F017F017F017F013E017F019D
S11300A07F017F017F017F017F017F0147017F0184
S11300B07F017F017F017F017F017F014F017F016C
S11300C07F017F017F017F017F017F0151017F015A
S11300D07F017F017F017F017F017F017F017F011C
S11300E07F017F017F017F017F017F017F017F010C
S11300F07F017F017F017F017F017F0170017F010B
S11301007F017F017F017F017F017F017F017F01EB
S11301107F017F017F017F017F017F017A017F01E0
S11301207F017F017F017F017F017F017401EA0468
S11301308804EB0367049C032904B904C30307631D
S11301404236B79BD8A71A39685618AEBAAB558C45
S11301501D3CB7CC5763BD6DEDFD753EF61772318E
S1130160BF000000803F08000000BE922449123EF8
S1130170ABAAAA2ABECDCCCC4C3E00000080BEABBC
S1130180AAAAAA3E00000000BF000000803F0000B1
S1130190000000084178D3BB4387D1133D190E3CBE
S11301A0C3BD4282AD2B3E68EC8276BED98FE1A9F5
S11301B03E4C80EFFFBE01C4FF7F3F000000000003
S11301C011241FBECFEFD0E4DEBFCDBF11E0A0E00D
S11301D0B1E0E0EEF5E100E00BBF02C007900D9244
S11301E0A830B107D9F721E0A8E0B1E001C01D9221
S11301F0A932B207E1F78FD40C94EE0A01CF109222
S1130200B90082E98093B80085E08093BC0008952A
S113021085EA8093BC0010920701089585E98093D4
S1130220BC0081E08093070108951F920F920FB6DE
S11302300F9211240BB60F922F933F934F935F931A
S11302406F937F938F939F93AF93BF93EF93FF939A
S11302508091B900887F90E0FC013897E135F10581
S113026008F04DC0EA5BFF4F0C94B50980910D0175
S11302708093BB0085E88093BC0041C080910D0150
S11302808F5F8093BB0085E88093BC0038C0809169
S11302900E018093BB0085E88093BC0030C0BEDFB4
S11302A02EC0809106018823C9F080910A019091A3
S11302B00B01892B11F4B2DF22C0809110018093CD
S11302C0BB0085E88093BC0080910A0190910B01EA
S11302D0019790930B0180930A0111C099DF0FC01D
S11302E085E88093BC000BC08091BB0080930F0114
S11302F095DF05C08091BB0080930F018FDFFF91D4
S1130300EF91BF91AF919F918F917F916F915F9189
S11303104F913F912F910F900BBE0F900FBE0F90F6
S11303201F901895909107019923E1F330930B01E5
S113033020930A0160930E0180930D0140931001F4
S113034081E08093060164CF089590910701992379
S1130350E1F3509309014093080160930E018093E7
S11303600D011092060154DF809107018823E1F307
S113037080910F0108950097B9F02A9A2FEF39E67A
S113038048E1215030404040E1F700C0000015B87A
S11303902FEF39E648E1215030404040E1F700C0FA
S11303A000000197009749F708950097B9F0299A3A
S11303B02FEF39E648E1215030404040E1F700C0DA
S11303C0000015B82FEF39E648E121503040404095
S11303D0E1F700C000000197009749F708950097DE
S11303E0B9F0289A2FEF39E648E1215030404040D7
S11303F0E1F700C0000015B82FEF39E648E12150BD
S113040030404040E1F700C000000197009749F7F1
S11304100895CF93C82F8CE392E0B9D7DC011D92E5
S11304201D921D921C92139714961D921D921D925B
S11304301C92179718961D921D921D921C921B9741
S11304401C961D921D921D921C921F9750961D92F0
S11304501D921D921C92539754961D921D921D92AB
S11304601C92579758961D921D921D921C925B9751
S11304705C961D921D921D921C925F9790961D9200
S11304801D921D921C92939794961D921D921D92FB
S11304901C92979798961D921D921D921C929B9761
S11304A09C961D921D921D921C929F97D0961D9210
S11304B01D921D921C92D397FC01F49620E430E027
S11304C01192119211921192215031092115310585
S11304D0B9F7FD01EC5CFE4F20E030E0119211927F
S11304E0119211922F5F3F4F20343105B9F7FD016E
S11304F0EC5CFD4FC0833196C0833196C083319646
S1130500C0833196C0833196C0833196C0833196BF
S1130510C083CD01CF91089521E030E040E062E056
S113052082ED00DF8FE39CE90197F1F700C0000042
S1130530089521E030E040E062E080EDF3DE8FE3F7
S11305409CE90197F1F700C000000895E5DFF1CFC1
S1130550089555DEF6D27894F9DF00D381E090E077
S11305600ADF81E090E021DF60E070E080E091E468
S113057036C308954F925F926F927F928F929F92AB
S1130580AF92BF92CF92DF92EF92FF92BC0180E0D4
S113059090E071D46B017C0120E030E040E850E44D
S11305A07FD54B015C0120E030E040E450E4C7011A
S11305B0B60176D52B013C0126EA34E840EF51E33D
S11305C0C501B4010AD54B015C012CEA35EC47E2C4
S11305D057EBC301B20101D59B01AC01C501B401C4
S11305E07AD34B015C01A7019601C701B601F5D48A
S11305F024E330E847EB5BE3F0D49B01AC01C50195
S1130600B40169D34B015C0122E03CEB45EB5FEBA9
S1130610C701B601E2D49B01AC01C501B4015BD3AF
S113062022E538E34EE153E456D3FF90EF90DF9098
S1130630CF90BF90AF909F908F907F906F905F907E
S11306404F9008950F931F93CF93DF93EC01E4969B
S113065010E841E050E0612F82ED77DE082F61E081
S1130660610F41E050E082ED70DE682F70E0762F7C
S11306706627600F711D882777FD8095982FFDD31D
S113068020E030E040E85EE3A8D46993799389934D
S113069099931E5FF1F6DF91CF911F910F91089509
S11306A00F931F93CF93DF93EC01CC5CDE4F10E8E4
S11306B041E050E0612F80ED48DE082F61E0610FDA
S11306C041E050E080ED41DE682F70E0762F662730
S11306D0600F711D882777FD8095982FCED320E079
S11306E030E040E85EE379D46993799389939993F0
S11306F01E5FF1F6DF91CF911F910F910895CF9274
S1130700DF92EF92FF920F931F93CF93DF93CDB7B6
S1130710DEB7CC53D2400FB6F894DEBF0FBECDBFC8
S11307208C014EB550E0FA013197E830F10508F03C
S113073071C1E956FF4F19C6FC01EB5CFD4F808186
S1130740882309F467C181E103D2D801D496FE015C
S113075031967E0181E0E80EF81E4D915D916D9118
S11307607D914193519361937193EE15FF05A9F720
S11307708E010F5F1F4FF80181918F01E9D10E1592
S11307801F05C9F747C1FC01EA5CFD4F808188233E
S113079009F440C181E1DCD1D801AC5CBE4FFE015B
S11307A031967E0181E0E80EF81E4D915D916D91C8
S11307B07D914193519361937193EE15FF05A9F7D0
S11307C08E010F5F1F4FF80181918F01C1D1E01697
S11307D0F106C9F71FC1FC01E95CFD4F8081882344
S11307E009F418C181E1B4D1F801808D918DA28DF5
S11307F0B38D89839A83AB83BC83848D958DA68DB9
S1130800B78D8D839E83AF83B88780A191A1A2A168
S1130810B3A189879A87AB87BC87CE0101967C01F7
S11308206E019DE0C90ED11CF70181917F0190D129
S1130830EC14FD04C9F7F801108E118E128E138E7C
S1130840148E158E168E178E10A211A212A213A248
S1130850E1C0FC01E75CFD4F8081882309F4DAC024
S113086081E176D1F80180A591A5A2A5B3A58983DC
S11308709A83AB83BC8384A595A5A6A5B7A58D83D0
S11308809E83AF83B88780A991A9A2A9B3A98987B8
S11308909A87AB87BC87CE0101967C016E019DE0EF
S11308A0C90ED11CF70181917F0152D1EC14FD04D2
S11308B0C9F7F80110A611A612A613A614A615A628
S11308C016A617A610AA11AA12AA13AAA3C0FC015D
S11308D0E65CFD4F8081882309F49CC081E138D116
S11308E0F80184A195A1A6A1B7A189839A83AB83BA
S11308F0BC838E010F5F1F4F7E01F5E0EF0EF11CEC
S1130900F80181918F0124D10E151F05C9F782C00A
S1130910FC01E85CFD4F8081882309F47BC081E100
S113092017D1F80180819181A281B38189839A834F
S1130930AB83BC8384819581A681B7818D839E839B
S1130940AF83B88780859185A285B38589879A8787
S1130950AB87BC878E010F5F1F4F7E01FDE0EF0E5A
S1130960F11CF80181918F01F3D00E151F05C9F711
S113097051C0FC01E85CFD4F8081882309F44AC022
S113098081E1E6D0F80184859585A685B7858983BC
S11309909A83AB83BC8380899189A289B3898D832F
S11309A09E83AF83B88784899589A689B789898707
S11309B09A87AB87BC878E010F5F1F4F7E01FDE0D6
S11309C0EF0EF11CF80181918F01C2D00E151F05A5
S11309D0C9F720C0FC01EC5CFD4F80818823D1F075
S11309E081E1B6D08CE392E0F801DE01119601902A
S11309F00D920197E1F78E010F5F1F4F7E01F3EC1B
S1130A00EF1AFDEFFF0AF80181918F01A1D00E15B5
S1130A101F05C9F7C45CDD4F0FB6F894DEBF0FBEE7
S1130A20CDBFDF91CF911F910F91FF90EF90DF9099
S1130A30CF9008951F920F920FB60F9211240BB608
S1130A400F922F933F934F935F936F937F938F9363
S1130A509F93AF93BF93EF93FF9380910C01811108
S1130A600AC081E080930C018091110190911201E0
S1130A7046DE10920C01FF91EF91BF91AF919F91CF
S1130A808F917F916F915F914F913F912F910F9033
S1130A900BBE0F900FBE0F901F9018951F920F92D0
S1130AA00FB60F9211240BB60F922F933F934F93CF
S1130AB05F936F937F938F939F93AF93BF93EF93C2
S1130AC0FF93809178002091790090E0922B90938D
S1130AD014018093130180911301909114014ADD54
S1130AE06093150170931601809317019093180178
S1130AF0FF91EF91BF91AF919F918F917F916F91F2
S1130B005F914F913F912F910F900BBE0F900FBEAD
S1130B100F901F9018951DDD81E07BDC90931201EE
S1130B208093110181E090E05ADCBFD080911101E3
S1130B309091120187DD8091110190911201B0DD35
S1130B40F5CF8CB580688CBD8CB580648CBD089560
S1130B508EBD0DB407FEFDCF8EB508958FE484B924
S1130B6008951F920F920FB60F9211242F933F9363
S1130B704F935F936F937F938F939F93AF93209142
S1130B801D0130911E0140911F015091200160917F
S1130B902101709122018091230190912401A1E00F
S1130BA0EAD320931D0130931E0140931F015093FB
S1130BB0200160932101709322018093230190937B
S1130BC02401AF919F918F917F916F915F914F918C
S1130BD03F912F910F900FBE0F901F901895CF92B9
S1130BE0DF92EF92FF926B017C01E0E8F0E08081FC
S1130BF0808320E030E040E85FE3C701B601CFD056
S1130C00811106C0E1E8F0E08081816080831EC02C
S1130C1020E030E040E051E4C701B601C0D08111CA
S1130C2006C0E1E8F0E08081826080831EC020E09D
S1130C3030E040E852E4C701B601B1D0811106C0EA
S1130C40E1E8F0E08081836080831DC020E030E033
S1130C5040E853E4C701B601A2D0811106C0E1E81F
S1130C60F0E08081846080830EC020E030E040E8C2
S1130C7054E4C701B60193D0811105C0E1E8F0E066
S1130C80808185608083C0921901D0921A01E0921C
S1130C901B01F0921C01EFE6F0E08081816080830B
S1130CA0FF90EF90DF90CF90089510921D01109265
S1130CB01E0110921F011092200110922101109226
S1130CC022011092230110922401109285001092A7
S1130CD0840008955058BB27AA270ED044C135D1AB
S1130CE030F03AD120F031F49F3F11F41EF42AC1C0
S1130CF00EF4E095E7FB20C1E92F46D180F3BA1743
S1130D00620773078407950718F071F49EF55EC1B6
S1130D100EF4E0950B2EBA2FA02D0B01B901900112
S1130D200C01CA01A0011124FF27591B99F0593F56
S1130D3050F4503E68F11A16F040A22F232F342F9E
S1130D404427585FF3CF469537952795A795F040EC
S1130D505395C9F77EF41F16BA0B620B730B840B01
S1130D60BAF09150A1F0FF0FBB1F661F771F881FB9
S1130D70C2F70EC0BA0F621F731F841F48F4879511
S1130D8077956795B795F7959E3F08F0B3CF939500
S1130D90880F08F09927EE0F979587950895A8D0A6
S1130DA008F481E008950CD0DEC0D6D040F0CDD058
S1130DB030F021F45F3F19F0BFC0511108C1C2C027
S1130DC0E3D098F39923C9F35523B1F3951B550B3D
S1130DD0BB27AA2762177307840738F09F5F5F4F0A
S1130DE0220F331F441FAA1FA9F333D00E2E3AF04B
S1130DF0E0E830D091505040E695001CCAF729D065
S1130E00FE2F27D0660F771F881FBB1F26173707B3
S1130E104807AB07B0E809F0BB0B802DBF01FF27E3
S1130E2093585F4F2AF09E3F510568F085C0CFC0AC
S1130E305F3FECF3983EDCF3869577956795B7951D
S1130E40F7959F5FC9F7880F911D9695879597F938
S1130E500895E1E0660F771F881FBB1F62177307B1
S1130E608407BA0720F0621B730B840BBA0BEE1FC6
S1130E7088F7E0950895E89409C097FB3EF49095AF
S1130E808095709561957F4F8F4F9F4F9923A9F05F
S1130E90F92F96E9BB279395F695879577956795EE
S1130EA0B795F111F8CFFAF4BB0F11F460FF1BC032
S1130EB06F5F7F4F8F4F9F4F16C0882311F096E9C5
S1130EC011C0772321F09EE8872F762F05C0662373
S1130ED071F096E8862F70E060E02AF09A95660F2C
S1130EE0771F881FDAF7880F9695879597F90895E5
S1130EF0990F0008550FAA0BE0E8FEEF1616170627
S1130F00E807F907C0F012161306E407F50798F08E
S1130F10621B730B840B950B39F40A2661F0232BA7
S1130F20242B252B21F408950A2609F4A140A69523
S1130F308FEF811D811D089597F99F6780E870E008
S1130F4060E008959FEF80EC089500240A9416163B
S1130F50170618060906089500240A9412161306A3
S1130F60140605060895092E0394000C11F4882331
S1130F7052F0BB0F40F4BF2B11F460FF04C06F5F4D
S1130F807F4F8F4F9F4F089557FD9058440F551F23
S1130F9059F05F3F71F04795880F97FB991F61F0F7
S1130FA09F3F79F087950895121613061406551F6E
S1130FB0F2CF4695F1DF08C0161617061806991FDA
S1130FC0F1CF86957105610508940895E894BB27CF
S1130FD066277727CB0197F908950BD0C4CFB5DFE7
S1130FE028F0BADF18F0952309F0A6CFABCF11246F
S1130FF0EECFCADFA0F3959FD1F3950F50E0551FB4
S1131000629FF001729FBB27F00DB11D639FAA2759
S1131010F00DB11DAA1F649F6627B00DA11D661FA8
S1131020829F2227B00DA11D621F739FB00DA11DC9
S1131030621F839FA00D611D221F749F3327A00D83
S1131040611D231F849F600D211D822F762F6A2F1F
S113105011249F5750408AF0E1F088234AF0EE0FA4
S1131060FF1FBB1F661F771F881F91505040A9F7B1
S11310709E3F510570F060CFAACF5F3FECF3983EDE
S1131080DCF3869577956795B795F795E7959F5F18
S1131090C1F7FE2B880F911D9695879597F90895B2
S11310A0FA01EE0FFF1F30962105310599F1611504
S11310B0710561F48038BFE39B0749F16894903867
S11310C0810561F08038BFEF9B0741F0992342F519
S11310D0FF3FE1053105210511F1E8940894E795F6
S11310E0D901AA2329F4AB2FBE2FF85FD0F310C087
S11310F0FF5F70F4A695E0F7F73950F019F0FF3A66
S113110038F49F779F930CD00F9007FC9058089564
S11311103EF018CF60E070E080E89FE308954FE769
S11311209F775F934F933F932F939ED02F913F913F
S11311304F915F9152DF05C019F40EF0FDCE46CFFA
S113114001CF2ADFC8F39638C0F707F80F92E89466
S11311502BE33AEA48EB5FE74EDF0F920F920F92D0
S11311604DB75EB70F92C0D0EEE3F1E016D04F91C9
S11311705F91EF91FF91E595EE1FFF1F49F0FE5738
S1131180E0684427EE0F441FFA95E1F74195550BAB
S113119032D00F9007FE26C00895DF93CF931F939C
S11311A00F93FF92EF92DF927B018C01689405C04C
S11311B0DA2EEF011EDFFE01E894A5912591359109
S11311C045915591AEF3EF0197DDFE019701A8011A
S11311D0DA9479F7DF90EF90FF900F911F91CF9100
S11311E0DF9108959B01AC0160E070E080E89FE32B
S11311F0DACDA2CEACC0D0DEE8F39923D9F3940FB4
S1131200511DBBF39150504094F059F0882332F0B3
S1131210660F771F881F91505040C1F79E3F5105BC
S113122044F7880F911D9695879597F908955F3F28
S1131230ACF0983E9CF0BB27869577956795B7955B
S113124008F4B1609395C1F7BB0F58F711F460FF30
S1131250E8CF6F5F7F4F8F4F9F4FE3CFB8CE0EF035
S113126076C070CE689468CE97DEC8F39923D1F324
S1131270C6F3DF93CF931F930F93FF92C92FDD27FC
S113128088232AF02197660F771F881FDAF720E05A
S113129030E040E85FEB9FE3883920F0803E30F097
S11312A021968F7718DDE6E6F1E003C014DDE3E96B
S11312B0F1E073DF8B01BE01EC01FB2E6F57710966
S11312C07595771F880B990BD8DD28E132E741E348
S11312D05FE38FDEAF2D9801AE01FF900F911F9158
S11312E0CF91DF9109DD3FCEFA01DC01AA0FBB1FCC
S11312F09B01AC01BF5728F4222733274427507899
S11313001FC0B75188F4AB2F002446953795279515
S1131310011CA395D2F3002069F0220F331F441F50
S1131320B395DAF30DD0D6CC61307105A0E88A0705
S1131330B94630F49B01AC0166277727882790785B
S1131340309621F0208331834283538308959F3F55
S113135031F0915020F4879577956795B795880F6C
S1131360911D9695879597F90895EE0FFF1F0590A7
S1131370F491E02D09940024A7FD00942A0F301D58
S1131380401D501D601D701D801D901D0895CF933C
S1131390DF938230910510F482E090E0E091270120
S11313A0F091280120E030E0A0E0B0E0309739F17E
S11313B04081518148175907B8F04817590771F40B
S11313C082819381109729F013969C938E931297A0
S11313D02CC0909328018093270127C02115310543
S11313E031F04217530718F0A901DB0101C0EF01E6
S11313F09A01BD01DF010280F381E02DD7CF2115D1
S11314003105F9F0281B390B2430310580F48A8129
S11314109B816115710521F0FB019383828304C0D4
S11314209093280180932701FE01329644C0FE0167
S1131430E20FF31F8193919322503109398328835A
S11314403AC02091250130912601232B41F42091AB
S1131450020130910301309326012093250120914C
S11314600001309101012115310541F42DB73EB73A
S11314704091040150910501241B350BE091250195
S1131480F0912601E217F307A0F42E1B3F0B281757
S1131490390778F0AC014E5F5F4F2417350748F0E9
S11314A04E0F5F1F50932601409325018193919322
S11314B002C0E0E0F0E0CF01DF91CF910895CF9337
S11314C0DF93009709F487C0FC01329713821282DC
S11314D0C0912701D0912801209781F42081318186
S11314E0280F391F809125019091260182179307B7
S11314F079F5F0932601E09325016DC0DE0120E02B
S113150030E0AE17BF0750F412964D915C911397DB
S11315109D014115510509F1DA01F3CFB383A2838B
S113152040815181840F951F8A179B0771F48D9117
S11315309C911197840F951F029691838083129634
S11315408D919C911397938382832115310529F4FE
S1131550F0932801E09327013EC0D9011396FC9330
S1131560EE9312974D915D91A40FB51FEA17FB07F7
S113157079F480819181840F951F0296D901119687
S11315809C938E938281938113969C938E9312974E
S1131590E0E0F0E08A819B81009719F0FE01EC0104
S11315A0F9CFCE01029628813981820F931F2091B1
S11315B02501309126012817390769F4309729F459
S11315C0109228011092270102C013821282D09334
S11315D02601C0932501DF91CF910895F894FFCFA0
S10B15E00000290120000101B3
S9030000FC
