S013000053656E736F725F6D61696E2E7372656393
S113000096C00000B1C00000AFC00000ADC0000049
S1130010ABC00000A9C00000A7C00000A5C000003C
S1130020A3C00000A1C000009FC000009DC000004C
S11300309BC0000099C0000097C0000006C20000E9
S113004093C0000091C000008FC000008DC000006C
S11300508BC0000089C0000087C0000085C000007C
S113006083C0000081C00000A5C000007DC0000066
S11300707BC0000079C0000077C0000075C000009C
S113008073C0000071C000006FC00000FA0043019B
S1130090430143014301430143014301020143017D
S11300A04301430143014301430143010B01430164
S11300B0430143014301430143014301130143014C
S11300C0430143014301430143014301150143013A
S11300D043014301430143014301430143014301FC
S11300E043014301430143014301430143014301EC
S11300F043014301430143014301430134014301EB
S113010043014301430143014301430143014301CB
S11301104301430143014301430143013E014301C0
S113012043014301430143014301430138011124C5
S11301301FBECFEFD0E4DEBFCDBF11E0A0E0B1E041
S1130140E8E5F8E000E00BBF02C007900D92A8308C
S1130150B107D9F721E0A8E0B1E001C01D92AE31AA
S1130160B207E1F7BDD076C34BCFCF93C82F83E955
S113017090E049D2FC01118210821382128215820E
S11301801482178216821186108613861286DC0169
S1130190AE56BF4FCC93CF91089585EA8093BC00AF
S11301A010920701089585E98093BC0081E0809353
S11301B0070108951F920F920FB60F9211240BB6E8
S11301C00F922F933F934F935F936F937F938F93EC
S11301D09F93AF93BF93EF93FF938091B900887F70
S11301E090E0FC013897E135F10508F04CC0EA5B7A
S11301F0FF4FF7C180910A018093BB0085E880938B
S1130200BC0041C080910A018F5F8093BB0085E8E8
S11302108093BC0038C080910B018093BB0085E8BB
S11302208093BC0030C0BFDF2EC0809106018823BC
S1130230C9F08091080190910901892B11F4B3DF71
S113024022C080910D018093BB0085E88093BC009F
S1130250809108019091090101979093090180937D
S1130260080111C09ADF0FC085E88093BC000BC061
S11302708091BB0080930C0196DF05C08091BB0088
S113028080930C0190DFFF91EF91BF91AF919F910B
S11302908F917F916F915F914F913F912F910F902B
S11302A00BBE0F900FBE0F901F9018950097B9F0DA
S11302B0299A2FEF39E648E1215030404040E1F7D8
S11302C000C0000015B82FEF39E648E12150304056
S11302D04040E1F700C000000197009749F70895F6
S11302E0CF92DF92EF92FF920F931F93CF93DF93FE
S11302F0CDB7DEB7C359D1090FB6F894DEBF0FBE30
S1130300CDBF81E032DF6C0181E084B915B876D0CD
S11303107ED085E07FD02FE38DE093E021508040B4
S11303209040E1F700C0000060E070E080E091E4FC
S1130330CAD0789481E090E0F6019183808382E0D2
S113034090E09383828383E090E09583848384E0C8
S113035090E09783868385E090E09187808786E0AC
S113036090E09387828787E090E09587848788E090
S113037090E09787868789E090E0918B808BD60107
S1130380529620E030E02D933D932F5F3F4F203471
S11303903105C9F783E9F601DE01119601900D924A
S11303A08A95E1F780E02DD08A3A61F481E090E00B
S11303B07DDF08C0F80181918F0123D00E151F0540
S11303C0C9F708C08E010F5F1F4F7E01F4E9EF0EDD
S11303D0F11CF0CFC601AFD180E090E0CD56DF4FE5
S11303E00FB6F894DEBF0FBECDBFDF91CF911F9142
S11303F00F91FF90EF90DF90CF90089580E48CBD33
S113040008958EBD0DB407FEFDCF8EB5089587E423
S113041084B908958823C1F090E0289A2FE936E83A
S113042041E0215030404040E1F700C0000015B8E1
S11304302FE936E841E0215030404040E1F700C068
S113044000009F5F9813E9CF08951F920F920FB693
S11304500F9211242F933F934F935F936F937F9346
S11304608F939F93AF932091120130911301409188
S1130470140150911501609116017091170180913A
S1130480180190911901A1E0B2D020931201309388
S11304901301409314015093150160931601709356
S11304A017018093180190931901AF919F918F9137
S11304B07F916F915F914F913F912F910F900FBE5C
S11304C00F901F901895CF92DF92EF92FF926B01DD
S11304D07C01E0E8F0E08081808320E030E040E8C7
S11304E05FE3C701B60155D0811106C0E1E8F0E031
S11304F08081816080831EC020E030E040E051E4D0
S1130500C701B60146D0811106C0E1E8F0E0808160
S1130510826080831EC020E030E040E852E4C701DE
S1130520B60137D0811106C0E1E8F0E08081836034
S113053080831DC020E030E040E853E4C701B601E9
S113054028D0811106C0E1E8F0E0808184608083D6
S11305500EC020E030E040E854E4C701B60119D0F1
S1130560811105C0E1E8F0E0808185608083C0925C
S11305700E01D0920F01E0921001F0921101EFE60A
S1130580F0E0808181608083FF90EF90DF90CF90D6
S1130590089503D008F481E00895990F0008550FD9
S11305A0AA0BE0E8FEEF16161706E807F907C0F0F5
S11305B012161306E407F50798F0621B730B840BFD
S11305C0950B39F40A2661F0232B242B252B21F4D7
S11305D008950A2609F4A140A6958FEF811D811D77
S11305E00895EE0FFF1F0590F491E02D0994002467
S11305F0A7FD00942A0F301D401D501D601D701D65
S1130600801D901D0895CF93DF938230910510F4DF
S113061082E090E0E0911C01F0911D0120E030E0C7
S1130620A0E0B0E0309739F1408151814817590773
S1130630B8F04817590771F482819381109729F013
S113064013969C938E9312972CC090931D018093C4
S11306501C0127C02115310531F04217530718F04A
S1130660A901DB0101C0EF019A01BD01DF01028094
S1130670F381E02DD7CF21153105F9F0281B390B73
S11306802430310580F48A819B816115710521F044
S1130690FB019383828304C090931D0180931C010A
S11306A0FE01329644C0FE01E20FF31F8193919341
S11306B022503109398328833AC020911A0130919C
S11306C01B01232B41F4209102013091030130934B
S11306D01B0120931A012091000130910101211581
S11306E0310541F42DB73EB7409104015091050105
S11306F0241B350BE0911A01F0911B01E217F3075B
S1130700A0F42E1B3F0B2817390778F0AC014E5F7D
S11307105F4F2417350748F04E0F5F1F50931B019E
S113072040931A018193919302C0E0E0F0E0CF017D
S1130730DF91CF910895CF93DF93009709F487C099
S1130740FC01329713821282C0911C01D0911D01C9
S1130750209781F420813181280F391F80911A015B
S113076090911B018217930779F5F0931B01E09395
S11307701A016DC0DE0120E030E0AE17BF0750F46F
S113078012964D915C9113979D014115510509F104
S1130790DA01F3CFB383A28340815181840F951F83
S11307A08A179B0771F48D919C911197840F951F63
S11307B002969183808312968D919C9113979383D3
S11307C082832115310529F4F0931D01E0931C0166
S11307D03EC0D9011396FC93EE9312974D915D910F
S11307E0A40FB51FEA17FB0779F480819181840F68
S11307F0951F0296D90111969C938E9382819381C1
S113080013969C938E931297E0E0F0E08A819B818B
S1130810009719F0FE01EC01F9CFCE010296288170
S11308203981820F931F20911A0130911B012817DF
S1130830390769F4309729F410921D0110921C01B4
S113084002C013821282D0931B01C0931A01DF915C
S10B0850CF910895F894FFCF45
S10B085800001E012000010153
S9030000FC
