S013000053656E736F725F6D61696E2E7372656393
S113000096C00000B2C00000B0C00000AEC0000046
S1130010ACC00000AAC00000A8C00000A6C0000038
S1130020A4C00000A2C00000A0C000009EC0000048
S11300309CC000009AC0000098C0000087C5000062
S113004094C0000092C0000090C0000066C500008B
S11300508CC000008AC0000088C0000086C0000078
S113006084C0000082C00000DAC000007EC000002E
S11300707CC000007AC0000078C0000076C0000098
S113008074C0000072C0000070C000002F0178012D
S113009078017801780178017801780137017801D5
S11300A078017801780178017801780140017801BC
S11300B078017801780178017801780148017801A4
S11300C07801780178017801780178014A01780192
S11300D07801780178017801780178017801780154
S11300E07801780178017801780178017801780144
S11300F07801780178017801780178016901780143
S11301007801780178017801780178017801780123
S11301107801780178017801780178017301780118
S11301207801780178017801780178016D01112452
S11301301FBECFEFD0E4DEBFCDBF11E0A0E0B1E041
S1130140E4E2F5E100E00BBF02C007900D92A83095
S1130150B107D9F721E0A8E0B1E001C01D92A034B5
S1130160B207E1F7E4D40C94900A4ACFCF93C82F96
S113017085E391E00E946909FC01108211821282D8
S113018013821482158216821782108611861286B3
S113019013861486158616861786108A118A128A83
S11301A0138A148A158A168A178A108E118E128E53
S11301B0138E148E158E168E178E10A211A212A2F3
S11301C013A214A215A216A217A210A611A612A673
S11301D013A614A615A616A617A6DC01A05DBE4F8D
S11301E0CC931196CC931196CC931196CC93CF913A
S11301F008951092B90082E98093B80085E0809355
S1130200BC00089585EA8093BC001092070108950C
S113021085E98093BC0081E08093070108951F92D3
S11302200F920FB60F9211240BB60F922F933F9398
S11302304F935F936F937F938F939F93AF93BF93EA
S1130240EF93FF938091B900887F90E0FC01389789
S1130250E135F10508F04CC0EA5BFF4FFDC7809122
S11302602C018093BB0085E88093BC0041C0809141
S11302702C018F5F8093BB0085E88093BC0038C05D
S113028080912D018093BB0085E88093BC0030C031
S1130290BFDF2EC0809106018823C9F080910A0136
S11302A090910B01892B11F4B3DF22C080912F01AF
S11302B08093BB0085E88093BC0080910A019091F3
S11302C00B01019790930B0180930A0111C09ADFEF
S11302D00FC085E88093BC000BC08091BB00809365
S11302E02E0196DF05C08091BB0080932E0190DF24
S11302F0FF91EF91BF91AF919F918F917F916F91FA
S11303005F914F913F912F910F900BBE0F900FBEB5
S11303100F901F901895909107019923E1F3309362
S11303200B0120930A0160932D0180932C014093CB
S11303302F0181E08093060165CF08959091070114
S11303409923E1F3509309014093080160932D012F
S113035080932C011092060155DF809107018823B8
S1130360E1F380912E0108950097B9F0289A2FEFB8
S113037039E648E1215030404040E1F700C0000038
S113038015B82FEF39E648E1215030404040E1F7FD
S113039000C000000197009749F708950097B9F04D
S11303A0299A2FEF39E648E1215030404040E1F7E7
S11303B000C0000015B82FEF39E648E12150304065
S11303C04040E1F700C000000197009749F7089505
S11303D00097B9F02A9A2FEF39E648E121503040CE
S11303E04040E1F700C0000015B82FEF39E648E1BE
S11303F0215030404040E1F700C0000001970097D1
S113040049F7089521E030E047E560E282E383DFC5
S11304108FE39CE90197F1F700C00000089521E003
S113042030E04FE060E286ED76DF8FE39CE90197F0
S1130430F1F700C000000895262F30E0322F222764
S1130440282BB90175956795759567957595679589
S113045075956795882777FD8095982FACD521ED04
S113046032E24DE151E495D62FE632E143E85AE316
S113047090C608950F931F93CF93DF93EC01E096FA
S113048010E841E050E0612F82ED58DF082F61E071
S1130490610F41E050E082ED51DF682F70E0762F6C
S11304A06627600F711D882777FD8095982F83D567
S11304B020E030E040E85EE36CD669937993899359
S11304C099931E5FF1F6DF91CF911F910F910895DB
S11304D08F929F92AF92BF92CF92DF92EF92FF9250
S11304E01F93CF93DF93EC0141E050E068E282E395
S11304F025DF182F8FE99FE00197F1F700C0000076
S113050041E050E069E282E319DF682F812F94DF34
S11305104B015C0141E050E06AE282E30FDF182FF7
S11305208FE99FE00197F1F700C0000041E050E03F
S11305306BE282E303DF682F812F7EDF6B017C0196
S113054041E050E06CE282E3F9DE182F8FE99FE08E
S11305500197F1F700C0000041E050E06DE282E352
S1130560EDDE682F812F68DF88829982AA82BB82A0
S1130570CC82DD82EE82FF82688779878A879B87B7
S1130580DF91CF911F91FF90EF90DF90CF90BF90BC
S1130590AF909F908F9008954F925F926F927F9249
S11305A08F929F92AF92BF92CF92DF92EF92FF927F
S11305B00F931F93CF93DF9381E0D8DDEC0104E622
S11305C010E0C12CD12C76014601570126013701D8
S11305D0CE017EDF288139814A815B81C301B2016A
S11305E018D42B013C012C813D814E815F81C501D2
S11305F0B4010FD44B015C01288539854A855B859C
S1130600C701B60106D46B017C0101501109011523
S11306101105F1F620E030E048EC52E4C301B201E8
S113062060D460931C0170931D0180931E0190930C
S11306301F0120E030E048EC52E4C501B40151D47C
S1130640609318017093190180931A0190931B0110
S113065020E030E048EC52E4C701B60142D4609394
S11306601401709315018093160190931701CE0124
S1130670C8D68FE39CE90197F1F700C00000DF9131
S1130680CF911F910F91FF90EF90DF90CF90BF908B
S1130690AF909F908F907F906F905F904F90089550
S11306A0CF92DF92EF92FF920F931F93CF93DF933A
S11306B0EC0141E050E068E286ED40DED82E8FE99F
S11306C09FE00197F1F700C0000041E050E069E2CB
S11306D086ED34DEC82E41E050E06AE286ED2EDE7F
S11306E0F82E8FE99FE00197F1F700C0000041E088
S11306F050E06BE286ED22DEE82E41E050E06CE251
S113070086ED1CDE182F8FE99FE00197F1F700C0FA
S1130710000041E050E06DE286ED10DE082F6C2D04
S113072070E0762F66276D0D711D882777FD809503
S1130730982F41D429E23CE54FE05CE32AD56C874D
S11307407D878E879F876E2D70E0762F66276F0DCD
S1130750711D882777FD8095982F2DD429E23CE5DB
S11307604FE05CE316D5688B798B8A8B9B8B602F6B
S113077070E0762F6627610F711D882777FD8095BD
S1130780982F19D429E23CE54FE05CE302D56C8B49
S11307907D8B8E8B9F8BDF91CF911F910F91FF905B
S11307A0EF90DF90CF9008954F925F926F927F9277
S11307B08F929F92AF92BF92CF92DF92EF92FF926D
S11307C00F931F93CF93DF9381E0D0DCEC0104E619
S11307D010E0C12CD12C76014601570126013701C6
S11307E0CE015EDF2C853D854E855F85C301B20158
S11307F010D32B013C01288939894A895B89C501B9
S1130800B40107D34B015C012C893D894E895F8972
S1130810C701B601FED26B017C010150110901151B
S11308201105F1F620E030E048EC52E4C301B201D6
S113083058D3609328017093290180932A019093DF
S11308402B0120E030E048EC52E4C501B40149D367
S113085060932401709325018093260190932701CE
S113086020E030E048EC52E4C701B6013AD360938B
S11308702001709321018093220190932301CE01E2
S1130880C0D58FE39CE90197F1F700C00000DF9128
S1130890CF911F910F91FF90EF90DF90CF90BF9079
S11308A0AF909F908F907F906F905F904F9008953E
S11308B0A9DDB5DD79DF70CE089581E084B915B87E
S11308C098DC3ED17894F4DF3ED181E090E04CDDB9
S11308D081E090E063DD81E090E07ADD60E070E04B
S11308E080E091E471C10895CF92DF92EF92FF927C
S11308F00F931F93CF93DF93EC0141E050E068E244
S113090086ED1CDDD82E8FE99FE00197F1F700C03A
S1130910000041E050E069E286ED10DDC82E41E0C0
S113092050E06AE286ED0ADDF82E8FE99FE0019738
S1130930F1F700C0000041E050E06BE286EDFEDC20
S1130940E82E41E050E06CE286EDF8DC182F8FE9E8
S11309509FE00197F1F700C0000041E050E06DE234
S113096086EDECDC082F6C2D70E0762F66276D0D7C
S1130970711D882777FD8095982F1DD329E23CE5CA
S11309804FE05CE306D42091280130912901409185
S11309902A0150912B013CD26C877D878E879F87DB
S11309A06E2D70E0762F66276F0D711D882777FDF9
S11309B08095982F00D329E23CE54FE05CE3E9D32E
S11309C02091240130912501409126015091270165
S11309D01FD2688B798B8A8B9B8B602F70E0762F6C
S11309E06627610F711D882777FD8095982FE3D2C4
S11309F029E23CE54FE05CE3CCD320912001309127
S1130A002101409122015091230102D26C8B7D8BF4
S1130A108E8B9F8BDF91CF911F910F91FF90EF9061
S1130A20DF90CF900895CF92DF92EF92FF92CF9311
S1130A30DF93EC0159DF43D1209110013091110172
S1130A404091120150911301E4D16B017C012C857A
S1130A503D854E855F859DD320E030E040E450E441
S1130A6098D39B01AC01688D798D8A8D9B8DD1D1F2
S1130A70688F798F8A8F9B8F288939894A895B8906
S1130A80C701B60186D320E030E040E450E481D3CE
S1130A909B01AC016C8D7D8D8E8D9F8DBAD16C8F39
S1130AA07D8F8E8F9F8F2C893D894E895F89C701E9
S1130AB0B6016FD320E030E040E450E46AD39B01F8
S1130AC0AC0168A179A18AA19BA1A3D168A379A350
S1130AD08AA39BA3A701960160910C0170910D015B
S1130AE080910E0190910F0194D160930C01709349
S1130AF00D0180930E0190930F011092100110923A
S1130B0011011092120110921301C4D0DF91CF9100
S1130B10FF90EF90DF90CF9008951F920F920FB641
S1130B200F9211240F900FBE0F901F90189581E023
S1130B301DDBEC01C2DECE0176DFCE019BDCFBCFF8
S1130B4080E48CBD089587E484B908951F920F92C0
S1130B500FB60F9211242F933F934F935F936F938C
S1130B607F938F939F93AF932091340130913501FC
S1130B7040913601509137016091380170913901EB
S1130B8080913A0190913B01A1E08ED320933401EE
S1130B903093350140933601509337016093380107
S1130BA07093390180933A0190933B01AF919F91E7
S1130BB08F917F916F915F914F913F912F910F9002
S1130BC00FBE0F901F901895CF92DF92EF92FF9275
S1130BD06B017C01E0E8F0E08081808320E030E07C
S1130BE040E85FE3C701B60178D1811106C0E1E8AE
S1130BF0F0E08081816080831EC020E030E040E02E
S1130C0051E4C701B60169D1811106C0E1E8F0E001
S1130C108081826080831EC020E030E040E852E49E
S1130C20C701B6015AD1811106C0E1E8F0E0808124
S1130C30836080831DC020E030E040E853E4C701B6
S1130C40B6014BD1811106C0E1E8F0E080818460F7
S1130C5080830EC020E030E040E854E4C701B601D0
S1130C603CD1811105C0E1E8F0E08081856080839A
S1130C70C0923001D0923101E0923201F0923301FE
S1130C80EFE6F0E0808181608083FF90EF90DF9059
S1130C90CF900895109234011092350110923601CC
S1130CA010923701109238011092390110923A01D2
S1130CB010923B01109285001092840008952F92A7
S1130CC03F924F925F926F927F928F929F92AF92D8
S1130CD0BF92CF92DF92EF92FF920F931F93CF9325
S1130CE0DF9300D000D000D0CDB7DEB76090840091
S1130CF07090850020903401309035018090360149
S1130D0090903701809138018E83E0913901ED8311
S1130D1040903A0150903B01609130017091310153
S1130D20809132019091330120E034E244E75BE4A6
S1130D30D8D069837A838B839C83222D332D482DCD
S1130D40592D6E817D81842D952D07E08BD2A22CA7
S1130D50B32CC82CD92CEE80FD80042D152D9BD2EC
S1130D6001E080D2042DACD2A22EB32EC42ED52EF7
S1130D70E62EF72EE82F192F04E074D20E2FA0D2FE
S1130D80822E932E442E552EB62FA72FF82FE92FFF
S1130D9004E068D2A22EB32EC42ED52EE62EF72E52
S1130DA0082F192F282D392D442D552D6B2F7A2FCF
S1130DB08F2F9E2F70D21301A22CB32CC12CD12CB7
S1130DC0E12CF12C00E010E066D2A1E06DD22ED12E
S1130DD09B01AC0169817A818B819C81DAD1269651
S1130DE00FB6F894DEBF0FBECDBFDF91CF911F9138
S1130DF00F91FF90EF90DF90CF90BF90AF909F90B6
S1130E008F907F906F905F904F903F902F900895B8
S1130E105058BB27AA270ED082C173D130F078D1A5
S1130E2020F031F49F3F11F41EF468C10EF4E095F4
S1130E30E7FB5EC1E92F84D180F3BA176207730719
S1130E408407950718F071F49EF59CC10EF4E095A3
S1130E500B2EBA2FA02D0B01B90190010C01CA0170
S1130E60A0011124FF27591B99F0593F50F4503E1B
S1130E7068F11A16F040A22F232F342F4427585F0D
S1130E80F3CF469537952795A795F0405395C9F725
S1130E907EF41F16BA0B620B730B840BBAF09150DD
S1130EA0A1F0FF0FBB1F661F771F881FC2F70EC07C
S1130EB0BA0F621F731F841F48F48795779567954F
S1130EC0B795F7959E3F08F0B3CF9395880F08F038
S1130ED09927EE0F979587950895E6D008F481E059
S1130EE008950CD01CC114D140F00BD130F021F482
S1130EF05F3F19F0FDC0511146C100C121D198F3E3
S1130F009923C9F35523B1F3951B550BBB27AA2786
S1130F1062177307840738F09F5F5F4F220F331FF8
S1130F20441FAA1FA9F333D00E2E3AF0E0E830D0C4
S1130F3091505040E695001CCAF729D0FE2F27D0C7
S1130F40660F771F881FBB1F261737074807AB0795
S1130F50B0E809F0BB0B802DBF01FF2793585F4F0A
S1130F602AF09E3F510568F0C3C00DC15F3FECF30A
S1130F70983EDCF3869577956795B795F7959F5FCF
S1130F80C9F7880F911D9695879597F90895E1E023
S1130F90660F771F881FBB1F621773078407BA0782
S1130FA020F0621B730B840BBA0BEE1F88F7E095DD
S1130FB00895E89409C097FB3EF490958095709548
S1130FC061957F4F8F4F9F4F9923A9F0F92F96E991
S1130FD0BB279395F695879577956795B795F11106
S1130FE0F8CFFAF4BB0F11F460FF1BC06F5F7F4FA3
S1130FF08F4F9F4F16C0882311F096E911C07723B5
S113100021F09EE8872F762F05C0662371F096E8BD
S1131010862F70E060E02AF09A95660F771F881F8C
S1131020DAF7880F9695879597F90895E894F92F3C
S113103096EBFF2381F0121613061406440B9395C6
S1131040F69587957795679557954040FF23B9F7AF
S11310501BC099270895882351F49850D2F7872B01
S1131060762F652F542F432F322F20E0B1F3121621
S113107013061406440B88233AF09A95440F551F1F
S1131080661F771F881FCAF755234AF4440F551F5C
S113109011F460FF04C06F5F7F4F8F4F9F4F880F25
S11310A09695879597F90895990F0008550FAA0BFF
S11310B0E0E8FEEF16161706E807F907C0F0121667
S11310C01306E407F50798F0621B730B840B950B6A
S11310D039F40A2661F0232B242B252B21F40895BF
S11310E00A2609F4A140A6958FEF811D811D08955C
S11310F097F99F6780E870E060E008959FEF80ECC7
S1131100089500240A941616170618060906089569
S113111000240A9412161306140605060895092ECF
S11311200394000C11F4882352F0BB0F40F4BF2B3E
S113113011F460FF04C06F5F7F4F8F4F9F4F08957E
S113114057FD9058440F551F59F05F3F71F0479574
S1131150880F97FB991F61F09F3F79F08795089559
S1131160121613061406551FF2CF4695F1DF08C078
S1131170161617061806991FF1CF86957105610595
S113118008940895E894BB2766277727CB0197F93D
S113119008950BD0C4CFB5DF28F0BADF18F095233B
S11311A009F0A6CFABCF1124EECFCADFA0F3959FF1
S11311B0D1F3950F50E0551F629FF001729FBB273A
S11311C0F00DB11D639FAA27F00DB11DAA1F649FE6
S11311D06627B00DA11D661F829F2227B00DA11D99
S11311E0621F739FB00DA11D621F839FA00D611D1F
S11311F0221F749F3327A00D611D231F849F600D40
S1131200211D822F762F6A2F11249F5750408AF078
S1131210E1F088234AF0EE0FFF1FBB1F661F771F04
S1131220881F91505040A9F79E3F510570F060CF40
S1131230AACF5F3FECF3983EDCF3869577956795EC
S1131240B795F795E7959F5FC1F7FE2B880F911D22
S11312509695879597F90895EE0FFF1F0590F491E1
S1131260E02D09940F93083090F0982F872F762F54
S1131270652F542F432F322F22270850F4CF220FEB
S1131280331F441F551F661F771F881F991F0A9518
S1131290B2F70F9108952A0D3B1D4C1D5D1D6E1D67
S11312A07F1D801F911F08950024A7FD00942A0F1D
S11312B0301D401D501D601D701D801D901D089522
S11312C02A193B094C095D096E097F09800B910BB2
S11312D00895CF93DF938230910510F482E090E07B
S11312E0E0913E01F0913F0120E030E0A0E0B0E069
S11312F0309739F14081518148175907B8F04817A0
S1131300590771F482819381109729F013969C9365
S11313108E9312972CC090933F0180933E0127C077
S11313202115310531F04217530718F0A901DB01EB
S113133001C0EF019A01BD01DF010280F381E02DBC
S1131340D7CF21153105F9F0281B390B243031058D
S113135080F48A819B816115710521F0FB019383DF
S1131360828304C090933F0180933E01FE01329634
S113137044C0FE01E20FF31F81939193225031097F
S1131380398328833AC020913C0130913D01232BBD
S113139041F4209102013091030130933D012093E7
S11313A03C0120910001309101012115310541F4E6
S11313B02DB73EB74091040150910501241B350B14
S11313C0E0913C01F0913D01E217F307A0F42E1BDC
S11313D03F0B2817390778F0AC014E5F5F4F241795
S11313E0350748F04E0F5F1F50933D0140933C0179
S11313F08193919302C0E0E0F0E0CF01DF91CF91BF
S11314000895CF93DF93009709F487C0FC013297C6
S113141013821282C0913E01D0913F01209781F442
S113142020813181280F391F80913C0190913D0129
S11314308217930779F5F0933D01E0933C016DC069
S1131440DE0120E030E0AE17BF0750F412964D9154
S11314505C9113979D014115510509F1DA01F3CF10
S1131460B383A28340815181840F951F8A179B0700
S113147071F48D919C911197840F951F029691831D
S1131480808312968D919C91139793838283211567
S1131490310529F4F0933F01E0933E013EC0D901A8
S11314A01396FC93EE9312974D915D91A40FB51F83
S11314B0EA17FB0779F480819181840F951F0296C6
S11314C0D90111969C938E938281938113969C9358
S11314D08E931297E0E0F0E08A819B81009719F0E7
S11314E0FE01EC01F9CFCE01029628813981820FE9
S11314F0931F20913C0130913D012817390769F46D
S1131500309729F410923F0110923E0102C01382D9
S11315101282D0933D01C0933C01DF91CF91089595
S1071520F894FFCF69
S10B1524000040012000010158
S9030000FC
