S013000053656E736F725F6D61696E2E7372656393
S1130000DEC00000FBC00000F9C00000F7C0000023
S1130010F5C00000F3C00000F1C00000EFC0000014
S1130020EDC00000EBC00000E9C00000E7C0000024
S1130030E5C00000E3C00000E1C000000C94130A16
S1130040DDC00000DBC00000D9C000000C946309CF
S1130050D5C00000D3C00000D1C00000CFC0000054
S11300600C949709CBC00000E0C00000C7C000009A
S1130070C5C00000C3C00000C1C00000BFC0000074
S1130080BDC00000BBC00000B9C0000036017F0144
S11300907F017F017F017F017F017F013E017F019D
S11300A07F017F017F017F017F017F0147017F0184
S11300B07F017F017F017F017F017F014F017F016C
S11300C07F017F017F017F017F017F0151017F015A
S11300D07F017F017F017F017F017F017F017F011C
S11300E07F017F017F017F017F017F017F017F010C
S11300F07F017F017F017F017F017F0170017F010B
S11301007F017F017F017F017F017F017F017F01EB
S11301107F017F017F017F017F017F017A017F01E0
S11301207F017F017F017F017F017F01740133091A
S1130130D1083408B0080D08720802090763423672
S1130140B79BD8A71A39685618AEBAAB558C1D3C64
S1130150B7CC5763BD6DEDFD753EF6177231BF0028
S11301600000803F08000000BE922449123EABAA62
S1130170AA2ABECDCCCC4C3E00000080BEABAAAABD
S1130180AA3E00000000BF000000803F0000000005
S113019000084178D3BB4387D1133D190E3CC3BD3E
S11301A04282AD2B3E68EC8276BED98FE1A93E4CEB
S11301B080EFFFBE01C4FF7F3F0000000000112458
S11301C01FBECFEFD0E4DEBFCDBF11E0A0E0B1E0B1
S11301D0EAE2F1E200E00BBF02C007900D92A83002
S11301E0B107D9F721E0A8E0B1E001C01D92A9341C
S11301F0B207E1F70E94D4090C94931001CF109236
S1130200B90082E98093B80085E08093BC0008952A
S113021085EA8093BC0010920701089585E98093D4
S1130220BC0081E08093070108951F920F920FB6DE
S11302300F9211240BB60F922F933F934F935F931A
S11302406F937F938F939F93AF93BF93EF93FF939A
S11302508091B900887F90E0FC013897E135F10581
S113026008F04DC0EA5BFF4F0C942F0F80912D01D5
S11302708093BB0085E88093BC0041C080912D0130
S11302808F5F8093BB0085E88093BC0038C0809169
S11302902E018093BB0085E88093BC0030C0BEDF94
S11302A02EC0809106018823C9F080910A019091A3
S11302B00B01892B11F4B2DF22C0809130018093AD
S11302C0BB0085E88093BC0080910A0190910B01EA
S11302D0019790930B0180930A0111C099DF0FC01D
S11302E085E88093BC000BC08091BB0080932F01F4
S11302F095DF05C08091BB0080932F018FDFFF91B4
S1130300EF91BF91AF919F918F917F916F915F9189
S11303104F913F912F910F900BBE0F900FBE0F90F6
S11303201F901895909107019923E1F330930B01E5
S113033020930A0160932E0180932D014093300194
S113034081E08093060164CF089590910701992379
S1130350E1F3509309014093080160932E018093C7
S11303602D011092060154DF809107018823E1F3E7
S113037080912F0108950097B9F0289A2FEF39E65C
S113038048E1215030404040E1F700C0000015B87A
S11303902FEF39E648E1215030404040E1F700C0FA
S11303A000000197009749F708950097B9F0299A3A
S11303B02FEF39E648E1215030404040E1F700C0DA
S11303C0000015B82FEF39E648E121503040404095
S11303D0E1F700C000000197009749F708950097DE
S11303E0B9F02A9A2FEF39E648E1215030404040D5
S11303F0E1F700C0000015B82FEF39E648E12150BD
S113040030404040E1F700C000000197009749F7F1
S11304100895CF93C82F8BE391E00E946C0FDC0109
S11304201D921D921D921C92139714961D921D925B
S11304301D921C92179718961D921D921D921C9244
S11304401B971C961D921D921D921C921F975096ED
S11304501D921D921D921C92539754961D921D92AB
S11304601D921C92579758961D921D921D921C9294
S11304705B975C961D921D921D921C925F979096BD
S11304801D921D921D921C92939794961D921D92FB
S11304901D921C92979798961D921D921D921C92E4
S11304A09B979C961D921D921D921C929F97D0968D
S11304B01D921D921D921C92D397FC01F49620E08C
S11304C030E011921192119211922F5F3F4F20341C
S11304D03105B9F7FD01EC5CFE4FC0833196C08352
S11304E03196C0833196C0833196C0833196C083E0
S11304F03196C083CD01CF91089521E030E040E0F2
S113050062E082ED0FDF8FE39CE90197F1F700C011
S11305100000089521E030E047E560E282E302DF75
S11305208FE39CE90197F1F700C00000089521E0F2
S113053030E04FE060E286EDF5DE8FE39CE9019761
S1130540F1F700C0000021E030E040E063E286ED16
S1130550E9DE8FE39CE90197F1F700C000000895FC
S1130560262F30E0322F2227282BB9017595679565
S1130570759567957595679575956795882777FD42
S11305808095982F0E94790C21ED32E24DE151E4DF
S11305900E94670D2FE632E143E85AE30C94670D9D
S11305A008954F925F926F927F928F929F92AF9233
S11305B0BF92CF92DF92EF92FF92BC0180E090E075
S11305C00E94770C6B017C0120E030E040E850E4AD
S11305D00E94CA0D4B015C0120E030E040E450E48D
S11305E0C701B6010E94CA0D2B013C0126EA34E87A
S11305F040EF51E3C501B4010E94670D4B015C015A
S11306002CEA35EC47E257EBC301B2010E94670DB7
S11306109B01AC01C501B4010E94760B4B015C0146
S1130620A7019601C701B6010E94670D24E330E8D3
S113063047EB5BE30E94670D9B01AC01C501B4016C
S11306400E94760B4B015C0122E03CEB45EB5FEB37
S1130650C701B6010E94670D9B01AC01C501B4013D
S11306600E94760B22E538E34EE153E40E94760BB8
S1130670FF90EF90DF90CF90BF90AF909F908F90BE
S11306807F906F905F904F9008950F931F93CF9337
S1130690DF93EC01E49610E841E050E0612F82ED35
S11306A054DE082F61E0610F41E050E082ED4DDE41
S11306B0682F70E0762F6627600F711D882777FDFD
S11306C08095982F0E94790C20E030E040E85EE3AA
S11306D00E94670D69937993899399931E5FE1F65C
S11306E0DF91CF911F910F9108958F929F92AF92B6
S11306F0BF92CF92DF92EF92FF921F93CF93DF933B
S1130700EC0141E050E068E282E31FDE182F8FE93C
S11307109FE00197F1F700C0000041E050E069E27A
S113072082E313DE682F812F1BDF4B015C0141E064
S113073050E06AE282E309DE182F8FE99FE0019717
S1130740F1F700C0000041E050E06BE282E3FDDD20
S1130750682F812F05DF6B017C0141E050E06CE2E2
S113076082E3F3DD182F8FE99FE00197F1F700C0D2
S1130770000041E050E06DE282E3E7DD682F812F65
S1130780EFDE88829982AA82BB82CC82DD82EE82ED
S1130790FF82688779878A879B87DF91CF911F9132
S11307A0FF90EF90DF90CF90BF90AF909F908F908D
S11307B008954F925F926F927F928F929F92AF9221
S11307C0BF92CF92DF92EF92FF920F931F93CF933A
S11307D0DF9381E01EDEEC0104E610E0C12CD12C95
S11307E076014601570126013701CE017EDF2881BB
S11307F039814A815B81C301B20178D72B013C0165
S11308002C813D814E815F81C501B4016FD74B01BD
S11308105C01288539854A855B85C701B60166D7A1
S11308206B017C010150110901151105F1F620E05D
S113083030E048EC52E4C301B201C0D760931D011B
S113084070931E0180931F019093200120E030E0FB
S113085048EC52E4C501B401B1D760931901709317
S11308601A0180931B0190931C0120E030E048ECB6
S113087052E4C701B601A2D7609315017093160123
S11308808093170190931801CE010E9404108FE306
S11308909CE90197F1F700C00000DF91CF911F910F
S11308A00F91FF90EF90DF90CF90BF90AF909F900B
S11308B08F907F906F905F904F9008954F925F92CA
S11308C06F927F928F929F92AF92BF92CF92DF925C
S11308D0EF92FF92CF93DF93EC0141E050E068E2A6
S11308E082E333DDF82E8FE99FE00197F1F700C032
S11308F0000041E050E069E282E327DD682F8F2D9C
S11309002FDE2B013C0141E050E06AE282E31DDD71
S1130910F82E8FE99FE00197F1F700C0000041E055
S113092050E06BE282E311DD682F8F2D19DE4B015D
S11309305C0141E050E06CE282E307DDF82E8FE9D0
S11309409FE00197F1F700C0000041E050E06DE244
S113095082E3FBDC682F8F2D03DE6B017C01209189
S11309601D0130911E0140911F0150912001C301CE
S1130970B201BBD6DC01CB01B05888839983AA832A
S1130980BB832091190130911A0140911B015091B0
S11309901C01C501B401A9D6DC01CB01B0588C837C
S11309A09D83AE83BF832091150130911601409140
S11309B0170150911801C701B60197D6DC01CB018C
S11309C0B05888879987AA87BB87E12CF12C2AE045
S11309D037ED43E25CE3688179818A819B81EAD6C1
S11309E0882324F4188219821A821B829FEFE91A41
S11309F0F90A249683E0E816F10449F7DF91CF91D0
S1130A00FF90EF90DF90CF90BF90AF909F908F902A
S1130A107F906F905F904F900895CF92DF92EF9206
S1130A20FF92CF93DF93EC0149DFB6D520910D01FE
S1130A3030910E0140910F015091100157D66B0176
S1130A407C0160930D0170930E0180930F019093CC
S1130A501001288139814A815B810E94670D9B01C5
S1130A60AC0168A579A58AA59BA540D668A779A7F6
S1130A708AA79BA72C813D814E815F81C701B60166
S1130A800E94670D9B01AC016CA57DA58EA59FA559
S1130A902DD66CA77DA78EA79FA7288539854A8563
S1130AA05B85C701B6010E94670D9B01AC0168A973
S1130AB079A98AA99BA91AD668AB79AB8AAB9BABF7
S1130AC0A7019601609111017091120180911301A7
S1130AD0909114010BD660931101709312018093CD
S1130AE013019093140110920D0110920E011092B3
S1130AF00F01109210013BD5DF91CF91FF90EF9041
S1130B00DF90CF900895CF92DF92EF92FF920F93F0
S1130B101F93CF93DF93EC0141E050E068E286ED50
S1130B2014DCD82E8FE99FE00197F1F700C0000094
S1130B3041E050E069E286ED08DCC82E41E050E077
S1130B406AE286ED02DCF82E8FE99FE00197F1F767
S1130B5000C0000041E050E06BE286EDF6DBE82ED9
S1130B6041E050E06CE286EDF0DB182F8FE99FE066
S1130B700197F1F700C0000041E050E06DE286ED1E
S1130B80E4DB082F6C2D70E0762F66276D0D711D48
S1130B90882777FD8095982FACD629E23CE54FE075
S1130BA05CE395D76C877D878E879F876E2D70E079
S1130BB0762F66276F0D711D882777FD8095982FF6
S1130BC098D629E23CE54FE05CE381D7688B798BCA
S1130BD08A8B9B8B602F70E0762F6627610F711DC7
S1130BE0882777FD8095982F84D629E23CE54FE04D
S1130BF05CE36DD76C8B7D8B8E8B9F8BDF91CF915C
S1130C001F910F91FF90EF90DF90CF9008954F9236
S1130C105F926F927F928F929F92AF92BF92CF9288
S1130C20DF92EF92FF920F931F93CF93DF9381E0B4
S1130C30F0DBEC0104E610E0C12CD12C7601460176
S1130C40570126013701CE015EDF2C853D854E8597
S1130C505F85C301B2014AD52B013C01288939893A
S1130C604A895B89C501B40141D54B015C012C89DA
S1130C703D894E895F89C701B60138D56B017C0176
S1130C800150110901151105F1F620E030E048EC9E
S1130C9052E4C301B20192D56093290170932A01F1
S1130CA080932B0190932C0120E030E048EC52E437
S1130CB0C501B40183D56093250170932601809307
S1130CC027019093280120E030E048EC52E4C7016A
S1130CD0B60174D56093210170932201809323019E
S1130CE090932401CE010E9404108FE39CE90197A4
S1130CF0F1F700C00000DF91CF911F910F91FF9099
S1130D00EF90DF90CF90BF90AF909F908F907F90A7
S1130D106F905F904F900895F0DB8BE880937A009A
S1130D20F9DB05DC74DF45CD089581E084B915B89D
S1130D3066DA69D37894F0DF73D381E090E04FDB17
S1130D4081E090E032DB60E070E080E091E4A9C3F0
S1130D500895CF92DF92EF92FF920F931F93CF9358
S1130D60DF93EC0141E050E068E286EDEEDAD82E44
S1130D708FE99FE00197F1F700C0000041E050E0E7
S1130D8069E286EDE2DAC82E41E050E06AE286EDDF
S1130D90DCDAF82EEFE9FFE03197F1F700C000004C
S1130DA041E050E06BE286EDD0DAE82E41E050E01D
S1130DB06CE286EDCADA182F8FE99FE00197F1F70C
S1130DC000C0000041E050E06DE286EDBEDA082F7D
S1130DD06C2D70E0762F66276D0D711D882777FDC9
S1130DE08095982F86D529E23CE54FE05CE36FD6E9
S1130DF02091290130912A0140912B0150912C011D
S1130E0074D46C877D878E879F876E2D70E0762FD4
S1130E1066276F0D711D882777FD8095982F69D5FA
S1130E2029E23CE54FE05CE352D620912501309164
S1130E302601409127015091280157D4688B798B62
S1130E408A8B9B8B602F70E0762F6627610F711D54
S1130E50882777FD8095982F4CD529E23CE54FE013
S1130E605CE335D620912101309122014091230188
S1130E70509124013AD46C8B7D8B8E8B9F8B00E038
S1130E8010E07E016C857D858E859F85FFD49B0156
S1130E90772324F422273327261B370BB90188270D
S1130EA077FD8095982F25D520E030E040E85FE37A
S1130EB081D488232CF4F7011486158616861786A8
S1130EC00F5F1F4F249603301105D9F6DF91CF91A0
S1130ED01F910F91FF90EF90DF90CF900895CF92E4
S1130EE0DF92EF92FF92CF93DF93EC0132DF54D382
S1130EF0209111013091120140911301509114017C
S1130F00F5D36B017C012C853D854E855F85DFD54E
S1130F109B01AC01688D798D8A8D9B8DE7D3688F99
S1130F20798F8A8F9B8F288939894A895B89C70180
S1130F30B601CDD59B01AC016C8D7D8D8E8D9F8DC1
S1130F40D5D36C8F7D8F8E8F9F8F2C893D894E8951
S1130F505F89C701B601BBD59B01AC0168A179A12A
S1130F608AA19BA1C3D368A379A38AA39BA3A70146
S1130F70960160910D0170910E0180910F01909185
S1130F801001B4D360930D0170930E0180930F018F
S1130F9090931001109211011092120110921301FA
S1130FA010921401E4D2DF91CF91FF90EF90DF9083
S1130FB0CF900895EAE7F0E0208120642083208127
S1130FC024FDFDCF409135015091360160913701E8
S1130FD070913801FC0144A355A366A377A3089537
S1130FE0CF92DF92EF92FF920F931F93CF93DF93F1
S1130FF0CDB7DEB7CB53D1400FB6F894DEBF0FBEEA
S1131000CDBF8C014EB550E0FA013197E730F105C0
S113101008F049C1E956FF4F22C7FC01EB5CFE4FC3
S11310208081882309F43FC181E1F4D1D801D496A9
S1131030FE0131967E0181E0E80EF81E4D915D912E
S11310406D917D914193519361937193EE15FF05D9
S1131050A9F78E010F5F1F4FF80181918F01DAD13B
S11310600E151F05C9F71FC1FC01EA5CFE4F808104
S1131070882309F418C181E1CDD1F801808D918DC7
S1131080A28DB38D89839A83AB83BC83848D958D24
S1131090A68DB78D8D839E83AF83B88780A191A1E0
S11310A0A2A1B3A189879A87AB87BC87CE01019699
S11310B07C016E019DE0C90ED11CF70181917F0175
S11310C0A9D1EC14FD04C9F7F801108E118E128E0B
S11310D0138E148E158E168E178E10A211A212A2C4
S11310E013A2E1C0FC01E85CFE4F8081882309F46F
S11310F0DAC081E18FD1F80180A591A5A2A5B3A59D
S113110089839A83AB83BC8384A595A5A6A5B7A53B
S11311108D839E83AF83B88780A991A9A2A9B3A91F
S113112089879A87AB87BC87CE0101967C016E01C3
S11311309DE0C90ED11CF70181917F016BD1EC14A4
S1131140FD04C9F7F80110A611A612A613A614A649
S113115015A616A617A610AA11AA12AA13AAA3C006
S1131160FC01E75CFE4F8081882309F49CC081E187
S113117051D1F80184A195A1A6A1B7A189839A832D
S1131180AB83BC838E010F5F1F4F7E01F5E0EF0E32
S1131190F11CF80181918F013DD10E151F05C9F78E
S11311A082C0FC01E95CFE4F8081882309F47BC086
S11311B081E130D1F80180819181A281B381898359
S11311C09A83AB83BC8384819581A681B7818D8307
S11311D09E83AF83B88780859185A285B3858987EF
S11311E09A87AB87BC878E010F5F1F4F7E01FDE09E
S11311F0EF0EF11CF80181918F010CD10E151F0522
S1131200C9F751C0FC01E95CFE4F8081882309F4D1
S11312104AC081E1FFD0F80184859585A685B7850C
S113122089839A83AB83BC8380899189A289B3899A
S11312308D839E83AF83B88784899589A689B7896E
S113124089879A87AB87BC878E010F5F1F4F7E010A
S1131250FDE0EF0EF11CF80181918F01DBD00E153A
S11312601F05C9F720C0FC01EC5CFE4F8081882378
S1131270D1F081E1CFD08BE391E0F801DE0111964A
S113128001900D920197E1F78E010F5F1F4F7E01D0
S1131290F4ECEF1AFEEFFF0AF80181918F01BAD046
S11312A00E151F05C9F7C55CDE4F0FB6F894DEBFF7
S11312B00FBECDBFDF91CF911F910F91FF90EF90A3
S11312C0DF90CF9008951F920F920FB60F921124C2
S11312D00BB60F922F933F934F935F936F937F932C
S11312E08F939F93AF93BF93EF93FF9380910C01E0
S11312F081110AC081E080930C01809131019091A9
S113130032016EDE10920C01FF91EF91BF91AF910B
S11313109F918F917F916F915F914F913F912F9109
S11313200F900BBE0F900FBE0F901F9018951F9239
S11313300F920FB60F9211240BB60F922F933F9377
S11313404F935F936F937F938F939F93AF93BF93C9
S1131350EF93FF93809178002091790090E0922B95
S1131360909334018093330180913301909134013F
S113137018D96093350170933601809337019093A7
S11313803801FF91EF91BF91AF919F918F917F9120
S11313906F915F914F913F912F910F900BBE0F90E2
S11313A00FBE0F901F9018952FEF83E294EF2150FA
S11313B080409040E1F700C00000B7DC81E029D80C
S11313C0909332018093310181E090E00E94BB014F
S11313D0CED0809131019091320170DA8091310147
S11313E0909132011ADB809131019091320177DDC5
S11313F08091310190913201DDDD80913101909134
S1131400320143D9E6CF8CB580688CBD8CB580643D
S11314108CBD08958EBD0DB407FEFDCF8EB5089525
S113142087E484B908951F920F920FB60F92112486
S11314302F933F934F935F936F937F938F939F93D8
S1131440AF9320913D0130913E0140913F01509175
S1131450400160914101709142018091430190915A
S11314604401A1E024D520933D0130933E014093F3
S11314703F01509340016093410170934201809376
S1131480430190934401AF919F918F917F916F910C
S11314905F914F913F912F910F900FBE0F901F902E
S11314A01895CF92DF92EF92FF926B017C01E0E8F6
S11314B0F0E08081808320E030E040E85FE3C70112
S11314C0B60178D1811106C0E1E8F0E08081816045
S11314D080831EC020E030E040E051E4C701B60143
S11314E069D1811106C0E1E8F0E0808182608083E7
S11314F01EC020E030E040E852E4C701B6015AD1F2
S1131500811106C0E1E8F0E08081836080831DC022
S113151020E030E040E853E4C701B6014BD181112B
S113152006C0E1E8F0E08081846080830EC020E0A2
S113153030E040E854E4C701B6013CD1811105C054
S1131540E1E8F0E0808185608083C0923901D09227
S11315503A01E0923B01F0923C01EFE6F0E0808139
S113156081608083FF90EF90DF90CF900895109278
S11315703D0110923E0110923F01109240011092E1
S113158041011092420110924301109244011092C1
S113159085001092840008952F923F924F925F929B
S11315A06F927F928F929F92AF92BF92CF92DF926F
S11315B0EF92FF920F931F93CF93DF9300D000D04D
S11315C000D0CDB7DEB76090840070908500209085
S11315D03D0130903E0180903F0190904001809108
S11315E041018E83E0914201ED834090430150908C
S11315F044016091390170913A0180913B019091CD
S11316003C0120E034E244E75BE4D8D069837A8388
S11316108B839C83222D332D482D592D6E817D8102
S1131620842D952D07E021D4A22CB32CC82CD92CC1
S1131630EE80FD80042D152D31D401E016D4042D47
S113164042D4A22EB32EC42ED52EE62EF72EE82F8A
S1131650192F04E00AD40E2F36D4822E932E442E52
S1131660552EB62FA72FF82FE92F04E0FED3A22E74
S1131670B32EC42ED52EE62EF72E082F192F282D83
S1131680392D442D552D6B2F7A2F8F2F9E2F06D455
S11316901301A22CB32CC12CD12CE12CF12C00E091
S11316A010E0FCD3A1E003D45FD19B01AC016981BC
S11316B07A818B819C810BD226960FB6F894DEBF7B
S11316C00FBECDBFDF91CF911F910F91FF90EF908F
S11316D0DF90CF90BF90AF909F908F907F906F904E
S11316E05F904F903F902F9008955058BB27AA27A2
S11316F00ED0B3C1A4D130F0A9D120F031F49F3F72
S113170011F41EF499C10EF4E095E7FB8FC1E92FA3
S1131710B5D180F3BA17620773078407950718F0E9
S113172071F49EF5CDC10EF4E0950B2EBA2FA02DC9
S11317300B01B90190010C01CA01A0011124FF277A
S1131740591B99F0593F50F4503E68F11A16F04075
S1131750A22F232F342F4427585FF3CF4695379574
S11317602795A795F0405395C9F77EF41F16BA0B39
S1131770620B730B840BBAF09150A1F0FF0FBB1FE7
S1131780661F771F881FC2F70EC0BA0F621F731F30
S1131790841F48F4879577956795B795F7959E3F8D
S11317A008F0B3CF9395880F08F09927EE0F97951B
S11317B08795089517D108F481E008950CD04DC1A0
S11317C045D140F03CD130F021F45F3F19F02EC1F7
S11317D0511177C131C152D198F39923C9F35523DB
S11317E0B1F3951B550BBB27AA2762177307840710
S11317F038F09F5F5F4F220F331F441FAA1FA9F3C6
S113180033D00E2E3AF0E0E830D091505040E695B7
S1131810001CCAF729D0FE2F27D0660F771F881F18
S1131820BB1F261737074807AB07B0E809F0BB0B07
S1131830802DBF01FF2793585F4F2AF09E3F51052B
S113184068F0F4C03EC15F3FECF3983EDCF386954C
S113185077956795B795F7959F5FC9F7880F911DA1
S11318609695879597F90895E1E0660F771F881F8D
S1131870BB1F621773078407BA0720F0621B730B40
S1131880840BBA0BEE1F88F7E095089504D0689492
S1131890B11117C10895FAD088F09F5790F0B92F6D
S11318A09927B751A0F0D1F0660F771F881F991FB1
S11318B01AF0BA95C9F712C0B13081F001D1B1E084
S11318C00895FEC0672F782F8827B85F39F0B93F95
S11318D0CCF3869577956795B395D9F73EF49095B3
S11318E08095709561957F4F8F4F9F4F0895E89431
S11318F009C097FB3EF490958095709561957F4F54
S11319008F4F9F4F9923A9F0F92F96E9BB27939501
S1131910F695879577956795B795F111F8CFFAF411
S1131920BB0F11F460FF1BC06F5F7F4F8F4F9F4F42
S113193016C0882311F096E911C0772321F09EE8A0
S1131940872F762F05C0662371F096E8862F70E006
S113195060E02AF09A95660F771F881FDAF7880FE0
S11319609695879597F90895E894F92F96EBFF23B8
S113197081F0121613061406440B9395F695879579
S11319807795679557954040FF23B9F71BC0992772
S11319900895882351F49850D2F7872B762F652F1A
S11319A0542F432F322F20E0B1F3121613061406DE
S11319B0440B88233AF09A95440F551F661F771FEE
S11319C0881FCAF755234AF4440F551F11F460FFCA
S11319D004C06F5F7F4F8F4F9F4F880F96958795F9
S11319E097F90895990F0008550FAA0BE0E8FEEF48
S11319F016161706E807F907C0F012161306E407CF
S1131A00F50798F0621B730B840B950B39F40A26C7
S1131A1061F0232B242B252B21F408950A2609F4A5
S1131A20A140A6958FEF811D811D089597F99F67A9
S1131A3080E870E060E008959FEF80EC0895002452
S1131A400A941616170618060906089500240A941F
S1131A5012161306140605060895092E0394000CA5
S1131A6011F4882352F0BB0F40F4BF2B11F460FF34
S1131A7004C06F5F7F4F8F4F9F4F089557FD90585D
S1131A80440F551F59F05F3F71F04795880F97FB3E
S1131A90991F61F09F3F79F08795089512161306F8
S1131AA01406551FF2CF4695F1DF08C01616170627
S1131AB01806991FF1CF869571056105089408955C
S1131AC0E894BB2766277727CB0197F908950BD0B5
S1131AD0C4CFB5DF28F0BADF18F0952309F0A6CFFC
S1131AE0ABCF1124EECFCADFA0F3959FD1F3950FAE
S1131AF050E0551F629FF001729FBB27F00DB11D8E
S1131B00639FAA27F00DB11DAA1F649F6627B00D1D
S1131B10A11D661F829F2227B00DA11D621F739F06
S1131B20B00DA11D621F839FA00D611D221F749F14
S1131B303327A00D611D231F849F600D211D822F5B
S1131B40762F6A2F11249F5750408AF0E1F08823A2
S1131B504AF0EE0FFF1FBB1F661F771F881F9150AF
S1131B605040A9F79E3F510570F060CFAACF5F3F68
S1131B70ECF3983EDCF3869577956795B795F795E2
S1131B80E7959F5FC1F7FE2B880F911D969587956A
S1131B9097F90895FA01EE0FFF1F309621053105DC
S1131BA099F16115710561F48038BFE39B0749F130
S1131BB068949038810561F08038BFEF9B0741F04D
S1131BC0992342F5FF3FE1053105210511F1E89420
S1131BD00894E795D901AA2329F4AB2FBE2FF85F07
S1131BE0D0F310C0FF5F70F4A695E0F7F73950F01A
S1131BF019F0FF3A38F49F779F930CD00F9007FCAD
S1131C00905808953EF018CF60E070E080E89FE3BC
S1131C1008954FE79F775F934F933F932F939ED001
S1131C202F913F914F915F9152DF05C019F40EF04F
S1131C30FDCE46CF01CF2ADFC8F39638C0F707F8A8
S1131C400F92E8942BE33AEA48EB5FE74EDF0F92FA
S1131C500F920F924DB75EB70F92C0D0ECE3F1E054
S1131C6016D04F915F91EF91FF91E595EE1FFF1F05
S1131C7049F0FE57E0684427EE0F441FFA95E1F758
S1131C804195550B32D00F9007FE26C00895DF937F
S1131C90CF931F930F93FF92EF92DF927B018C01FE
S1131CA0689405C0DA2EEF011EDFFE01E894A591C9
S1131CB02591359145915591AEF3EF0128DDFE0153
S1131CC09701A801DA9479F7DF90EF90FF900F91D4
S1131CD01F91CF91DF9108959B01AC0160E070E00A
S1131CE080E89FE36BCDA2CEACC0D0DEE8F39923AD
S1131CF0D9F3940F511DBBF39150504094F059F017
S1131D00882332F0660F771F881F91505040C1F727
S1131D109E3F510544F7880F911D9695879597F935
S1131D2008955F3FACF0983E9CF0BB27869577956D
S1131D306795B79508F4B1609395C1F7BB0F58F751
S1131D4011F460FFE8CF6F5F7F4F8F4F9F4FE3CF5A
S1131D50B8CE0EF076C070CE689468CE97DEC8F325
S1131D609923D1F3C6F3DF93CF931F930F93FF927D
S1131D70C92FDD2788232AF02197660F771F881F34
S1131D80DAF720E030E040E85FEB9FE3883920F0A9
S1131D90803E30F021968F77A9DCE4E6F1E003C0C1
S1131DA0A5DCE1E9F1E073DF8B01BE01EC01FB2E60
S1131DB06F5771097595771F880B990B9ADD28E188
S1131DC032E741E35FE38FDEAF2D9801AE01FF9070
S1131DD00F911F91CF91DF919ADC3FCEFA01DC0184
S1131DE0AA0FBB1F9B01AC01BF5728F4222733273E
S1131DF0442750781FC0B75188F4AB2F0024469570
S1131E0037952795011CA395D2F3002069F0220F82
S1131E10331F441FB395DAF30DD067CC61307105DD
S1131E20A0E88A07B94630F49B01AC0166277727FE
S1131E3088279078309621F020833183428353831E
S1131E4008959F3F31F0915020F4879577956795D9
S1131E50B795880F911D9695879597F90895EE0F7C
S1131E60FF1F0590F491E02D09940F93083090F032
S1131E70982F872F762F652F542F432F322F222709
S1131E800850F4CF220F331F441F551F661F771FBE
S1131E90881F991F0A95B2F70F9108952A0D3B1DCB
S1131EA04C1D5D1D6E1D7F1D801F911F0895002414
S1131EB0A7FD00942A0F301D401D501D601D701D8C
S1131EC0801D901D08952A193B094C095D096E096E
S1131ED07F09800B910B0895CF93DF938230910596
S1131EE010F482E090E0E0914701F091480120E095
S1131EF030E0A0E0B0E0309739F1408151814817DB
S1131F005907B8F04817590771F4828193811097E3
S1131F1029F013969C938E9312972CC090934801AA
S1131F208093470127C02115310531F0421753072B
S1131F3018F0A901DB0101C0EF019A01BD01DF0125
S1131F400280F381E02DD7CF21153105F9F0281B4C
S1131F50390B2430310580F48A819B816115710528
S1131F6021F0FB019383828304C090934801809302
S1131F704701FE01329644C0FE01E20FF31F819334
S1131F80919322503109398328833AC02091450125
S1131F9030914601232B41F4209102013091030139
S1131FA030934601209345012091000130910101B5
S1131FB02115310541F42DB73EB7409104015091EC
S1131FC00501241B350BE0914501F0914601E21710
S1131FD0F307A0F42E1B3F0B2817390778F0AC0148
S1131FE04E5F5F4F2417350748F04E0F5F1F509325
S1131FF04601409345018193919302C0E0E0F0E0F3
S1132000CF01DF91CF910895CF93DF93009709F427
S113201087C0FC01329713821282C0914701D0918C
S11320204801209781F420813181280F391F809144
S11320304501909146018217930779F5F093460183
S1132040E09345016DC0DE0120E030E0AE17BF072C
S113205050F412964D915C9113979D0141155105D1
S113206009F1DA01F3CFB383A28340815181840F54
S1132070951F8A179B0771F48D919C911197840F7A
S1132080951F02969183808312968D919C9113974C
S1132090938382832115310529F4F0934801E09359
S11320A047013EC0D9011396FC93EE9312974D91CC
S11320B05D91A40FB51FEA17FB0779F48081918124
S11320C0840F951F0296D90111969C938E93828159
S11320D0938113969C938E931297E0E0F0E08A81AB
S11320E09B81009719F0FE01EC01F9CFCE01029615
S11320F028813981820F931F209145013091460137
S11321002817390769F4309729F41092480110927E
S1132110470102C013821282D0934601C093450145
S10D2120DF91CF910895F894FFCFEA
S10B212A00004901200001013D
S9030000FC
