S013000053656E736F725F6D61696E2E7372656393
S113000096C00000B1C00000AFC00000ADC0000049
S1130010ABC00000A9C00000A7C00000A5C000003C
S1130020A3C00000A1C000009FC000009DC000004C
S11300309BC0000099C0000097C0000095C000005C
S113004093C0000091C000008FC000008DC000006C
S11300508BC0000089C0000087C0000085C000007C
S113006083C0000081C00000BEC000007DC000004D
S11300707BC0000079C0000077C0000075C000009C
S113008073C0000071C000006FC0000013015C0168
S11300905C015C015C015C015C015C011B015C01B5
S11300A05C015C015C015C015C015C0124015C019C
S11300B05C015C015C015C015C015C012C015C0184
S11300C05C015C015C015C015C015C012E015C0172
S11300D05C015C015C015C015C015C015C015C0134
S11300E05C015C015C015C015C015C015C015C0124
S11300F05C015C015C015C015C015C014D015C0123
S11301005C015C015C015C015C015C015C015C0103
S11301105C015C015C015C015C015C0157015C01F8
S11301205C015C015C015C015C015C015101112416
S11301301FBECFEFD0E4DEBFCDBF11E0A0E0B1E041
S1130140EAEDFCE000E00BBF02C007900D92A8307E
S1130150B107D9F721E0A8E0B1E001C01D92A032B7
S1130160B207E1F7C0D2B7C54BCFCF93C82F8DE10B
S113017091E08AD4FC0110821182128213821482CB
S113018015821682178210861186128613861486AB
S1130190158616861786108A118A128A138A148A7B
S11301A0158A168A178A108E118E128E138EDC0110
S11301B0A45EBE4FCC93CF9108951092B90082E90A
S11301C08093B80085E08093BC00089585EA80930D
S11301D0BC0010920701089585E98093BC0081E07A
S11301E08093070108951F920F920FB60F92112466
S11301F00BB60F922F933F934F935F936F937F931D
S11302008F939F93AF93BF93EF93FF938091B90024
S1130210887F90E0FC013897E135F10508F04CC087
S1130220EA5BFF4F2BC4809118018093BB0085E8E3
S11302308093BC0041C0809118018F5F8093BB0004
S113024085E88093BC0038C0809119018093BB007D
S113025085E88093BC0030C0BFDF2EC080910601CA
S11302608823C9F080910A0190910B01892B11F424
S1130270B3DF22C080911B018093BB0085E880938B
S1130280BC0080910A0190910B01019790930B019E
S113029080930A0111C09ADF0FC085E88093BC00E7
S11302A00BC08091BB0080931A0196DF05C080913A
S11302B0BB0080931A0190DFFF91EF91BF91AF9142
S11302C09F918F917F916F915F914F913F912F916A
S11302D00F900BBE0F900FBE0F901F90189590912A
S11302E007019923E1F330930B0120930A016093F2
S11302F019018093180140931B0181E0809306014A
S113030065CF0895909107019923E1F35093090172
S1130310409308016093190180931801109206011B
S113032055DF809107018823E1F380911A01089534
S113033021E030E04FE050E060E270E086ED90E0D4
S1130340CEDF83EC99E00197F1F700C00000089537
S11303506F927F928F929F92AF92BF92CF92DF92D1
S1130360EF92FF920F931F93CF93DF93EC0141E041
S113037050E068E270E086ED90E0C4DF782E89EF0B
S113038090E00197F1F700C0000041E050E069E21D
S113039070E086ED90E0B6DF682E41E050E06AE25E
S11303A070E086ED90E0AEDF982E89EF90E0019743
S11303B0F1F700C0000041E050E06BE270E086ED30
S11303C090E0A0DF882E41E050E06CE270E086ED22
S11303D090E098DFD82E89EF90E00197F1F700C004
S11303E0000041E050E06DE270E086ED90E08ADFCD
S11303F0C82EB62CA12CB501670D711D882777FD79
S11304008095982F4CD229E23CE54FE05CE3D3D2AF
S1130410209114013091150140911601509117015A
S11304206FD16C877D878E879F87F82CE12CB7016D
S1130430690D711D882777FD8095982F30D229E2A8
S11304403CE54FE05CE3B7D22091100130911101FB
S1130450409112015091130153D1688B798B8A8B8F
S11304609B8B1C2D00E0B8016D0D711D882777FD55
S11304708095982F14D229E23CE54FE05CE39BD2AF
S113048020910C0130910D0140910E0150910F010A
S113049037D16C8B7D8B8E8B9F8BDF91CF911F918E
S11304A00F91FF90EF90DF90CF90BF90AF909F900F
S11304B08F907F906F9008956F927F928F929F920A
S11304C0AF92BF92CF92DF92EF92FF920F931F935E
S11304D0CF93DF93EC0141E050E068E270E086EDF9
S11304E090E010DF782E89EF90E00197F1F700C0DB
S11304F0000041E050E069E270E086ED90E002DF48
S1130500682E41E050E06AE270E086ED90E0FADEA9
S1130510982E89EF90E00197F1F700C0000041E0C8
S113052050E06BE270E086ED90E0ECDE882E41E076
S113053050E06CE270E086ED90E0E4DED82E89EFC6
S113054090E00197F1F700C0000041E050E06DE257
S113055070E086ED90E0D6DEC82EB62CA12CB50155
S1130560670D711D882777FD8095982F98D129E212
S11305703CE54FE05CE31FD26C877D878E879F87C5
S1130580F82CE12CB701690D711D882777FD809542
S1130590982F85D129E23CE54FE05CE30CD2688BCF
S11305A0798B8A8B9B8B1C2D00E0B8016D0D711D1E
S11305B0882777FD8095982F72D129E23CE54FE09A
S11305C05CE3F9D16C8B7D8B8E8B9F8BDF91CF910C
S11305D01F910F91FF90EF90DF90CF90BF90AF905D
S11305E09F908F907F906F9008954F925F926F923B
S11305F07F928F929F92AF92BF92CF92DF92EF92AF
S1130600FF920F931F93CF93DF9381E0AEDDEC0154
S113061004E610E0C12CD12C7601460157012601D5
S11306203701CE0149DF2C853D854E855F85C301A9
S1130630B20167D02B013C01288939894A895B8939
S1130640C501B4015ED04B015C012C893D894E8902
S11306505F89C701B60155D06B017C0101501109B6
S113066001151105F1F620E030E048EC52E4C30135
S1130670B201ABD0609314017093150180931601FD
S11306809093170120E030E048EC52E4C501B40136
S11306909CD0609310017093110180931201909388
S11306A0130120E030E048EC52E4C701B6018DD0DC
S11306B060930C0170930D0180930E0190930F01D0
S11306C0CE017AD2DF91CF911F910F91FF90EF90DD
S11306D0DF90CF90BF90AF909F908F907F906F905E
S11306E05F904F90089581E040DDEC0181E084B992
S11306F015B863DD78941CDE78DFCE0129DEFDCFEA
S11307005058BB27AA270ED01CC10DD130F012D1EE
S113071020F031F49F3F11F41EF402C10EF4E09571
S1130720E7FBF8C0E92F1ED180F3BA1762077307FD
S11307308407950718F071F49EF536C10EF4E09520
S11307400B2EBA2FA02D0B01B90190010C01CA0187
S1130750A0011124FF27591B99F0593F50F4503E32
S113076068F11A16F040A22F232F342F4427585F24
S1130770F3CF469537952795A795F0405395C9F73C
S11307807EF41F16BA0B620B730B840BBAF09150F4
S1130790A1F0FF0FBB1F661F771F881FC2F70EC093
S11307A0BA0F621F731F841F48F487957795679566
S11307B0B795F7959E3F08F0B3CF9395880F08F04F
S11307C09927EE0F9795879508950CD0BAC0B2D0AB
S11307D040F0A9D030F021F45F3F19F09BC05111D3
S11307E0E4C09EC0BFD098F39923C9F35523B1F355
S11307F0951B550BBB27AA2762177307840738F08C
S11308009F5F5F4F220F331F441FAA1FA9F333D0EA
S11308100E2E3AF0E0E830D091505040E695001C9E
S1130820CAF729D0FE2F27D0660F771F881FBB1F5A
S1130830261737074807AB07B0E809F0BB0B802D34
S1130840BF01FF2793585F4F2AF09E3F510568F080
S113085061C0ABC05F3FECF3983EDCF386957795BF
S11308606795B795F7959F5FC9F7880F911D969582
S1130870879597F90895E1E0660F771F881FBB1FDE
S1130880621773078407BA0720F0621B730B840B8B
S1130890BA0BEE1F88F7E0950895E89409C097FB1A
S11308A03EF490958095709561957F4F8F4F9F4F43
S11308B09923A9F0F92F96E9BB279395F695879587
S11308C077956795B795F111F8CFFAF4BB0F11F44A
S11308D060FF1BC06F5F7F4F8F4F9F4F16C08823F1
S11308E011F096E911C0772321F09EE8872F762F27
S11308F005C0662371F096E8862F70E060E02AF068
S11309009A95660F771F881FDAF7880F9695879553
S113091097F9089597F99F6780E870E060E008957B
S11309209FEF80EC089500240A9416161706180603
S11309300906089500240A941216130614060506DF
S11309400895092E0394000C11F4882352F0BB0F70
S113095040F4BF2B11F460FF04C06F5F7F4F8F4FD3
S11309609F4F089557FD9058440F551F59F05F3F0E
S113097071F04795880F97FB991F61F09F3F79F0BD
S113098087950895121613061406551FF2CF46953F
S1130990F1DF08C0161617061806991FF1CF8695C1
S11309A07105610508940895E894BB2766277727A5
S11309B0CB0197F908950BD0C4CFB5DF28F0BADF87
S11309C018F0952309F0A6CFABCF1124EECFCADFE0
S11309D0A0F3959FD1F3950F50E0551F629FF0014E
S11309E0729FBB27F00DB11D639FAA27F00DB11DA7
S11309F0AA1F649F6627B00DA11D661F829F222730
S1130A00B00DA11D621F739FB00DA11D621F839FB6
S1130A10A00D611D221F749F3327A00D611D231F8C
S1130A20849F600D211D822F762F6A2F11249F57DA
S1130A3050408AF0E1F088234AF0EE0FFF1FBB1FFD
S1130A40661F771F881F91505040A9F79E3F51059C
S1130A5070F060CFAACF5F3FECF3983EDCF386954D
S1130A6077956795B795F795E7959F5FC1F7FE2B47
S1130A70880F911D9695879597F90895EE0FFF1F9E
S1130A800590F491E02D0994CF93DF938230910582
S1130A9010F482E090E0E0911E01F0911F0120E04B
S1130AA030E0A0E0B0E0309739F14081518148173F
S1130AB05907B8F04817590771F482819381109748
S1130AC029F013969C938E9312972CC090931F0138
S1130AD080931E0127C02115310531F042175307B9
S1130AE018F0A901DB0101C0EF019A01BD01DF018A
S1130AF00280F381E02DD7CF21153105F9F0281BB1
S1130B00390B2430310580F48A819B81611571058C
S1130B1021F0FB019383828304C090931F0180938F
S1130B201E01FE01329644C0FE01E20FF31F8193C1
S1130B30919322503109398328833AC020911C01B2
S1130B4030911D01232B41F42091020130910301C6
S1130B5030931D0120931C0120910001309101016B
S1130B602115310541F42DB73EB740910401509150
S1130B700501241B350BE0911C01F0911D01E217C6
S1130B80F307A0F42E1B3F0B2817390778F0AC01AC
S1130B904E5F5F4F2417350748F04E0F5F1F509389
S1130BA01D0140931C018193919302C0E0E0F0E0A9
S1130BB0CF01DF91CF910895CF93DF93009709F48C
S1130BC087C0FC01329713821282C0911E01D0911A
S1130BD01F01209781F420813181280F391F8091D2
S1130BE01C0190911D018217930779F5F0931D0163
S1130BF0E0931C016DC0DE0120E030E0AE17BF07BA
S1130C0050F412964D915C9113979D014115510535
S1130C1009F1DA01F3CFB383A28340815181840FB8
S1130C20951F8A179B0771F48D919C911197840FDE
S1130C30951F02969183808312968D919C911397B0
S1130C40938382832115310529F4F0931F01E093E6
S1130C501E013EC0D9011396FC93EE9312974D9159
S1130C605D91A40FB51FEA17FB0779F48081918188
S1130C70840F951F0296D90111969C938E938281BD
S1130C80938113969C938E931297E0E0F0E08A810F
S1130C909B81009719F0FE01EC01F9CFCE01029679
S1130CA028813981820F931F20911C0130911D01ED
S1130CB02817390769F4309729F410921F0110920C
S1130CC01E0102C013821282D0931D01C0931C0125
S10D0CD0DF91CF910895F894FFCF4F
S10B0CDA0000200120000101CB
S9030000FC
