S013000053656E736F725F6D61696E2E7372656393
S1130000D7C00000F3C00000F1C00000EFC0000042
S1130010EDC00000EBC00000E9C00000E7C0000034
S1130020E5C00000E3C00000E1C00000DFC0000044
S1130030DDC00000DBC00000D9C0000080C60000A5
S1130040D5C00000D3C00000D1C00000E0C500004E
S1130050CDC00000CBC00000C9C00000C7C0000074
S11300600AC60000C3C00000D8C00000BFC0000022
S1130070BDC00000BBC00000B9C00000B7C0000094
S1130080B5C00000B3C00000B1C000002E0177016C
S113009077017701770177017701770136017701DD
S11300A07701770177017701770177013F017701C4
S11300B077017701770177017701770147017701AC
S11300C0770177017701770177017701490177019A
S11300D0770177017701770177017701770177015C
S11300E0770177017701770177017701770177014C
S11300F0770177017701770177017701680177014B
S1130100770177017701770177017701770177012B
S11301107701770177017701770177017201770120
S11301207701770177017701770177016C01076324
S11301304236B79BD8A71A39685618AEBAAB558C55
S11301401D3CB7CC5763BD6DEDFD753EF61772319E
S1130150BF000000803F08000000BE922449123E08
S1130160ABAAAA2ABECDCCCC4C3E00000080BEABCC
S1130170AAAAAA3E00000000BF000000803F0000C1
S1130180000000084178D3BB4387D1133D190E3CCE
S1130190C3BD4282AD2B3E68EC8276BED98FE1A905
S11301A03E4C80EFFFBE01C4FF7F3F000000000013
S11301B011241FBECFEFD0E4DEBFCDBF11E0A0E01D
S11301C0B1E0E2E9F7E100E00BBF02C007900D9255
S11301D0A830B107D9F721E0A8E0B1E001C01D9231
S11301E0A234B207E1F78ED50C94C70B09CF109255
S11301F0B90082E98093B80085E08093BC0008953B
S113020085EA8093BC0010920C01089585E98093DF
S1130210BC0081E080930C0108951F920F920FB6E9
S11302200F9211240BB60F922F933F934F935F932A
S11302306F937F938F939F93AF93BF93EF93FF93AA
S11302408091B900887F90E0FC013897E135F10591
S113025008F04DC0EA5BFF4F0C948E0A8091260192
S11302608093BB0085E88093BC0041C08091260147
S11302708F5F8093BB0085E88093BC0038C0809179
S113028027018093BB0085E88093BC0030C0BEDFAB
S11302902EC0809106018823C9F080910A019091B3
S11302A00B01892B11F4B2DF22C0809129018093C4
S11302B0BB0085E88093BC0080910A0190910B01FA
S11302C0019790930B0180930A0111C099DF0FC02D
S11302D085E88093BC000BC08091BB00809328010B
S11302E095DF05C08091BB00809328018FDFFF91CB
S11302F0EF91BF91AF919F918F917F916F915F919A
S11303004F913F912F910F900BBE0F900FBE0F9006
S11303101F90189590910C019923E1F330930B01F0
S113032020930A01609327018093260140932901B9
S113033081E08093060164CF089590910C01992384
S1130340E1F35093090140930801609327018093DE
S113035026011092060154DF80910C018823E1F3F9
S11303608091280108950097B9F0299A2FEF39E672
S113037048E1215030404040E1F700C0000015B88A
S11303802FEF39E648E1215030404040E1F700C00A
S113039000000197009749F708950097B9F02A9A49
S11303A02FEF39E648E1215030404040E1F700C0EA
S11303B0000015B82FEF39E648E1215030404040A5
S11303C0E1F700C000000197009749F70895CF9323
S11303D0C82F8DE291E00E94A00AFC0110821182D4
S11303E01282138214821582168217821086118655
S11303F0128613861486158616861786108A118A25
S1130400128A138A148A158A168A178A108E118EF4
S1130410128E138E148E158E168E178E10A211A2A4
S113042012A213A214A215A216A217A2DC01A85D9F
S1130430BE4FCC931196CC931196CC931196CC933A
S11304401196CC93CF91089521E030E040E062E032
S113045082ED60DF8FE39CE90197F1F700C00000B3
S1130460089521E030E047E560E282E353DF8FE363
S11304709CE90197F1F700C00000089521E030E005
S11304804FE060E286ED46DF8FE39CE90197F1F7E8
S113049000C000000895262F30E0322F2227282B99
S11304A0B901759567957595679575956795759572
S11304B06795882777FD8095982FB8D521ED32E28E
S11304C04DE151E463D62FE632E143E85AE35EC6D8
S11304D008954F925F926F927F928F929F92AF9204
S11304E0BF92CF92DF92EF92FF92BC0180E090E046
S11304F09BD56B017C0120E030E040E850E4A9D6B4
S11305004B015C0120E030E040E450E4C701B60157
S1130510A0D62B013C0126EA34E840EF51E3C501A3
S1130520B40134D64B015C012CEA35EC47E257EBBD
S1130530C301B2012BD69B01AC01C501B401A4D403
S11305404B015C01A7019601C701B6011FD624E344
S113055030E847EB5BE31AD69B01AC01C501B4015B
S113056093D44B015C0122E03CEB45EB5FEBC7010C
S1130570B6010CD69B01AC01C501B40185D422E5BA
S113058038E34EE153E480D4FF90EF90DF90CF90B6
S1130590BF90AF909F908F907F906F905F904F909F
S11305A008958F929F92AF92BF92CF92DF92EF9273
S11305B0FF921F93CF93DF93EC0141E050E068E298
S11305C082E3BBDE182F8FE99FE00197F1F700C0AB
S11305D0000041E050E069E282E3AFDE682F812F42
S11305E05ADF4B015C0141E050E06AE282E3A5DEA0
S11305F0182F8FE99FE00197F1F700C0000041E058
S113060050E06BE282E399DE682F812F44DF6B01B7
S11306107C0141E050E06CE282E38FDE182F8FE929
S11306209FE00197F1F700C0000041E050E06DE267
S113063082E383DE682F812F2EDF88829982AA824B
S1130640BB82CC82DD82EE82FF82688779878A87CB
S11306509B87DF91CF911F91FF90EF90DF90CF9018
S1130660BF90AF909F908F9008954F925F926F923A
S11306707F928F929F92AF92BF92CF92DF92EF922E
S1130680FF920F931F93CF93DF9381E0A0DEEC01E1
S113069004E610E0C12CD12C760146015701260155
S11306A03701CE017EDF288139814A815B81C30114
S11306B0B201EAD32B013C012C813D814E815F8143
S11306C0C501B401E1D34B015C01288539854A8514
S11306D05B85C701B601D8D36B017C0101501109B8
S11306E001151105F1F620E030E048EC52E4C301B5
S11306F0B20132D4609316017093170180931801EC
S11307009093190120E030E048EC52E4C501B401B3
S113071023D4609312017093130180931401909376
S1130720150120E030E048EC52E4C701B60114D4CE
S113073060930E0170930F01809310019093110147
S1130740CE0196D78FE39CE90197F1F700C0000032
S1130750DF91CF911F910F91FF90EF90DF90CF9099
S1130760BF90AF909F908F907F906F905F904F90CD
S11307700895CF92DF92EF92FF920F931F93CF933E
S1130780DF93EC0141E050E068E286EDD6DDD82E3F
S11307908FE99FE00197F1F700C0000041E050E0CD
S11307A069E286EDCADDC82E41E050E06AE286EDDA
S11307B0C4DDF82E8FE99FE00197F1F700C0000037
S11307C041E050E06BE286EDB8DDE82E41E050E018
S11307D06CE286EDB2DD182F8FE99FE00197F1F707
S11307E000C0000041E050E06DE286EDA6DD082F78
S11307F06C2D70E0762F66276D0D711D882777FDAF
S11308008095982F13D429E23CE54FE05CE3BED4F5
S11308106C877D878E879F876E2D70E0762F662785
S11308206F0D711D882777FD8095982FFFD329E2DE
S11308303CE54FE05CE3AAD4688B798B8A8B9B8B75
S1130840602F70E0762F6627610F711D882777FD72
S11308508095982FEBD329E23CE54FE05CE396D4F6
S11308606C8B7D8B8E8B9F8BDF91CF911F910F9122
S1130870FF90EF90DF90CF9008954F925F926F9228
S11308807F928F929F92AF92BF92CF92DF92EF921C
S1130890FF920F931F93CF93DF9381E098DDEC01D8
S11308A004E610E0C12CD12C760146015701260143
S11308B03701CE015EDF2C853D854E855F85C30102
S11308C0B201E2D22B013C01288939894A895B892A
S11308D0C501B401D9D24B015C012C893D894E89F3
S11308E05F89C701B601D0D26B017C0101501109A7
S11308F001151105F1F620E030E048EC52E4C301A3
S1130900B2012AD3609322017093230180932401BE
S11309109093250120E030E048EC52E4C501B40195
S11309201BD360931E0170931F0180932001909349
S1130930210120E030E048EC52E4C701B6010CD3B9
S113094060931A0170931B0180931C0190931D0105
S1130950CE018ED68FE39CE90197F1F700C0000029
S1130960DF91CF911F910F91FF90EF90DF90CF9087
S1130970BF90AF909F908F907F906F905F904F90BB
S1130980089562DD8BE880937A006BDD77DD75DF97
S11309906CCE089581E084B915B829DCC0D178946F
S11309A0F0DFCAD181E090E0F8DC81E090E0DBDCAC
S11309B060E070E080E091E400C20895EAE7F0E0CE
S11309C08081886C80830895CF93DF93EC01F6DFF8
S11309D08FE19EE40197F1F700C0000040912E01E1
S11309E050912F0160913001709131014CA35DA3AE
S11309F06EA37FA3DF91CF910895CF92DF92EF9200
S1130A00FF920F931F93CF93DF93CDB7DEB7CD52F1
S1130A10D1400FB6F894DEBF0FBECDBF8C018EB5AA
S1130A208330A9F138F4813009F4C1C0823009F46B
S1130A308DC0DDC0843009F468C0853009F0D7C0AA
S1130A40F801E75DFE4F8081882309F4D0C081E17D
S1130A506DD1D8019896FE0131967E0181E0E80EB1
S1130A60F81E4D915D916D917D91419351936193E8
S1130A707193EE15FF05A9F78E010F5F1F4FF80163
S1130A8081918F0153D1E016F106C9F7B0C0F80186
S1130A90E65DFE4F8081882309F4A9C081E146D137
S1130AA0F801808D918DA28DB38D89839A83AB8358
S1130AB0BC83848D958DA68DB78D8D839E83AF83E6
S1130AC0B88780A191A1A2A1B3A189879A87AB8796
S1130AD0BC87CE0101967C016E019DE0C90ED11C3C
S1130AE0F70181917F0122D1EC14FD04C9F7F801CB
S1130AF0108E118E128E138E148E158E168E178EE6
S1130B0010A211A212A213A272C0F801E45DFE4F5A
S1130B108081882309F46BC081E108D1F80184A1A4
S1130B2095A1A6A1B7A189839A83AB83BC838E01C7
S1130B300F5F1F4F7E01F5E0EF0EF11CF80181916C
S1130B408F01F4D00E151F05C9F751C0F801E55DFA
S1130B50FE4F8081882309F44AC081E1E7D0F8017F
S1130B6080819181A281B38189839A83AB83BC8381
S1130B7044815581668177814D835E836F83788755
S1130B8080859185A285B38589879A87AB87BC8741
S1130B908E010F5F1F4F7E01FDE0EF0EF11CF80187
S1130BA081918F01C3D00E151F05C9F720C0F8012C
S1130BB0E85DFE4F80818823D1F081E1B7D08DE2DA
S1130BC091E0F801DE01119601900D920197E1F791
S1130BD08E010F5F1F4F7E01F2EDEF1AFEEFFF0A49
S1130BE0F80181918F01A2D00E151F05C9F7C35DCD
S1130BF0DE4F0FB6F894DEBF0FBECDBFDF91CF91AD
S1130C001F910F91FF90EF90DF90CF9008951F9266
S1130C100F920FB60F9211240BB60F922F933F939E
S1130C204F935F936F937F938F939F93AF93BF93F0
S1130C30EF93FF9380910D0181110AC081E08093AD
S1130C400D0180912A0190912B01D7DE10920D01A4
S1130C50FF91EF91BF91AF919F918F917F916F9190
S1130C605F914F913F912F910F900BBE0F900FBE4C
S1130C700F901F9018951F920F920FB60F92112488
S1130C800BB60F922F933F934F935F936F937F9382
S1130C908F939F93AF93BF93EF93FF9380917800CB
S1130CA02091790090E0922B90932D0180932C0158
S1130CB080912C0190912D010CDC60932E01709396
S1130CC02F0180933001909331018FE99FE00197C8
S1130CD0F1F700C00000EAE7F0E080818083FF9133
S1130CE0EF91BF91AF919F918F917F916F915F91A0
S1130CF04F913F912F910F900BBE0F900FBE0F900D
S1130D001F90189547DE81E062DB90932B0180935E
S1130D102A0180912A0190912B0156DEFACF8CB5DD
S1130D2080688CBD8CB580648CBD08958EBD0DB477
S1130D3007FEFDCF8EB5089587E484B908951F9208
S1130D400F920FB60F9211242F933F934F935F93FB
S1130D506F937F938F939F93AF932091360130913C
S1130D603701409138015091390160913A017091F5
S1130D703B0180913C0190913D01A1E0D5D32093AA
S1130D803601309337014093380150933901609311
S1130D903A0170933B0180933C0190933D01AF91E4
S1130DA09F918F917F916F915F914F913F912F917F
S1130DB00F900FBE0F901F901895CF92DF92EF9275
S1130DC0FF926B017C01E0E8F0E08081808320E009
S1130DD030E040E85FE3C701B601BAD0811106C034
S1130DE0E1E8F0E08081816080831EC020E030E093
S1130DF040E051E4C701B601ABD0811106C0E1E87F
S1130E00F0E08081826080831EC020E030E040E812
S1130E1052E4C701B6019CD0811106C0E1E8F0E0BC
S1130E208081836080831DC020E030E040E853E48B
S1130E30C701B6018DD0811106C0E1E8F0E08081E0
S1130E40846080830EC020E030E040E854E4C701B1
S1130E50B6017ED0811105C0E1E8F0E080818560B3
S1130E608083C0923201D0923301E0923401F09237
S1130E703501EFE6F0E0808181608083FF90EF90A0
S1130E80DF90CF9008955058BB27AA270ED044C1B5
S1130E9035D130F03AD120F031F49F3F11F41EF4F3
S1130EA02AC10EF4E095E7FB20C1E92F46D180F377
S1130EB0BA17620773078407950718F071F49EF553
S1130EC05EC10EF4E0950B2EBA2FA02D0B01B901D3
S1130ED090010C01CA01A0011124FF27591B99F0AC
S1130EE0593F50F4503E68F11A16F040A22F232FB8
S1130EF0342F4427585FF3CF469537952795A79508
S1130F00F0405395C9F77EF41F16BA0B620B730BAE
S1130F10840BBAF09150A1F0FF0FBB1F661F771F1F
S1130F20881FC2F70EC0BA0F621F731F841F48F4D4
S1130F30879577956795B795F7959E3F08F0B3CF5A
S1130F409395880F08F09927EE0F97958795089544
S1130F50A8D008F481E008950CD0DEC0D6D040F0CB
S1130F60CDD030F021F45F3F19F0BFC0511108C15A
S1130F70C2C0E3D098F39923C9F35523B1F3951B69
S1130F80550BBB27AA2762177307840738F09F5FA6
S1130F905F4F220F331F441FAA1FA9F333D00E2E15
S1130FA03AF0E0E830D091505040E695001CCAF782
S1130FB029D0FE2F27D0660F771F881FBB1F261747
S1130FC037074807AB07B0E809F0BB0B802DBF011A
S1130FD0FF2793585F4F2AF09E3F510568F085C064
S1130FE0CFC05F3FECF3983EDCF386957795679529
S1130FF0B795F7959F5FC9F7880F911D96958795CB
S113100097F90895E1E0660F771F881FBB1F6217E9
S113101073078407BA0720F0621B730B840BBA0BA7
S1131020EE1F88F7E0950895E89409C097FB3EF415
S113103090958095709561957F4F8F4F9F4F992321
S1131040A9F0F92F96E9BB279395F695879577959F
S11310506795B795F111F8CFFAF4BB0F11F460FF5F
S11310601BC06F5F7F4F8F4F9F4F16C0882311F0B7
S113107096E911C0772321F09EE8872F762F05C0CB
S1131080662371F096E8862F70E060E02AF09A9566
S1131090660F771F881FDAF7880F9695879597F95B
S11310A00895990F0008550FAA0BE0E8FEEF1616F5
S11310B01706E807F907C0F012161306E407F50748
S11310C098F0621B730B840B950B39F40A2661F0BC
S11310D0232B242B252B21F408950A2609F4A1405F
S11310E0A6958FEF811D811D089597F99F6780E86C
S11310F070E060E008959FEF80EC089500240A9466
S11311001616170618060906089500240A941216DE
S11311101306140605060895092E0394000C11F411
S1131120882352F0BB0F40F4BF2B11F460FF04C0BE
S11311306F5F7F4F8F4F9F4F089557FD9058440F17
S1131140551F59F05F3F71F04795880F97FB991F22
S113115061F09F3F79F087950895121613061406DF
S1131160551FF2CF4695F1DF08C01616170618066C
S1131170991FF1CF86957105610508940895E89447
S1131180BB2766277727CB0197F908950BD0C4CFE7
S1131190B5DF28F0BADF18F0952309F0A6CFABCF5E
S11311A01124EECFCADFA0F3959FD1F3950F50E041
S11311B0551F629FF001729FBB27F00DB11D639F05
S11311C0AA27F00DB11DAA1F649F6627B00DA11DAB
S11311D0661F829F2227B00DA11D621F739FB00D51
S11311E0A11D621F839FA00D611D221F749F3327C1
S11311F0A00D611D231F849F600D211D822F762F5A
S11312006A2F11249F5750408AF0E1F088234AF056
S1131210EE0FFF1FBB1F661F771F881F91505040A2
S1131220A9F79E3F510570F060CFAACF5F3FECF362
S1131230983EDCF3869577956795B795F795E7958E
S11312409F5FC1F7FE2B880F911D9695879597F99F
S11312500895FA01EE0FFF1F30962105310599F12B
S11312606115710561F48038BFE39B0749F1689407
S11312709038810561F08038BFEF9B0741F09923D6
S113128042F5FF3FE1053105210511F1E894089489
S1131290E795D901AA2329F4AB2FBE2FF85FD0F329
S11312A010C0FF5F70F4A695E0F7F73950F019F01D
S11312B0FF3A38F49F779F930CD00F9007FC905817
S11312C008953EF018CF60E070E080E89FE3089551
S11312D04FE79F775F934F933F932F939ED02F9128
S11312E03F914F915F9152DF05C019F40EF0FDCE8E
S11312F046CF01CF2ADFC8F39638C0F707F80F921C
S1131300E8942BE33AEA48EB5FE74EDF0F920F9243
S11313100F924DB75EB70F92C0D0EEE2F1E016D057
S11313204F915F91EF91FF91E595EE1FFF1F49F0FB
S1131330FE57E0684427EE0F441FFA95E1F7419504
S1131340550B32D00F9007FE26C00895DF93CF933C
S11313501F930F93FF92EF92DF927B018C016894AD
S113136005C0DA2EEF011EDFFE01E894A591259158
S1131370359145915591AEF3EF0197DDFE0197014B
S1131380A801DA9479F7DF90EF90FF900F911F9105
S1131390CF91DF9108959B01AC0160E070E080E89B
S11313A09FE3DACDA2CEACC0D0DEE8F39923D9F323
S11313B0940F511DBBF39150504094F059F0882381
S11313C032F0660F771F881F91505040C1F79E3F3F
S11313D0510544F7880F911D9695879597F90895BF
S11313E05F3FACF0983E9CF0BB2786957795679558
S11313F0B79508F4B1609395C1F7BB0F58F711F492
S113140060FFE8CF6F5F7F4F8F4F9F4FE3CFB8CE22
S11314100EF076C070CE689468CE97DEC8F3992338
S1131420D1F3C6F3DF93CF931F930F93FF92C92F8A
S1131430DD2788232AF02197660F771F881FDAF7A4
S113144020E030E040E85FEB9FE3883920F0803E05
S113145030F021968F7718DDE6E5F1E003C014DD66
S1131460E3E8F1E073DF8B01BE01EC01FB2E6F5763
S113147071097595771F880B990BD8DD28E132E740
S113148041E35FE38FDEAF2D9801AE01FF900F9132
S11314901F91CF91DF9109DD3FCEFA01DC01AA0F44
S11314A0BB1F9B01AC01BF5728F4222733274427D5
S11314B050781FC0B75188F4AB2F00244695379558
S11314C02795011CA395D2F3002069F0220F331F46
S11314D0441FB395DAF30DD0D6CC61307105A0E882
S11314E08A07B94630F49B01AC0166277727882721
S11314F09078309621F0208331834283538308957A
S11315009F3F31F0915020F4879577956795B79573
S1131510880F911D9695879597F90895EE0FFF1FF3
S11315200590F491E02D09940024A7FD00942A0F5E
S1131530301D401D501D601D701D801D901D08959F
S1131540CF93DF938230910510F482E090E0E09134
S11315504001F091410120E030E0A0E0B0E030979C
S113156039F14081518148175907B8F04817590794
S113157071F482819381109729F013969C938E9332
S113158012972CC0909341018093400127C02115EC
S1131590310531F04217530718F0A901DB0101C0EE
S11315A0EF019A01BD01DF010280F381E02DD7CF65
S11315B021153105F9F0281B390B2430310580F44D
S11315C08A819B816115710521F0FB0193838283DC
S11315D004C09093410180934001FE01329644C0BF
S11315E0FE01E20FF31F8193919322503109398355
S11315F028833AC020913E0130913F01232B41F4CE
S1131600209102013091030130933F0120933E0168
S113161020910001309101012115310541F42DB7CC
S11316203EB74091040150910501241B350BE09114
S11316303E01F0913F01E217F307A0F42E1B3F0B8C
S11316402817390778F0AC014E5F5F4F2417350730
S113165048F04E0F5F1F50933F0140933E0181932A
S1131660919302C0E0E0F0E0CF01DF91CF910895C3
S1131670CF93DF93009709F487C0FC01329713825C
S11316801282C0914001D0914101209781F42081C0
S11316903181280F391F80913E0190913F018217BB
S11316A0930779F5F0933F01E0933E016DC0DE01AD
S11316B020E030E0AE17BF0750F412964D915C91D4
S11316C013979D014115510509F1DA01F3CFB38355
S11316D0A28340815181840F951F8A179B0771F45F
S11316E08D919C911197840F951F0296918380830D
S11316F012968D919C9113979383828321153105C2
S113170029F4F0934101E09340013EC0D9011396BE
S1131710FC93EE9312974D915D91A40FB51FEA17B8
S1131720FB0779F480819181840F951F0296D9017A
S113173011969C938E938281938113969C938E939E
S11317401297E0E0F0E08A819B81009719F0FE0196
S1131750EC01F9CFCE01029628813981820F931FC3
S113176020913E0130913F012817390769F43097E1
S113177029F4109241011092400102C01382128296
S1131780D0933F01C0933E01DF91CF910895F89427
S1051790FFCF85
S10B17920000420120000100E7
S9030000FC
